{
	"contracts/5_MultiItemAuction.sol": {
		"MultiItemAuction": {
			"abi": [
				{
					"inputs": [
						{
							"internalType": "uint256",
							"name": "_biddingTime",
							"type": "uint256"
						},
						{
							"internalType": "uint256[]",
							"name": "_itemIds",
							"type": "uint256[]"
						},
						{
							"internalType": "uint256[]",
							"name": "_startingBids",
							"type": "uint256[]"
						}
					],
					"stateMutability": "nonpayable",
					"type": "constructor"
				},
				{
					"anonymous": false,
					"inputs": [
						{
							"indexed": false,
							"internalType": "uint256",
							"name": "itemId",
							"type": "uint256"
						},
						{
							"indexed": false,
							"internalType": "address",
							"name": "winner",
							"type": "address"
						},
						{
							"indexed": false,
							"internalType": "uint256",
							"name": "amount",
							"type": "uint256"
						}
					],
					"name": "AuctionEnded",
					"type": "event"
				},
				{
					"anonymous": false,
					"inputs": [
						{
							"indexed": false,
							"internalType": "uint256",
							"name": "itemId",
							"type": "uint256"
						},
						{
							"indexed": false,
							"internalType": "address",
							"name": "bidder",
							"type": "address"
						},
						{
							"indexed": false,
							"internalType": "uint256",
							"name": "amount",
							"type": "uint256"
						}
					],
					"name": "HighestBidIncreased",
					"type": "event"
				},
				{
					"inputs": [],
					"name": "auctionEndTime",
					"outputs": [
						{
							"internalType": "uint256",
							"name": "",
							"type": "uint256"
						}
					],
					"stateMutability": "view",
					"type": "function"
				},
				{
					"inputs": [],
					"name": "auctioneer",
					"outputs": [
						{
							"internalType": "address",
							"name": "",
							"type": "address"
						}
					],
					"stateMutability": "view",
					"type": "function"
				},
				{
					"inputs": [
						{
							"internalType": "uint256",
							"name": "itemId",
							"type": "uint256"
						}
					],
					"name": "bid",
					"outputs": [],
					"stateMutability": "payable",
					"type": "function"
				},
				{
					"inputs": [
						{
							"internalType": "uint256",
							"name": "itemId",
							"type": "uint256"
						}
					],
					"name": "endAuction",
					"outputs": [],
					"stateMutability": "nonpayable",
					"type": "function"
				},
				{
					"inputs": [
						{
							"internalType": "uint256",
							"name": "",
							"type": "uint256"
						}
					],
					"name": "itemIds",
					"outputs": [
						{
							"internalType": "uint256",
							"name": "",
							"type": "uint256"
						}
					],
					"stateMutability": "view",
					"type": "function"
				},
				{
					"inputs": [
						{
							"internalType": "uint256",
							"name": "",
							"type": "uint256"
						}
					],
					"name": "items",
					"outputs": [
						{
							"internalType": "uint256",
							"name": "itemId",
							"type": "uint256"
						},
						{
							"internalType": "uint256",
							"name": "startingBid",
							"type": "uint256"
						},
						{
							"internalType": "uint256",
							"name": "highestBid",
							"type": "uint256"
						},
						{
							"internalType": "address",
							"name": "highestBidder",
							"type": "address"
						},
						{
							"internalType": "bool",
							"name": "active",
							"type": "bool"
						}
					],
					"stateMutability": "view",
					"type": "function"
				},
				{
					"inputs": [
						{
							"internalType": "uint256",
							"name": "",
							"type": "uint256"
						},
						{
							"internalType": "address",
							"name": "",
							"type": "address"
						}
					],
					"name": "pendingReturns",
					"outputs": [
						{
							"internalType": "uint256",
							"name": "",
							"type": "uint256"
						}
					],
					"stateMutability": "view",
					"type": "function"
				},
				{
					"inputs": [
						{
							"internalType": "uint256",
							"name": "itemId",
							"type": "uint256"
						}
					],
					"name": "withdraw",
					"outputs": [
						{
							"internalType": "bool",
							"name": "",
							"type": "bool"
						}
					],
					"stateMutability": "nonpayable",
					"type": "function"
				}
			],
			"devdoc": {
				"author": "Peter Brooke",
				"custom:dev-run-script": "scripts/deploy_with_web3.ts",
				"details": "Multi-item aucton contract    The auction system should allow users to place bids on items and automatically determine the highest bidder when the auction ends.    The smart contract should have the following functionality:    1. Initialise the auction with a list of items and their starting bids.    2. Allow users to place bids on items.    3. Automatically determine the highest bidder for each item when the auction ends.",
				"kind": "dev",
				"methods": {},
				"title": "ContractName",
				"version": 1
			},
			"evm": {
				"assembly": "    /* \"contracts/5_MultiItemAuction.sol\":661:3524  contract MultiItemAuction {... */\n  mstore(0x40, 0x80)\n    /* \"contracts/5_MultiItemAuction.sol\":1183:1833  constructor(uint _biddingTime, uint[] memory _itemIds, uint[] memory _startingBids) {... */\n  callvalue\n  dup1\n  iszero\n  tag_1\n  jumpi\n  0x00\n  dup1\n  revert\ntag_1:\n  pop\n  mload(0x40)\n  sub(codesize, bytecodeSize)\n  dup1\n  bytecodeSize\n  dup4\n  codecopy\n  dup2\n  dup2\n  add\n  0x40\n  mstore\n  dup2\n  add\n  swap1\n  tag_2\n  swap2\n  swap1\n  tag_3\n  jump\t// in\ntag_2:\n    /* \"contracts/5_MultiItemAuction.sol\":1304:1317  _startingBids */\n  dup1\n    /* \"contracts/5_MultiItemAuction.sol\":1304:1324  _startingBids.length */\n  mload\n    /* \"contracts/5_MultiItemAuction.sol\":1285:1293  _itemIds */\n  dup3\n    /* \"contracts/5_MultiItemAuction.sol\":1285:1300  _itemIds.length */\n  mload\n    /* \"contracts/5_MultiItemAuction.sol\":1285:1324  _itemIds.length == _startingBids.length */\n  eq\n    /* \"contracts/5_MultiItemAuction.sol\":1277:1389  require(_itemIds.length == _startingBids.length, \"Item IDs and starting bids arrays must have the same length.\") */\n  tag_6\n  jumpi\n  mload(0x40)\n  0x08c379a000000000000000000000000000000000000000000000000000000000\n  dup2\n  mstore\n  0x04\n  add\n  tag_7\n  swap1\n  tag_8\n  jump\t// in\ntag_7:\n  mload(0x40)\n  dup1\n  swap2\n  sub\n  swap1\n  revert\ntag_6:\n    /* \"contracts/5_MultiItemAuction.sol\":1413:1423  msg.sender */\n  caller\n    /* \"contracts/5_MultiItemAuction.sol\":1400:1410  auctioneer */\n  0x00\n  dup1\n    /* \"contracts/5_MultiItemAuction.sol\":1400:1423  auctioneer = msg.sender */\n  0x0100\n  exp\n  dup2\n  sload\n  dup2\n  0xffffffffffffffffffffffffffffffffffffffff\n  mul\n  not\n  and\n  swap1\n  dup4\n  0xffffffffffffffffffffffffffffffffffffffff\n  and\n  mul\n  or\n  swap1\n  sstore\n  pop\n    /* \"contracts/5_MultiItemAuction.sol\":1468:1480  _biddingTime */\n  dup3\n    /* \"contracts/5_MultiItemAuction.sol\":1450:1465  block.timestamp */\n  timestamp\n    /* \"contracts/5_MultiItemAuction.sol\":1450:1480  block.timestamp + _biddingTime */\n  tag_9\n  swap2\n  swap1\n  tag_10\n  jump\t// in\ntag_9:\n    /* \"contracts/5_MultiItemAuction.sol\":1433:1447  auctionEndTime */\n  0x01\n    /* \"contracts/5_MultiItemAuction.sol\":1433:1480  auctionEndTime = block.timestamp + _biddingTime */\n  dup2\n  swap1\n  sstore\n  pop\n    /* \"contracts/5_MultiItemAuction.sol\":1496:1502  uint i */\n  0x00\n    /* \"contracts/5_MultiItemAuction.sol\":1491:1827  for (uint i = 0; i < _itemIds.length; i++) {... */\ntag_11:\n    /* \"contracts/5_MultiItemAuction.sol\":1512:1520  _itemIds */\n  dup3\n    /* \"contracts/5_MultiItemAuction.sol\":1512:1527  _itemIds.length */\n  mload\n    /* \"contracts/5_MultiItemAuction.sol\":1508:1509  i */\n  dup2\n    /* \"contracts/5_MultiItemAuction.sol\":1508:1527  i < _itemIds.length */\n  lt\n    /* \"contracts/5_MultiItemAuction.sol\":1491:1827  for (uint i = 0; i < _itemIds.length; i++) {... */\n  iszero\n  tag_12\n  jumpi\n    /* \"contracts/5_MultiItemAuction.sol\":1569:1777  Item({... */\n  mload(0x40)\n  dup1\n  0xa0\n  add\n  0x40\n  mstore\n  dup1\n    /* \"contracts/5_MultiItemAuction.sol\":1600:1608  _itemIds */\n  dup5\n    /* \"contracts/5_MultiItemAuction.sol\":1609:1610  i */\n  dup4\n    /* \"contracts/5_MultiItemAuction.sol\":1600:1611  _itemIds[i] */\n  dup2\n  mload\n  dup2\n  lt\n  tag_14\n  jumpi\n  tag_15\n  tag_16\n  jump\t// in\ntag_15:\ntag_14:\n  0x20\n  mul\n  0x20\n  add\n  add\n  mload\n    /* \"contracts/5_MultiItemAuction.sol\":1569:1777  Item({... */\n  dup2\n  mstore\n  0x20\n  add\n    /* \"contracts/5_MultiItemAuction.sol\":1642:1655  _startingBids */\n  dup4\n    /* \"contracts/5_MultiItemAuction.sol\":1656:1657  i */\n  dup4\n    /* \"contracts/5_MultiItemAuction.sol\":1642:1658  _startingBids[i] */\n  dup2\n  mload\n  dup2\n  lt\n  tag_17\n  jumpi\n  tag_18\n  tag_16\n  jump\t// in\ntag_18:\ntag_17:\n  0x20\n  mul\n  0x20\n  add\n  add\n  mload\n    /* \"contracts/5_MultiItemAuction.sol\":1569:1777  Item({... */\n  dup2\n  mstore\n  0x20\n  add\n    /* \"contracts/5_MultiItemAuction.sol\":1688:1689  0 */\n  0x00\n    /* \"contracts/5_MultiItemAuction.sol\":1569:1777  Item({... */\n  dup2\n  mstore\n  0x20\n  add\n    /* \"contracts/5_MultiItemAuction.sol\":1730:1731  0 */\n  0x00\n    /* \"contracts/5_MultiItemAuction.sol\":1569:1777  Item({... */\n  0xffffffffffffffffffffffffffffffffffffffff\n  and\n  dup2\n  mstore\n  0x20\n  add\n    /* \"contracts/5_MultiItemAuction.sol\":1758:1762  true */\n  0x01\n    /* \"contracts/5_MultiItemAuction.sol\":1569:1777  Item({... */\n  iszero\n  iszero\n  dup2\n  mstore\n  pop\n    /* \"contracts/5_MultiItemAuction.sol\":1548:1553  items */\n  0x02\n    /* \"contracts/5_MultiItemAuction.sol\":1548:1566  items[_itemIds[i]] */\n  0x00\n    /* \"contracts/5_MultiItemAuction.sol\":1554:1562  _itemIds */\n  dup6\n    /* \"contracts/5_MultiItemAuction.sol\":1563:1564  i */\n  dup5\n    /* \"contracts/5_MultiItemAuction.sol\":1554:1565  _itemIds[i] */\n  dup2\n  mload\n  dup2\n  lt\n  tag_19\n  jumpi\n  tag_20\n  tag_16\n  jump\t// in\ntag_20:\ntag_19:\n  0x20\n  mul\n  0x20\n  add\n  add\n  mload\n    /* \"contracts/5_MultiItemAuction.sol\":1548:1566  items[_itemIds[i]] */\n  dup2\n  mstore\n  0x20\n  add\n  swap1\n  dup2\n  mstore\n  0x20\n  add\n  0x00\n  keccak256\n    /* \"contracts/5_MultiItemAuction.sol\":1548:1777  items[_itemIds[i]] = Item({... */\n  0x00\n  dup3\n  add\n  mload\n  dup2\n  0x00\n  add\n  sstore\n  0x20\n  dup3\n  add\n  mload\n  dup2\n  0x01\n  add\n  sstore\n  0x40\n  dup3\n  add\n  mload\n  dup2\n  0x02\n  add\n  sstore\n  0x60\n  dup3\n  add\n  mload\n  dup2\n  0x03\n  add\n  exp(0x0100, 0x00)\n  dup2\n  sload\n  dup2\n  0xffffffffffffffffffffffffffffffffffffffff\n  mul\n  not\n  and\n  swap1\n  dup4\n  0xffffffffffffffffffffffffffffffffffffffff\n  and\n  mul\n  or\n  swap1\n  sstore\n  pop\n  0x80\n  dup3\n  add\n  mload\n  dup2\n  0x03\n  add\n  exp(0x0100, 0x14)\n  dup2\n  sload\n  dup2\n  0xff\n  mul\n  not\n  and\n  swap1\n  dup4\n  iszero\n  iszero\n  mul\n  or\n  swap1\n  sstore\n  pop\n  swap1\n  pop\n  pop\n    /* \"contracts/5_MultiItemAuction.sol\":1791:1798  itemIds */\n  0x04\n    /* \"contracts/5_MultiItemAuction.sol\":1804:1812  _itemIds */\n  dup4\n    /* \"contracts/5_MultiItemAuction.sol\":1813:1814  i */\n  dup3\n    /* \"contracts/5_MultiItemAuction.sol\":1804:1815  _itemIds[i] */\n  dup2\n  mload\n  dup2\n  lt\n  tag_21\n  jumpi\n  tag_22\n  tag_16\n  jump\t// in\ntag_22:\ntag_21:\n  0x20\n  mul\n  0x20\n  add\n  add\n  mload\n    /* \"contracts/5_MultiItemAuction.sol\":1791:1816  itemIds.push(_itemIds[i]) */\n  swap1\n  dup1\n  0x01\n  dup2\n  sload\n  add\n  dup1\n  dup3\n  sstore\n  dup1\n  swap2\n  pop\n  pop\n  0x01\n  swap1\n  sub\n  swap1\n  0x00\n  mstore\n  keccak256(0x00, 0x20)\n  add\n  0x00\n  swap1\n  swap2\n  swap1\n  swap2\n  swap1\n  swap2\n  pop\n  sstore\n    /* \"contracts/5_MultiItemAuction.sol\":1529:1532  i++ */\n  dup1\n  dup1\n  tag_24\n  swap1\n  tag_25\n  jump\t// in\ntag_24:\n  swap2\n  pop\n  pop\n    /* \"contracts/5_MultiItemAuction.sol\":1491:1827  for (uint i = 0; i < _itemIds.length; i++) {... */\n  jump(tag_11)\ntag_12:\n  pop\n    /* \"contracts/5_MultiItemAuction.sol\":1183:1833  constructor(uint _biddingTime, uint[] memory _itemIds, uint[] memory _startingBids) {... */\n  pop\n  pop\n  pop\n    /* \"contracts/5_MultiItemAuction.sol\":661:3524  contract MultiItemAuction {... */\n  jump(tag_26)\n    /* \"#utility.yul\":7:82   */\ntag_27:\n    /* \"#utility.yul\":40:46   */\n  0x00\n    /* \"#utility.yul\":73:75   */\n  0x40\n    /* \"#utility.yul\":67:76   */\n  mload\n    /* \"#utility.yul\":57:76   */\n  swap1\n  pop\n    /* \"#utility.yul\":7:82   */\n  swap1\n  jump\t// out\n    /* \"#utility.yul\":88:205   */\ntag_28:\n    /* \"#utility.yul\":197:198   */\n  0x00\n    /* \"#utility.yul\":194:195   */\n  dup1\n    /* \"#utility.yul\":187:199   */\n  revert\n    /* \"#utility.yul\":211:328   */\ntag_29:\n    /* \"#utility.yul\":320:321   */\n  0x00\n    /* \"#utility.yul\":317:318   */\n  dup1\n    /* \"#utility.yul\":310:322   */\n  revert\n    /* \"#utility.yul\":334:411   */\ntag_30:\n    /* \"#utility.yul\":371:378   */\n  0x00\n    /* \"#utility.yul\":400:405   */\n  dup2\n    /* \"#utility.yul\":389:405   */\n  swap1\n  pop\n    /* \"#utility.yul\":334:411   */\n  swap2\n  swap1\n  pop\n  jump\t// out\n    /* \"#utility.yul\":417:539   */\ntag_31:\n    /* \"#utility.yul\":490:514   */\n  tag_52\n    /* \"#utility.yul\":508:513   */\n  dup2\n    /* \"#utility.yul\":490:514   */\n  tag_30\n  jump\t// in\ntag_52:\n    /* \"#utility.yul\":483:488   */\n  dup2\n    /* \"#utility.yul\":480:515   */\n  eq\n    /* \"#utility.yul\":470:533   */\n  tag_53\n  jumpi\n    /* \"#utility.yul\":529:530   */\n  0x00\n    /* \"#utility.yul\":526:527   */\n  dup1\n    /* \"#utility.yul\":519:531   */\n  revert\n    /* \"#utility.yul\":470:533   */\ntag_53:\n    /* \"#utility.yul\":417:539   */\n  pop\n  jump\t// out\n    /* \"#utility.yul\":545:688   */\ntag_32:\n    /* \"#utility.yul\":602:607   */\n  0x00\n    /* \"#utility.yul\":633:639   */\n  dup2\n    /* \"#utility.yul\":627:640   */\n  mload\n    /* \"#utility.yul\":618:640   */\n  swap1\n  pop\n    /* \"#utility.yul\":649:682   */\n  tag_55\n    /* \"#utility.yul\":676:681   */\n  dup2\n    /* \"#utility.yul\":649:682   */\n  tag_31\n  jump\t// in\ntag_55:\n    /* \"#utility.yul\":545:688   */\n  swap3\n  swap2\n  pop\n  pop\n  jump\t// out\n    /* \"#utility.yul\":694:811   */\ntag_33:\n    /* \"#utility.yul\":803:804   */\n  0x00\n    /* \"#utility.yul\":800:801   */\n  dup1\n    /* \"#utility.yul\":793:805   */\n  revert\n    /* \"#utility.yul\":817:919   */\ntag_34:\n    /* \"#utility.yul\":858:864   */\n  0x00\n    /* \"#utility.yul\":909:911   */\n  0x1f\n    /* \"#utility.yul\":905:912   */\n  not\n    /* \"#utility.yul\":900:902   */\n  0x1f\n    /* \"#utility.yul\":893:898   */\n  dup4\n    /* \"#utility.yul\":889:903   */\n  add\n    /* \"#utility.yul\":885:913   */\n  and\n    /* \"#utility.yul\":875:913   */\n  swap1\n  pop\n    /* \"#utility.yul\":817:919   */\n  swap2\n  swap1\n  pop\n  jump\t// out\n    /* \"#utility.yul\":925:1105   */\ntag_35:\n    /* \"#utility.yul\":973:1050   */\n  0x4e487b7100000000000000000000000000000000000000000000000000000000\n    /* \"#utility.yul\":970:971   */\n  0x00\n    /* \"#utility.yul\":963:1051   */\n  mstore\n    /* \"#utility.yul\":1070:1074   */\n  0x41\n    /* \"#utility.yul\":1067:1068   */\n  0x04\n    /* \"#utility.yul\":1060:1075   */\n  mstore\n    /* \"#utility.yul\":1094:1098   */\n  0x24\n    /* \"#utility.yul\":1091:1092   */\n  0x00\n    /* \"#utility.yul\":1084:1099   */\n  revert\n    /* \"#utility.yul\":1111:1392   */\ntag_36:\n    /* \"#utility.yul\":1194:1221   */\n  tag_60\n    /* \"#utility.yul\":1216:1220   */\n  dup3\n    /* \"#utility.yul\":1194:1221   */\n  tag_34\n  jump\t// in\ntag_60:\n    /* \"#utility.yul\":1186:1192   */\n  dup2\n    /* \"#utility.yul\":1182:1222   */\n  add\n    /* \"#utility.yul\":1324:1330   */\n  dup2\n    /* \"#utility.yul\":1312:1322   */\n  dup2\n    /* \"#utility.yul\":1309:1331   */\n  lt\n    /* \"#utility.yul\":1288:1306   */\n  0xffffffffffffffff\n    /* \"#utility.yul\":1276:1286   */\n  dup3\n    /* \"#utility.yul\":1273:1307   */\n  gt\n    /* \"#utility.yul\":1270:1332   */\n  or\n    /* \"#utility.yul\":1267:1355   */\n  iszero\n  tag_61\n  jumpi\n    /* \"#utility.yul\":1335:1353   */\n  tag_62\n  tag_35\n  jump\t// in\ntag_62:\n    /* \"#utility.yul\":1267:1355   */\ntag_61:\n    /* \"#utility.yul\":1375:1385   */\n  dup1\n    /* \"#utility.yul\":1371:1373   */\n  0x40\n    /* \"#utility.yul\":1364:1386   */\n  mstore\n    /* \"#utility.yul\":1154:1392   */\n  pop\n    /* \"#utility.yul\":1111:1392   */\n  pop\n  pop\n  jump\t// out\n    /* \"#utility.yul\":1398:1527   */\ntag_37:\n    /* \"#utility.yul\":1432:1438   */\n  0x00\n    /* \"#utility.yul\":1459:1479   */\n  tag_64\n  tag_27\n  jump\t// in\ntag_64:\n    /* \"#utility.yul\":1449:1479   */\n  swap1\n  pop\n    /* \"#utility.yul\":1488:1521   */\n  tag_65\n    /* \"#utility.yul\":1516:1520   */\n  dup3\n    /* \"#utility.yul\":1508:1514   */\n  dup3\n    /* \"#utility.yul\":1488:1521   */\n  tag_36\n  jump\t// in\ntag_65:\n    /* \"#utility.yul\":1398:1527   */\n  swap2\n  swap1\n  pop\n  jump\t// out\n    /* \"#utility.yul\":1533:1844   */\ntag_38:\n    /* \"#utility.yul\":1610:1614   */\n  0x00\n    /* \"#utility.yul\":1700:1718   */\n  0xffffffffffffffff\n    /* \"#utility.yul\":1692:1698   */\n  dup3\n    /* \"#utility.yul\":1689:1719   */\n  gt\n    /* \"#utility.yul\":1686:1742   */\n  iszero\n  tag_67\n  jumpi\n    /* \"#utility.yul\":1722:1740   */\n  tag_68\n  tag_35\n  jump\t// in\ntag_68:\n    /* \"#utility.yul\":1686:1742   */\ntag_67:\n    /* \"#utility.yul\":1772:1776   */\n  0x20\n    /* \"#utility.yul\":1764:1770   */\n  dup3\n    /* \"#utility.yul\":1760:1777   */\n  mul\n    /* \"#utility.yul\":1752:1777   */\n  swap1\n  pop\n    /* \"#utility.yul\":1832:1836   */\n  0x20\n    /* \"#utility.yul\":1826:1830   */\n  dup2\n    /* \"#utility.yul\":1822:1837   */\n  add\n    /* \"#utility.yul\":1814:1837   */\n  swap1\n  pop\n    /* \"#utility.yul\":1533:1844   */\n  swap2\n  swap1\n  pop\n  jump\t// out\n    /* \"#utility.yul\":1850:1967   */\ntag_39:\n    /* \"#utility.yul\":1959:1960   */\n  0x00\n    /* \"#utility.yul\":1956:1957   */\n  dup1\n    /* \"#utility.yul\":1949:1961   */\n  revert\n    /* \"#utility.yul\":1990:2722   */\ntag_40:\n    /* \"#utility.yul\":2097:2102   */\n  0x00\n    /* \"#utility.yul\":2122:2203   */\n  tag_71\n    /* \"#utility.yul\":2138:2202   */\n  tag_72\n    /* \"#utility.yul\":2195:2201   */\n  dup5\n    /* \"#utility.yul\":2138:2202   */\n  tag_38\n  jump\t// in\ntag_72:\n    /* \"#utility.yul\":2122:2203   */\n  tag_37\n  jump\t// in\ntag_71:\n    /* \"#utility.yul\":2113:2203   */\n  swap1\n  pop\n    /* \"#utility.yul\":2223:2228   */\n  dup1\n    /* \"#utility.yul\":2252:2258   */\n  dup4\n    /* \"#utility.yul\":2245:2250   */\n  dup3\n    /* \"#utility.yul\":2238:2259   */\n  mstore\n    /* \"#utility.yul\":2286:2290   */\n  0x20\n    /* \"#utility.yul\":2279:2284   */\n  dup3\n    /* \"#utility.yul\":2275:2291   */\n  add\n    /* \"#utility.yul\":2268:2291   */\n  swap1\n  pop\n    /* \"#utility.yul\":2339:2343   */\n  0x20\n    /* \"#utility.yul\":2331:2337   */\n  dup5\n    /* \"#utility.yul\":2327:2344   */\n  mul\n    /* \"#utility.yul\":2319:2325   */\n  dup4\n    /* \"#utility.yul\":2315:2345   */\n  add\n    /* \"#utility.yul\":2368:2371   */\n  dup6\n    /* \"#utility.yul\":2360:2366   */\n  dup2\n    /* \"#utility.yul\":2357:2372   */\n  gt\n    /* \"#utility.yul\":2354:2476   */\n  iszero\n  tag_73\n  jumpi\n    /* \"#utility.yul\":2387:2466   */\n  tag_74\n  tag_39\n  jump\t// in\ntag_74:\n    /* \"#utility.yul\":2354:2476   */\ntag_73:\n    /* \"#utility.yul\":2502:2508   */\n  dup4\n    /* \"#utility.yul\":2485:2716   */\ntag_75:\n    /* \"#utility.yul\":2519:2525   */\n  dup2\n    /* \"#utility.yul\":2514:2517   */\n  dup2\n    /* \"#utility.yul\":2511:2526   */\n  lt\n    /* \"#utility.yul\":2485:2716   */\n  iszero\n  tag_77\n  jumpi\n    /* \"#utility.yul\":2594:2597   */\n  dup1\n    /* \"#utility.yul\":2623:2671   */\n  tag_78\n    /* \"#utility.yul\":2667:2670   */\n  dup9\n    /* \"#utility.yul\":2655:2665   */\n  dup3\n    /* \"#utility.yul\":2623:2671   */\n  tag_32\n  jump\t// in\ntag_78:\n    /* \"#utility.yul\":2618:2621   */\n  dup5\n    /* \"#utility.yul\":2611:2672   */\n  mstore\n    /* \"#utility.yul\":2701:2705   */\n  0x20\n    /* \"#utility.yul\":2696:2699   */\n  dup5\n    /* \"#utility.yul\":2692:2706   */\n  add\n    /* \"#utility.yul\":2685:2706   */\n  swap4\n  pop\n    /* \"#utility.yul\":2561:2716   */\n  pop\n    /* \"#utility.yul\":2545:2549   */\n  0x20\n    /* \"#utility.yul\":2540:2543   */\n  dup2\n    /* \"#utility.yul\":2536:2550   */\n  add\n    /* \"#utility.yul\":2529:2550   */\n  swap1\n  pop\n    /* \"#utility.yul\":2485:2716   */\n  jump(tag_75)\ntag_77:\n    /* \"#utility.yul\":2489:2510   */\n  pop\n    /* \"#utility.yul\":2103:2722   */\n  pop\n  pop\n    /* \"#utility.yul\":1990:2722   */\n  swap4\n  swap3\n  pop\n  pop\n  pop\n  jump\t// out\n    /* \"#utility.yul\":2745:3130   */\ntag_41:\n    /* \"#utility.yul\":2827:2832   */\n  0x00\n    /* \"#utility.yul\":2876:2879   */\n  dup3\n    /* \"#utility.yul\":2869:2873   */\n  0x1f\n    /* \"#utility.yul\":2861:2867   */\n  dup4\n    /* \"#utility.yul\":2857:2874   */\n  add\n    /* \"#utility.yul\":2853:2880   */\n  slt\n    /* \"#utility.yul\":2843:2965   */\n  tag_80\n  jumpi\n    /* \"#utility.yul\":2884:2963   */\n  tag_81\n  tag_33\n  jump\t// in\ntag_81:\n    /* \"#utility.yul\":2843:2965   */\ntag_80:\n    /* \"#utility.yul\":2994:3000   */\n  dup2\n    /* \"#utility.yul\":2988:3001   */\n  mload\n    /* \"#utility.yul\":3019:3124   */\n  tag_82\n    /* \"#utility.yul\":3120:3123   */\n  dup5\n    /* \"#utility.yul\":3112:3118   */\n  dup3\n    /* \"#utility.yul\":3105:3109   */\n  0x20\n    /* \"#utility.yul\":3097:3103   */\n  dup7\n    /* \"#utility.yul\":3093:3110   */\n  add\n    /* \"#utility.yul\":3019:3124   */\n  tag_40\n  jump\t// in\ntag_82:\n    /* \"#utility.yul\":3010:3124   */\n  swap2\n  pop\n    /* \"#utility.yul\":2833:3130   */\n  pop\n    /* \"#utility.yul\":2745:3130   */\n  swap3\n  swap2\n  pop\n  pop\n  jump\t// out\n    /* \"#utility.yul\":3136:4205   */\ntag_3:\n    /* \"#utility.yul\":3274:3280   */\n  0x00\n    /* \"#utility.yul\":3282:3288   */\n  dup1\n    /* \"#utility.yul\":3290:3296   */\n  0x00\n    /* \"#utility.yul\":3339:3341   */\n  0x60\n    /* \"#utility.yul\":3327:3336   */\n  dup5\n    /* \"#utility.yul\":3318:3325   */\n  dup7\n    /* \"#utility.yul\":3314:3337   */\n  sub\n    /* \"#utility.yul\":3310:3342   */\n  slt\n    /* \"#utility.yul\":3307:3426   */\n  iszero\n  tag_84\n  jumpi\n    /* \"#utility.yul\":3345:3424   */\n  tag_85\n  tag_28\n  jump\t// in\ntag_85:\n    /* \"#utility.yul\":3307:3426   */\ntag_84:\n    /* \"#utility.yul\":3465:3466   */\n  0x00\n    /* \"#utility.yul\":3490:3554   */\n  tag_86\n    /* \"#utility.yul\":3546:3553   */\n  dup7\n    /* \"#utility.yul\":3537:3543   */\n  dup3\n    /* \"#utility.yul\":3526:3535   */\n  dup8\n    /* \"#utility.yul\":3522:3544   */\n  add\n    /* \"#utility.yul\":3490:3554   */\n  tag_32\n  jump\t// in\ntag_86:\n    /* \"#utility.yul\":3480:3554   */\n  swap4\n  pop\n    /* \"#utility.yul\":3436:3564   */\n  pop\n    /* \"#utility.yul\":3624:3626   */\n  0x20\n    /* \"#utility.yul\":3613:3622   */\n  dup5\n    /* \"#utility.yul\":3609:3627   */\n  add\n    /* \"#utility.yul\":3603:3628   */\n  mload\n    /* \"#utility.yul\":3655:3673   */\n  0xffffffffffffffff\n    /* \"#utility.yul\":3647:3653   */\n  dup2\n    /* \"#utility.yul\":3644:3674   */\n  gt\n    /* \"#utility.yul\":3641:3758   */\n  iszero\n  tag_87\n  jumpi\n    /* \"#utility.yul\":3677:3756   */\n  tag_88\n  tag_29\n  jump\t// in\ntag_88:\n    /* \"#utility.yul\":3641:3758   */\ntag_87:\n    /* \"#utility.yul\":3782:3871   */\n  tag_89\n    /* \"#utility.yul\":3863:3870   */\n  dup7\n    /* \"#utility.yul\":3854:3860   */\n  dup3\n    /* \"#utility.yul\":3843:3852   */\n  dup8\n    /* \"#utility.yul\":3839:3861   */\n  add\n    /* \"#utility.yul\":3782:3871   */\n  tag_41\n  jump\t// in\ntag_89:\n    /* \"#utility.yul\":3772:3871   */\n  swap3\n  pop\n    /* \"#utility.yul\":3574:3881   */\n  pop\n    /* \"#utility.yul\":3941:3943   */\n  0x40\n    /* \"#utility.yul\":3930:3939   */\n  dup5\n    /* \"#utility.yul\":3926:3944   */\n  add\n    /* \"#utility.yul\":3920:3945   */\n  mload\n    /* \"#utility.yul\":3972:3990   */\n  0xffffffffffffffff\n    /* \"#utility.yul\":3964:3970   */\n  dup2\n    /* \"#utility.yul\":3961:3991   */\n  gt\n    /* \"#utility.yul\":3958:4075   */\n  iszero\n  tag_90\n  jumpi\n    /* \"#utility.yul\":3994:4073   */\n  tag_91\n  tag_29\n  jump\t// in\ntag_91:\n    /* \"#utility.yul\":3958:4075   */\ntag_90:\n    /* \"#utility.yul\":4099:4188   */\n  tag_92\n    /* \"#utility.yul\":4180:4187   */\n  dup7\n    /* \"#utility.yul\":4171:4177   */\n  dup3\n    /* \"#utility.yul\":4160:4169   */\n  dup8\n    /* \"#utility.yul\":4156:4178   */\n  add\n    /* \"#utility.yul\":4099:4188   */\n  tag_41\n  jump\t// in\ntag_92:\n    /* \"#utility.yul\":4089:4188   */\n  swap2\n  pop\n    /* \"#utility.yul\":3891:4198   */\n  pop\n    /* \"#utility.yul\":3136:4205   */\n  swap3\n  pop\n  swap3\n  pop\n  swap3\n  jump\t// out\n    /* \"#utility.yul\":4211:4380   */\ntag_42:\n    /* \"#utility.yul\":4295:4306   */\n  0x00\n    /* \"#utility.yul\":4329:4335   */\n  dup3\n    /* \"#utility.yul\":4324:4327   */\n  dup3\n    /* \"#utility.yul\":4317:4336   */\n  mstore\n    /* \"#utility.yul\":4369:4373   */\n  0x20\n    /* \"#utility.yul\":4364:4367   */\n  dup3\n    /* \"#utility.yul\":4360:4374   */\n  add\n    /* \"#utility.yul\":4345:4374   */\n  swap1\n  pop\n    /* \"#utility.yul\":4211:4380   */\n  swap3\n  swap2\n  pop\n  pop\n  jump\t// out\n    /* \"#utility.yul\":4386:4633   */\ntag_43:\n    /* \"#utility.yul\":4526:4560   */\n  0x4974656d2049447320616e64207374617274696e672062696473206172726179\n    /* \"#utility.yul\":4522:4523   */\n  0x00\n    /* \"#utility.yul\":4514:4520   */\n  dup3\n    /* \"#utility.yul\":4510:4524   */\n  add\n    /* \"#utility.yul\":4503:4561   */\n  mstore\n    /* \"#utility.yul\":4595:4625   */\n  0x73206d7573742068617665207468652073616d65206c656e6774682e00000000\n    /* \"#utility.yul\":4590:4592   */\n  0x20\n    /* \"#utility.yul\":4582:4588   */\n  dup3\n    /* \"#utility.yul\":4578:4593   */\n  add\n    /* \"#utility.yul\":4571:4626   */\n  mstore\n    /* \"#utility.yul\":4386:4633   */\n  pop\n  jump\t// out\n    /* \"#utility.yul\":4639:5005   */\ntag_44:\n    /* \"#utility.yul\":4781:4784   */\n  0x00\n    /* \"#utility.yul\":4802:4869   */\n  tag_96\n    /* \"#utility.yul\":4866:4868   */\n  0x3c\n    /* \"#utility.yul\":4861:4864   */\n  dup4\n    /* \"#utility.yul\":4802:4869   */\n  tag_42\n  jump\t// in\ntag_96:\n    /* \"#utility.yul\":4795:4869   */\n  swap2\n  pop\n    /* \"#utility.yul\":4878:4971   */\n  tag_97\n    /* \"#utility.yul\":4967:4970   */\n  dup3\n    /* \"#utility.yul\":4878:4971   */\n  tag_43\n  jump\t// in\ntag_97:\n    /* \"#utility.yul\":4996:4998   */\n  0x40\n    /* \"#utility.yul\":4991:4994   */\n  dup3\n    /* \"#utility.yul\":4987:4999   */\n  add\n    /* \"#utility.yul\":4980:4999   */\n  swap1\n  pop\n    /* \"#utility.yul\":4639:5005   */\n  swap2\n  swap1\n  pop\n  jump\t// out\n    /* \"#utility.yul\":5011:5430   */\ntag_8:\n    /* \"#utility.yul\":5177:5181   */\n  0x00\n    /* \"#utility.yul\":5215:5217   */\n  0x20\n    /* \"#utility.yul\":5204:5213   */\n  dup3\n    /* \"#utility.yul\":5200:5218   */\n  add\n    /* \"#utility.yul\":5192:5218   */\n  swap1\n  pop\n    /* \"#utility.yul\":5264:5273   */\n  dup2\n    /* \"#utility.yul\":5258:5262   */\n  dup2\n    /* \"#utility.yul\":5254:5274   */\n  sub\n    /* \"#utility.yul\":5250:5251   */\n  0x00\n    /* \"#utility.yul\":5239:5248   */\n  dup4\n    /* \"#utility.yul\":5235:5252   */\n  add\n    /* \"#utility.yul\":5228:5275   */\n  mstore\n    /* \"#utility.yul\":5292:5423   */\n  tag_99\n    /* \"#utility.yul\":5418:5422   */\n  dup2\n    /* \"#utility.yul\":5292:5423   */\n  tag_44\n  jump\t// in\ntag_99:\n    /* \"#utility.yul\":5284:5423   */\n  swap1\n  pop\n    /* \"#utility.yul\":5011:5430   */\n  swap2\n  swap1\n  pop\n  jump\t// out\n    /* \"#utility.yul\":5436:5616   */\ntag_45:\n    /* \"#utility.yul\":5484:5561   */\n  0x4e487b7100000000000000000000000000000000000000000000000000000000\n    /* \"#utility.yul\":5481:5482   */\n  0x00\n    /* \"#utility.yul\":5474:5562   */\n  mstore\n    /* \"#utility.yul\":5581:5585   */\n  0x11\n    /* \"#utility.yul\":5578:5579   */\n  0x04\n    /* \"#utility.yul\":5571:5586   */\n  mstore\n    /* \"#utility.yul\":5605:5609   */\n  0x24\n    /* \"#utility.yul\":5602:5603   */\n  0x00\n    /* \"#utility.yul\":5595:5610   */\n  revert\n    /* \"#utility.yul\":5622:5813   */\ntag_10:\n    /* \"#utility.yul\":5662:5665   */\n  0x00\n    /* \"#utility.yul\":5681:5701   */\n  tag_102\n    /* \"#utility.yul\":5699:5700   */\n  dup3\n    /* \"#utility.yul\":5681:5701   */\n  tag_30\n  jump\t// in\ntag_102:\n    /* \"#utility.yul\":5676:5701   */\n  swap2\n  pop\n    /* \"#utility.yul\":5715:5735   */\n  tag_103\n    /* \"#utility.yul\":5733:5734   */\n  dup4\n    /* \"#utility.yul\":5715:5735   */\n  tag_30\n  jump\t// in\ntag_103:\n    /* \"#utility.yul\":5710:5735   */\n  swap3\n  pop\n    /* \"#utility.yul\":5758:5759   */\n  dup3\n    /* \"#utility.yul\":5755:5756   */\n  dup3\n    /* \"#utility.yul\":5751:5760   */\n  add\n    /* \"#utility.yul\":5744:5760   */\n  swap1\n  pop\n    /* \"#utility.yul\":5779:5782   */\n  dup1\n    /* \"#utility.yul\":5776:5777   */\n  dup3\n    /* \"#utility.yul\":5773:5783   */\n  gt\n    /* \"#utility.yul\":5770:5806   */\n  iszero\n  tag_104\n  jumpi\n    /* \"#utility.yul\":5786:5804   */\n  tag_105\n  tag_45\n  jump\t// in\ntag_105:\n    /* \"#utility.yul\":5770:5806   */\ntag_104:\n    /* \"#utility.yul\":5622:5813   */\n  swap3\n  swap2\n  pop\n  pop\n  jump\t// out\n    /* \"#utility.yul\":5819:5999   */\ntag_16:\n    /* \"#utility.yul\":5867:5944   */\n  0x4e487b7100000000000000000000000000000000000000000000000000000000\n    /* \"#utility.yul\":5864:5865   */\n  0x00\n    /* \"#utility.yul\":5857:5945   */\n  mstore\n    /* \"#utility.yul\":5964:5968   */\n  0x32\n    /* \"#utility.yul\":5961:5962   */\n  0x04\n    /* \"#utility.yul\":5954:5969   */\n  mstore\n    /* \"#utility.yul\":5988:5992   */\n  0x24\n    /* \"#utility.yul\":5985:5986   */\n  0x00\n    /* \"#utility.yul\":5978:5993   */\n  revert\n    /* \"#utility.yul\":6005:6238   */\ntag_25:\n    /* \"#utility.yul\":6044:6047   */\n  0x00\n    /* \"#utility.yul\":6067:6091   */\n  tag_108\n    /* \"#utility.yul\":6085:6090   */\n  dup3\n    /* \"#utility.yul\":6067:6091   */\n  tag_30\n  jump\t// in\ntag_108:\n    /* \"#utility.yul\":6058:6091   */\n  swap2\n  pop\n    /* \"#utility.yul\":6113:6179   */\n  0xffffffffffffffffffffffffffffffffffffffffffffffffffffffffffffffff\n    /* \"#utility.yul\":6106:6111   */\n  dup3\n    /* \"#utility.yul\":6103:6180   */\n  sub\n    /* \"#utility.yul\":6100:6203   */\n  tag_109\n  jumpi\n    /* \"#utility.yul\":6183:6201   */\n  tag_110\n  tag_45\n  jump\t// in\ntag_110:\n    /* \"#utility.yul\":6100:6203   */\ntag_109:\n    /* \"#utility.yul\":6230:6231   */\n  0x01\n    /* \"#utility.yul\":6223:6228   */\n  dup3\n    /* \"#utility.yul\":6219:6232   */\n  add\n    /* \"#utility.yul\":6212:6232   */\n  swap1\n  pop\n    /* \"#utility.yul\":6005:6238   */\n  swap2\n  swap1\n  pop\n  jump\t// out\n    /* \"contracts/5_MultiItemAuction.sol\":661:3524  contract MultiItemAuction {... */\ntag_26:\n  dataSize(sub_0)\n  dup1\n  dataOffset(sub_0)\n  0x00\n  codecopy\n  0x00\n  return\nstop\n\nsub_0: assembly {\n        /* \"contracts/5_MultiItemAuction.sol\":661:3524  contract MultiItemAuction {... */\n      mstore(0x40, 0x80)\n      jumpi(tag_1, lt(calldatasize, 0x04))\n      shr(0xe0, calldataload(0x00))\n      dup1\n      0x8ddac1ef\n      gt\n      tag_10\n      jumpi\n      dup1\n      0x8ddac1ef\n      eq\n      tag_6\n      jumpi\n      dup1\n      0xb3dc00fe\n      eq\n      tag_7\n      jumpi\n      dup1\n      0xb9a2de3a\n      eq\n      tag_8\n      jumpi\n      dup1\n      0xbfb231d2\n      eq\n      tag_9\n      jumpi\n      jump(tag_1)\n    tag_10:\n      dup1\n      0x2e1a7d4d\n      eq\n      tag_2\n      jumpi\n      dup1\n      0x454a2ab3\n      eq\n      tag_3\n      jumpi\n      dup1\n      0x4b449cba\n      eq\n      tag_4\n      jumpi\n      dup1\n      0x5ec2c7bf\n      eq\n      tag_5\n      jumpi\n    tag_1:\n      0x00\n      dup1\n      revert\n        /* \"contracts/5_MultiItemAuction.sol\":2573:2959  function withdraw(uint itemId) public returns (bool) {... */\n    tag_2:\n      callvalue\n      dup1\n      iszero\n      tag_11\n      jumpi\n      0x00\n      dup1\n      revert\n    tag_11:\n      pop\n      tag_12\n      0x04\n      dup1\n      calldatasize\n      sub\n      dup2\n      add\n      swap1\n      tag_13\n      swap2\n      swap1\n      tag_14\n      jump\t// in\n    tag_13:\n      tag_15\n      jump\t// in\n    tag_12:\n      mload(0x40)\n      tag_16\n      swap2\n      swap1\n      tag_17\n      jump\t// in\n    tag_16:\n      mload(0x40)\n      dup1\n      swap2\n      sub\n      swap1\n      return\n        /* \"contracts/5_MultiItemAuction.sol\":1843:2567  function bid(uint itemId) public payable {... */\n    tag_3:\n      tag_18\n      0x04\n      dup1\n      calldatasize\n      sub\n      dup2\n      add\n      swap1\n      tag_19\n      swap2\n      swap1\n      tag_14\n      jump\t// in\n    tag_19:\n      tag_20\n      jump\t// in\n    tag_18:\n      stop\n        /* \"contracts/5_MultiItemAuction.sol\":874:900  uint public auctionEndTime */\n    tag_4:\n      callvalue\n      dup1\n      iszero\n      tag_21\n      jumpi\n      0x00\n      dup1\n      revert\n    tag_21:\n      pop\n      tag_22\n      tag_23\n      jump\t// in\n    tag_22:\n      mload(0x40)\n      tag_24\n      swap2\n      swap1\n      tag_25\n      jump\t// in\n    tag_24:\n      mload(0x40)\n      dup1\n      swap2\n      sub\n      swap1\n      return\n        /* \"contracts/5_MultiItemAuction.sol\":843:868  address public auctioneer */\n    tag_5:\n      callvalue\n      dup1\n      iszero\n      tag_26\n      jumpi\n      0x00\n      dup1\n      revert\n    tag_26:\n      pop\n      tag_27\n      tag_28\n      jump\t// in\n    tag_27:\n      mload(0x40)\n      tag_29\n      swap2\n      swap1\n      tag_30\n      jump\t// in\n    tag_29:\n      mload(0x40)\n      dup1\n      swap2\n      sub\n      swap1\n      return\n        /* \"contracts/5_MultiItemAuction.sol\":946:1009  mapping(uint => mapping(address => uint)) public pendingReturns */\n    tag_6:\n      callvalue\n      dup1\n      iszero\n      tag_31\n      jumpi\n      0x00\n      dup1\n      revert\n    tag_31:\n      pop\n      tag_32\n      0x04\n      dup1\n      calldatasize\n      sub\n      dup2\n      add\n      swap1\n      tag_33\n      swap2\n      swap1\n      tag_34\n      jump\t// in\n    tag_33:\n      tag_35\n      jump\t// in\n    tag_32:\n      mload(0x40)\n      tag_36\n      swap2\n      swap1\n      tag_25\n      jump\t// in\n    tag_36:\n      mload(0x40)\n      dup1\n      swap2\n      sub\n      swap1\n      return\n        /* \"contracts/5_MultiItemAuction.sol\":1015:1036  uint[] public itemIds */\n    tag_7:\n      callvalue\n      dup1\n      iszero\n      tag_37\n      jumpi\n      0x00\n      dup1\n      revert\n    tag_37:\n      pop\n      tag_38\n      0x04\n      dup1\n      calldatasize\n      sub\n      dup2\n      add\n      swap1\n      tag_39\n      swap2\n      swap1\n      tag_14\n      jump\t// in\n    tag_39:\n      tag_40\n      jump\t// in\n    tag_38:\n      mload(0x40)\n      tag_41\n      swap2\n      swap1\n      tag_25\n      jump\t// in\n    tag_41:\n      mload(0x40)\n      dup1\n      swap2\n      sub\n      swap1\n      return\n        /* \"contracts/5_MultiItemAuction.sol\":2965:3522  function endAuction(uint itemId) public {... */\n    tag_8:\n      callvalue\n      dup1\n      iszero\n      tag_42\n      jumpi\n      0x00\n      dup1\n      revert\n    tag_42:\n      pop\n      tag_43\n      0x04\n      dup1\n      calldatasize\n      sub\n      dup2\n      add\n      swap1\n      tag_44\n      swap2\n      swap1\n      tag_14\n      jump\t// in\n    tag_44:\n      tag_45\n      jump\t// in\n    tag_43:\n      stop\n        /* \"contracts/5_MultiItemAuction.sol\":906:940  mapping(uint => Item) public items */\n    tag_9:\n      callvalue\n      dup1\n      iszero\n      tag_46\n      jumpi\n      0x00\n      dup1\n      revert\n    tag_46:\n      pop\n      tag_47\n      0x04\n      dup1\n      calldatasize\n      sub\n      dup2\n      add\n      swap1\n      tag_48\n      swap2\n      swap1\n      tag_14\n      jump\t// in\n    tag_48:\n      tag_49\n      jump\t// in\n    tag_47:\n      mload(0x40)\n      tag_50\n      swap6\n      swap5\n      swap4\n      swap3\n      swap2\n      swap1\n      tag_51\n      jump\t// in\n    tag_50:\n      mload(0x40)\n      dup1\n      swap2\n      sub\n      swap1\n      return\n        /* \"contracts/5_MultiItemAuction.sol\":2573:2959  function withdraw(uint itemId) public returns (bool) {... */\n    tag_15:\n        /* \"contracts/5_MultiItemAuction.sol\":2620:2624  bool */\n      0x00\n        /* \"contracts/5_MultiItemAuction.sol\":2636:2647  uint amount */\n      dup1\n        /* \"contracts/5_MultiItemAuction.sol\":2650:2664  pendingReturns */\n      0x03\n        /* \"contracts/5_MultiItemAuction.sol\":2650:2672  pendingReturns[itemId] */\n      0x00\n        /* \"contracts/5_MultiItemAuction.sol\":2665:2671  itemId */\n      dup5\n        /* \"contracts/5_MultiItemAuction.sol\":2650:2672  pendingReturns[itemId] */\n      dup2\n      mstore\n      0x20\n      add\n      swap1\n      dup2\n      mstore\n      0x20\n      add\n      0x00\n      keccak256\n        /* \"contracts/5_MultiItemAuction.sol\":2650:2684  pendingReturns[itemId][msg.sender] */\n      0x00\n        /* \"contracts/5_MultiItemAuction.sol\":2673:2683  msg.sender */\n      caller\n        /* \"contracts/5_MultiItemAuction.sol\":2650:2684  pendingReturns[itemId][msg.sender] */\n      0xffffffffffffffffffffffffffffffffffffffff\n      and\n      0xffffffffffffffffffffffffffffffffffffffff\n      and\n      dup2\n      mstore\n      0x20\n      add\n      swap1\n      dup2\n      mstore\n      0x20\n      add\n      0x00\n      keccak256\n      sload\n        /* \"contracts/5_MultiItemAuction.sol\":2636:2684  uint amount = pendingReturns[itemId][msg.sender] */\n      swap1\n      pop\n        /* \"contracts/5_MultiItemAuction.sol\":2707:2708  0 */\n      0x00\n        /* \"contracts/5_MultiItemAuction.sol\":2698:2704  amount */\n      dup2\n        /* \"contracts/5_MultiItemAuction.sol\":2698:2708  amount > 0 */\n      gt\n        /* \"contracts/5_MultiItemAuction.sol\":2694:2932  if (amount > 0) {... */\n      iszero\n      tag_53\n      jumpi\n        /* \"contracts/5_MultiItemAuction.sol\":2761:2762  0 */\n      0x00\n        /* \"contracts/5_MultiItemAuction.sol\":2724:2738  pendingReturns */\n      0x03\n        /* \"contracts/5_MultiItemAuction.sol\":2724:2746  pendingReturns[itemId] */\n      0x00\n        /* \"contracts/5_MultiItemAuction.sol\":2739:2745  itemId */\n      dup6\n        /* \"contracts/5_MultiItemAuction.sol\":2724:2746  pendingReturns[itemId] */\n      dup2\n      mstore\n      0x20\n      add\n      swap1\n      dup2\n      mstore\n      0x20\n      add\n      0x00\n      keccak256\n        /* \"contracts/5_MultiItemAuction.sol\":2724:2758  pendingReturns[itemId][msg.sender] */\n      0x00\n        /* \"contracts/5_MultiItemAuction.sol\":2747:2757  msg.sender */\n      caller\n        /* \"contracts/5_MultiItemAuction.sol\":2724:2758  pendingReturns[itemId][msg.sender] */\n      0xffffffffffffffffffffffffffffffffffffffff\n      and\n      0xffffffffffffffffffffffffffffffffffffffff\n      and\n      dup2\n      mstore\n      0x20\n      add\n      swap1\n      dup2\n      mstore\n      0x20\n      add\n      0x00\n      keccak256\n        /* \"contracts/5_MultiItemAuction.sol\":2724:2762  pendingReturns[itemId][msg.sender] = 0 */\n      dup2\n      swap1\n      sstore\n      pop\n        /* \"contracts/5_MultiItemAuction.sol\":2790:2800  msg.sender */\n      caller\n        /* \"contracts/5_MultiItemAuction.sol\":2782:2806  payable(msg.sender).send */\n      0xffffffffffffffffffffffffffffffffffffffff\n      and\n        /* \"contracts/5_MultiItemAuction.sol\":2782:2814  payable(msg.sender).send(amount) */\n      0x08fc\n        /* \"contracts/5_MultiItemAuction.sol\":2807:2813  amount */\n      dup3\n        /* \"contracts/5_MultiItemAuction.sol\":2782:2814  payable(msg.sender).send(amount) */\n      swap1\n      dup2\n      iszero\n      mul\n      swap1\n      mload(0x40)\n      0x00\n      mload(0x40)\n      dup1\n      dup4\n      sub\n      dup2\n      dup6\n      dup9\n      dup9\n      call\n      swap4\n      pop\n      pop\n      pop\n      pop\n        /* \"contracts/5_MultiItemAuction.sol\":2777:2922  if (!payable(msg.sender).send(amount)) {... */\n      tag_55\n      jumpi\n        /* \"contracts/5_MultiItemAuction.sol\":2871:2877  amount */\n      dup1\n        /* \"contracts/5_MultiItemAuction.sol\":2834:2848  pendingReturns */\n      0x03\n        /* \"contracts/5_MultiItemAuction.sol\":2834:2856  pendingReturns[itemId] */\n      0x00\n        /* \"contracts/5_MultiItemAuction.sol\":2849:2855  itemId */\n      dup6\n        /* \"contracts/5_MultiItemAuction.sol\":2834:2856  pendingReturns[itemId] */\n      dup2\n      mstore\n      0x20\n      add\n      swap1\n      dup2\n      mstore\n      0x20\n      add\n      0x00\n      keccak256\n        /* \"contracts/5_MultiItemAuction.sol\":2834:2868  pendingReturns[itemId][msg.sender] */\n      0x00\n        /* \"contracts/5_MultiItemAuction.sol\":2857:2867  msg.sender */\n      caller\n        /* \"contracts/5_MultiItemAuction.sol\":2834:2868  pendingReturns[itemId][msg.sender] */\n      0xffffffffffffffffffffffffffffffffffffffff\n      and\n      0xffffffffffffffffffffffffffffffffffffffff\n      and\n      dup2\n      mstore\n      0x20\n      add\n      swap1\n      dup2\n      mstore\n      0x20\n      add\n      0x00\n      keccak256\n        /* \"contracts/5_MultiItemAuction.sol\":2834:2877  pendingReturns[itemId][msg.sender] = amount */\n      dup2\n      swap1\n      sstore\n      pop\n        /* \"contracts/5_MultiItemAuction.sol\":2902:2907  false */\n      0x00\n        /* \"contracts/5_MultiItemAuction.sol\":2895:2907  return false */\n      swap2\n      pop\n      pop\n      jump(tag_52)\n        /* \"contracts/5_MultiItemAuction.sol\":2777:2922  if (!payable(msg.sender).send(amount)) {... */\n    tag_55:\n        /* \"contracts/5_MultiItemAuction.sol\":2694:2932  if (amount > 0) {... */\n    tag_53:\n        /* \"contracts/5_MultiItemAuction.sol\":2948:2952  true */\n      0x01\n        /* \"contracts/5_MultiItemAuction.sol\":2941:2952  return true */\n      swap2\n      pop\n      pop\n        /* \"contracts/5_MultiItemAuction.sol\":2573:2959  function withdraw(uint itemId) public returns (bool) {... */\n    tag_52:\n      swap2\n      swap1\n      pop\n      jump\t// out\n        /* \"contracts/5_MultiItemAuction.sol\":1843:2567  function bid(uint itemId) public payable {... */\n    tag_20:\n        /* \"contracts/5_MultiItemAuction.sol\":1902:1907  items */\n      0x02\n        /* \"contracts/5_MultiItemAuction.sol\":1902:1915  items[itemId] */\n      0x00\n        /* \"contracts/5_MultiItemAuction.sol\":1908:1914  itemId */\n      dup3\n        /* \"contracts/5_MultiItemAuction.sol\":1902:1915  items[itemId] */\n      dup2\n      mstore\n      0x20\n      add\n      swap1\n      dup2\n      mstore\n      0x20\n      add\n      0x00\n      keccak256\n        /* \"contracts/5_MultiItemAuction.sol\":1902:1922  items[itemId].active */\n      0x03\n      add\n      0x14\n      swap1\n      sload\n      swap1\n      0x0100\n      exp\n      swap1\n      div\n      0xff\n      and\n        /* \"contracts/5_MultiItemAuction.sol\":1894:1964  require(items[itemId].active, \"Item does not exist or is not active.\") */\n      tag_57\n      jumpi\n      mload(0x40)\n      0x08c379a000000000000000000000000000000000000000000000000000000000\n      dup2\n      mstore\n      0x04\n      add\n      tag_58\n      swap1\n      tag_59\n      jump\t// in\n    tag_58:\n      mload(0x40)\n      dup1\n      swap2\n      sub\n      swap1\n      revert\n    tag_57:\n        /* \"contracts/5_MultiItemAuction.sol\":2001:2015  auctionEndTime */\n      sload(0x01)\n        /* \"contracts/5_MultiItemAuction.sol\":1982:1997  block.timestamp */\n      timestamp\n        /* \"contracts/5_MultiItemAuction.sol\":1982:2015  block.timestamp <= auctionEndTime */\n      gt\n      iszero\n        /* \"contracts/5_MultiItemAuction.sol\":1974:2042  require(block.timestamp <= auctionEndTime, \"Auction already ended.\") */\n      tag_60\n      jumpi\n      mload(0x40)\n      0x08c379a000000000000000000000000000000000000000000000000000000000\n      dup2\n      mstore\n      0x04\n      add\n      tag_61\n      swap1\n      tag_62\n      jump\t// in\n    tag_61:\n      mload(0x40)\n      dup1\n      swap2\n      sub\n      swap1\n      revert\n    tag_60:\n        /* \"contracts/5_MultiItemAuction.sol\":2073:2078  items */\n      0x02\n        /* \"contracts/5_MultiItemAuction.sol\":2073:2086  items[itemId] */\n      0x00\n        /* \"contracts/5_MultiItemAuction.sol\":2079:2085  itemId */\n      dup3\n        /* \"contracts/5_MultiItemAuction.sol\":2073:2086  items[itemId] */\n      dup2\n      mstore\n      0x20\n      add\n      swap1\n      dup2\n      mstore\n      0x20\n      add\n      0x00\n      keccak256\n        /* \"contracts/5_MultiItemAuction.sol\":2073:2098  items[itemId].startingBid */\n      0x01\n      add\n      sload\n        /* \"contracts/5_MultiItemAuction.sol\":2060:2069  msg.value */\n      callvalue\n        /* \"contracts/5_MultiItemAuction.sol\":2060:2098  msg.value >= items[itemId].startingBid */\n      lt\n      iszero\n        /* \"contracts/5_MultiItemAuction.sol\":2052:2160  require(msg.value >= items[itemId].startingBid, \"Bid must be equal or higher than the item's starting bid.\") */\n      tag_63\n      jumpi\n      mload(0x40)\n      0x08c379a000000000000000000000000000000000000000000000000000000000\n      dup2\n      mstore\n      0x04\n      add\n      tag_64\n      swap1\n      tag_65\n      jump\t// in\n    tag_64:\n      mload(0x40)\n      dup1\n      swap2\n      sub\n      swap1\n      revert\n    tag_63:\n        /* \"contracts/5_MultiItemAuction.sol\":2190:2195  items */\n      0x02\n        /* \"contracts/5_MultiItemAuction.sol\":2190:2203  items[itemId] */\n      0x00\n        /* \"contracts/5_MultiItemAuction.sol\":2196:2202  itemId */\n      dup3\n        /* \"contracts/5_MultiItemAuction.sol\":2190:2203  items[itemId] */\n      dup2\n      mstore\n      0x20\n      add\n      swap1\n      dup2\n      mstore\n      0x20\n      add\n      0x00\n      keccak256\n        /* \"contracts/5_MultiItemAuction.sol\":2190:2214  items[itemId].highestBid */\n      0x02\n      add\n      sload\n        /* \"contracts/5_MultiItemAuction.sol\":2178:2187  msg.value */\n      callvalue\n        /* \"contracts/5_MultiItemAuction.sol\":2178:2214  msg.value > items[itemId].highestBid */\n      gt\n        /* \"contracts/5_MultiItemAuction.sol\":2170:2249  require(msg.value > items[itemId].highestBid, \"There already is a higher bid.\") */\n      tag_66\n      jumpi\n      mload(0x40)\n      0x08c379a000000000000000000000000000000000000000000000000000000000\n      dup2\n      mstore\n      0x04\n      add\n      tag_67\n      swap1\n      tag_68\n      jump\t// in\n    tag_67:\n      mload(0x40)\n      dup1\n      swap2\n      sub\n      swap1\n      revert\n    tag_66:\n        /* \"contracts/5_MultiItemAuction.sol\":2292:2293  0 */\n      0x00\n        /* \"contracts/5_MultiItemAuction.sol\":2264:2269  items */\n      0x02\n        /* \"contracts/5_MultiItemAuction.sol\":2264:2277  items[itemId] */\n      0x00\n        /* \"contracts/5_MultiItemAuction.sol\":2270:2276  itemId */\n      dup4\n        /* \"contracts/5_MultiItemAuction.sol\":2264:2277  items[itemId] */\n      dup2\n      mstore\n      0x20\n      add\n      swap1\n      dup2\n      mstore\n      0x20\n      add\n      0x00\n      keccak256\n        /* \"contracts/5_MultiItemAuction.sol\":2264:2288  items[itemId].highestBid */\n      0x02\n      add\n      sload\n        /* \"contracts/5_MultiItemAuction.sol\":2264:2293  items[itemId].highestBid != 0 */\n      eq\n        /* \"contracts/5_MultiItemAuction.sol\":2260:2399  if (items[itemId].highestBid != 0) {... */\n      tag_69\n      jumpi\n        /* \"contracts/5_MultiItemAuction.sol\":2364:2369  items */\n      0x02\n        /* \"contracts/5_MultiItemAuction.sol\":2364:2377  items[itemId] */\n      0x00\n        /* \"contracts/5_MultiItemAuction.sol\":2370:2376  itemId */\n      dup3\n        /* \"contracts/5_MultiItemAuction.sol\":2364:2377  items[itemId] */\n      dup2\n      mstore\n      0x20\n      add\n      swap1\n      dup2\n      mstore\n      0x20\n      add\n      0x00\n      keccak256\n        /* \"contracts/5_MultiItemAuction.sol\":2364:2388  items[itemId].highestBid */\n      0x02\n      add\n      sload\n        /* \"contracts/5_MultiItemAuction.sol\":2309:2323  pendingReturns */\n      0x03\n        /* \"contracts/5_MultiItemAuction.sol\":2309:2331  pendingReturns[itemId] */\n      0x00\n        /* \"contracts/5_MultiItemAuction.sol\":2324:2330  itemId */\n      dup4\n        /* \"contracts/5_MultiItemAuction.sol\":2309:2331  pendingReturns[itemId] */\n      dup2\n      mstore\n      0x20\n      add\n      swap1\n      dup2\n      mstore\n      0x20\n      add\n      0x00\n      keccak256\n        /* \"contracts/5_MultiItemAuction.sol\":2309:2360  pendingReturns[itemId][items[itemId].highestBidder] */\n      0x00\n        /* \"contracts/5_MultiItemAuction.sol\":2332:2337  items */\n      0x02\n        /* \"contracts/5_MultiItemAuction.sol\":2332:2345  items[itemId] */\n      0x00\n        /* \"contracts/5_MultiItemAuction.sol\":2338:2344  itemId */\n      dup6\n        /* \"contracts/5_MultiItemAuction.sol\":2332:2345  items[itemId] */\n      dup2\n      mstore\n      0x20\n      add\n      swap1\n      dup2\n      mstore\n      0x20\n      add\n      0x00\n      keccak256\n        /* \"contracts/5_MultiItemAuction.sol\":2332:2359  items[itemId].highestBidder */\n      0x03\n      add\n      0x00\n      swap1\n      sload\n      swap1\n      0x0100\n      exp\n      swap1\n      div\n      0xffffffffffffffffffffffffffffffffffffffff\n      and\n        /* \"contracts/5_MultiItemAuction.sol\":2309:2360  pendingReturns[itemId][items[itemId].highestBidder] */\n      0xffffffffffffffffffffffffffffffffffffffff\n      and\n      0xffffffffffffffffffffffffffffffffffffffff\n      and\n      dup2\n      mstore\n      0x20\n      add\n      swap1\n      dup2\n      mstore\n      0x20\n      add\n      0x00\n      keccak256\n      0x00\n        /* \"contracts/5_MultiItemAuction.sol\":2309:2388  pendingReturns[itemId][items[itemId].highestBidder] += items[itemId].highestBid */\n      dup3\n      dup3\n      sload\n      tag_70\n      swap2\n      swap1\n      tag_71\n      jump\t// in\n    tag_70:\n      swap3\n      pop\n      pop\n      dup2\n      swap1\n      sstore\n      pop\n        /* \"contracts/5_MultiItemAuction.sol\":2260:2399  if (items[itemId].highestBid != 0) {... */\n    tag_69:\n        /* \"contracts/5_MultiItemAuction.sol\":2439:2449  msg.sender */\n      caller\n        /* \"contracts/5_MultiItemAuction.sol\":2409:2414  items */\n      0x02\n        /* \"contracts/5_MultiItemAuction.sol\":2409:2422  items[itemId] */\n      0x00\n        /* \"contracts/5_MultiItemAuction.sol\":2415:2421  itemId */\n      dup4\n        /* \"contracts/5_MultiItemAuction.sol\":2409:2422  items[itemId] */\n      dup2\n      mstore\n      0x20\n      add\n      swap1\n      dup2\n      mstore\n      0x20\n      add\n      0x00\n      keccak256\n        /* \"contracts/5_MultiItemAuction.sol\":2409:2436  items[itemId].highestBidder */\n      0x03\n      add\n      0x00\n        /* \"contracts/5_MultiItemAuction.sol\":2409:2449  items[itemId].highestBidder = msg.sender */\n      0x0100\n      exp\n      dup2\n      sload\n      dup2\n      0xffffffffffffffffffffffffffffffffffffffff\n      mul\n      not\n      and\n      swap1\n      dup4\n      0xffffffffffffffffffffffffffffffffffffffff\n      and\n      mul\n      or\n      swap1\n      sstore\n      pop\n        /* \"contracts/5_MultiItemAuction.sol\":2486:2495  msg.value */\n      callvalue\n        /* \"contracts/5_MultiItemAuction.sol\":2459:2464  items */\n      0x02\n        /* \"contracts/5_MultiItemAuction.sol\":2459:2472  items[itemId] */\n      0x00\n        /* \"contracts/5_MultiItemAuction.sol\":2465:2471  itemId */\n      dup4\n        /* \"contracts/5_MultiItemAuction.sol\":2459:2472  items[itemId] */\n      dup2\n      mstore\n      0x20\n      add\n      swap1\n      dup2\n      mstore\n      0x20\n      add\n      0x00\n      keccak256\n        /* \"contracts/5_MultiItemAuction.sol\":2459:2483  items[itemId].highestBid */\n      0x02\n      add\n        /* \"contracts/5_MultiItemAuction.sol\":2459:2495  items[itemId].highestBid = msg.value */\n      dup2\n      swap1\n      sstore\n      pop\n        /* \"contracts/5_MultiItemAuction.sol\":2510:2560  HighestBidIncreased(itemId, msg.sender, msg.value) */\n      0xda0a18da71d8ebd145966339a728fc0d8ccc07c22870d561890d823c515dda6b\n        /* \"contracts/5_MultiItemAuction.sol\":2530:2536  itemId */\n      dup2\n        /* \"contracts/5_MultiItemAuction.sol\":2538:2548  msg.sender */\n      caller\n        /* \"contracts/5_MultiItemAuction.sol\":2550:2559  msg.value */\n      callvalue\n        /* \"contracts/5_MultiItemAuction.sol\":2510:2560  HighestBidIncreased(itemId, msg.sender, msg.value) */\n      mload(0x40)\n      tag_72\n      swap4\n      swap3\n      swap2\n      swap1\n      tag_73\n      jump\t// in\n    tag_72:\n      mload(0x40)\n      dup1\n      swap2\n      sub\n      swap1\n      log1\n        /* \"contracts/5_MultiItemAuction.sol\":1843:2567  function bid(uint itemId) public payable {... */\n      pop\n      jump\t// out\n        /* \"contracts/5_MultiItemAuction.sol\":874:900  uint public auctionEndTime */\n    tag_23:\n      sload(0x01)\n      dup2\n      jump\t// out\n        /* \"contracts/5_MultiItemAuction.sol\":843:868  address public auctioneer */\n    tag_28:\n      0x00\n      dup1\n      sload\n      swap1\n      0x0100\n      exp\n      swap1\n      div\n      0xffffffffffffffffffffffffffffffffffffffff\n      and\n      dup2\n      jump\t// out\n        /* \"contracts/5_MultiItemAuction.sol\":946:1009  mapping(uint => mapping(address => uint)) public pendingReturns */\n    tag_35:\n      mstore(0x20, 0x03)\n      dup2\n      0x00\n      mstore\n      mstore(0x20, keccak256(0x00, 0x40))\n      dup1\n      0x00\n      mstore\n      keccak256(0x00, 0x40)\n      0x00\n      swap2\n      pop\n      swap2\n      pop\n      pop\n      sload\n      dup2\n      jump\t// out\n        /* \"contracts/5_MultiItemAuction.sol\":1015:1036  uint[] public itemIds */\n    tag_40:\n      0x04\n      dup2\n      dup2\n      sload\n      dup2\n      lt\n      tag_74\n      jumpi\n      0x00\n      dup1\n      revert\n    tag_74:\n      swap1\n      0x00\n      mstore\n      keccak256(0x00, 0x20)\n      add\n      0x00\n      swap2\n      pop\n      swap1\n      pop\n      sload\n      dup2\n      jump\t// out\n        /* \"contracts/5_MultiItemAuction.sol\":2965:3522  function endAuction(uint itemId) public {... */\n    tag_45:\n        /* \"contracts/5_MultiItemAuction.sol\":3037:3047  auctioneer */\n      0x00\n      dup1\n      sload\n      swap1\n      0x0100\n      exp\n      swap1\n      div\n      0xffffffffffffffffffffffffffffffffffffffff\n      and\n        /* \"contracts/5_MultiItemAuction.sol\":3023:3047  msg.sender == auctioneer */\n      0xffffffffffffffffffffffffffffffffffffffff\n      and\n        /* \"contracts/5_MultiItemAuction.sol\":3023:3033  msg.sender */\n      caller\n        /* \"contracts/5_MultiItemAuction.sol\":3023:3047  msg.sender == auctioneer */\n      0xffffffffffffffffffffffffffffffffffffffff\n      and\n      eq\n        /* \"contracts/5_MultiItemAuction.sol\":3015:3092  require(msg.sender == auctioneer, \"Only the auctioneer can end the auction.\") */\n      tag_77\n      jumpi\n      mload(0x40)\n      0x08c379a000000000000000000000000000000000000000000000000000000000\n      dup2\n      mstore\n      0x04\n      add\n      tag_78\n      swap1\n      tag_79\n      jump\t// in\n    tag_78:\n      mload(0x40)\n      dup1\n      swap2\n      sub\n      swap1\n      revert\n    tag_77:\n        /* \"contracts/5_MultiItemAuction.sol\":3129:3143  auctionEndTime */\n      sload(0x01)\n        /* \"contracts/5_MultiItemAuction.sol\":3110:3125  block.timestamp */\n      timestamp\n        /* \"contracts/5_MultiItemAuction.sol\":3110:3143  block.timestamp >= auctionEndTime */\n      lt\n      iszero\n        /* \"contracts/5_MultiItemAuction.sol\":3102:3170  require(block.timestamp >= auctionEndTime, \"Auction not yet ended.\") */\n      tag_80\n      jumpi\n      mload(0x40)\n      0x08c379a000000000000000000000000000000000000000000000000000000000\n      dup2\n      mstore\n      0x04\n      add\n      tag_81\n      swap1\n      tag_82\n      jump\t// in\n    tag_81:\n      mload(0x40)\n      dup1\n      swap2\n      sub\n      swap1\n      revert\n    tag_80:\n        /* \"contracts/5_MultiItemAuction.sol\":3188:3193  items */\n      0x02\n        /* \"contracts/5_MultiItemAuction.sol\":3188:3201  items[itemId] */\n      0x00\n        /* \"contracts/5_MultiItemAuction.sol\":3194:3200  itemId */\n      dup3\n        /* \"contracts/5_MultiItemAuction.sol\":3188:3201  items[itemId] */\n      dup2\n      mstore\n      0x20\n      add\n      swap1\n      dup2\n      mstore\n      0x20\n      add\n      0x00\n      keccak256\n        /* \"contracts/5_MultiItemAuction.sol\":3188:3208  items[itemId].active */\n      0x03\n      add\n      0x14\n      swap1\n      sload\n      swap1\n      0x0100\n      exp\n      swap1\n      div\n      0xff\n      and\n        /* \"contracts/5_MultiItemAuction.sol\":3180:3250  require(items[itemId].active, \"Item does not exist or is not active.\") */\n      tag_83\n      jumpi\n      mload(0x40)\n      0x08c379a000000000000000000000000000000000000000000000000000000000\n      dup2\n      mstore\n      0x04\n      add\n      tag_84\n      swap1\n      tag_59\n      jump\t// in\n    tag_84:\n      mload(0x40)\n      dup1\n      swap2\n      sub\n      swap1\n      revert\n    tag_83:\n        /* \"contracts/5_MultiItemAuction.sol\":3284:3289  false */\n      0x00\n        /* \"contracts/5_MultiItemAuction.sol\":3261:3266  items */\n      0x02\n        /* \"contracts/5_MultiItemAuction.sol\":3261:3274  items[itemId] */\n      0x00\n        /* \"contracts/5_MultiItemAuction.sol\":3267:3273  itemId */\n      dup4\n        /* \"contracts/5_MultiItemAuction.sol\":3261:3274  items[itemId] */\n      dup2\n      mstore\n      0x20\n      add\n      swap1\n      dup2\n      mstore\n      0x20\n      add\n      0x00\n      keccak256\n        /* \"contracts/5_MultiItemAuction.sol\":3261:3281  items[itemId].active */\n      0x03\n      add\n      0x14\n        /* \"contracts/5_MultiItemAuction.sol\":3261:3289  items[itemId].active = false */\n      0x0100\n      exp\n      dup2\n      sload\n      dup2\n      0xff\n      mul\n      not\n      and\n      swap1\n      dup4\n      iszero\n      iszero\n      mul\n      or\n      swap1\n      sstore\n      pop\n        /* \"contracts/5_MultiItemAuction.sol\":3304:3379  AuctionEnded(itemId, items[itemId].highestBidder, items[itemId].highestBid) */\n      0xd2aa34a4fdbbc6dff6a3e56f46e0f3ae2a31d7785ff3487aa5c95c642acea501\n        /* \"contracts/5_MultiItemAuction.sol\":3317:3323  itemId */\n      dup2\n        /* \"contracts/5_MultiItemAuction.sol\":3325:3330  items */\n      0x02\n        /* \"contracts/5_MultiItemAuction.sol\":3325:3338  items[itemId] */\n      0x00\n        /* \"contracts/5_MultiItemAuction.sol\":3331:3337  itemId */\n      dup5\n        /* \"contracts/5_MultiItemAuction.sol\":3325:3338  items[itemId] */\n      dup2\n      mstore\n      0x20\n      add\n      swap1\n      dup2\n      mstore\n      0x20\n      add\n      0x00\n      keccak256\n        /* \"contracts/5_MultiItemAuction.sol\":3325:3352  items[itemId].highestBidder */\n      0x03\n      add\n      0x00\n      swap1\n      sload\n      swap1\n      0x0100\n      exp\n      swap1\n      div\n      0xffffffffffffffffffffffffffffffffffffffff\n      and\n        /* \"contracts/5_MultiItemAuction.sol\":3354:3359  items */\n      0x02\n        /* \"contracts/5_MultiItemAuction.sol\":3354:3367  items[itemId] */\n      0x00\n        /* \"contracts/5_MultiItemAuction.sol\":3360:3366  itemId */\n      dup6\n        /* \"contracts/5_MultiItemAuction.sol\":3354:3367  items[itemId] */\n      dup2\n      mstore\n      0x20\n      add\n      swap1\n      dup2\n      mstore\n      0x20\n      add\n      0x00\n      keccak256\n        /* \"contracts/5_MultiItemAuction.sol\":3354:3378  items[itemId].highestBid */\n      0x02\n      add\n      sload\n        /* \"contracts/5_MultiItemAuction.sol\":3304:3379  AuctionEnded(itemId, items[itemId].highestBidder, items[itemId].highestBid) */\n      mload(0x40)\n      tag_85\n      swap4\n      swap3\n      swap2\n      swap1\n      tag_73\n      jump\t// in\n    tag_85:\n      mload(0x40)\n      dup1\n      swap2\n      sub\n      swap1\n      log1\n        /* \"contracts/5_MultiItemAuction.sol\":3433:3434  0 */\n      0x00\n        /* \"contracts/5_MultiItemAuction.sol\":3394:3435  items[itemId].highestBidder != address(0) */\n      0xffffffffffffffffffffffffffffffffffffffff\n      and\n        /* \"contracts/5_MultiItemAuction.sol\":3394:3399  items */\n      0x02\n        /* \"contracts/5_MultiItemAuction.sol\":3394:3407  items[itemId] */\n      0x00\n        /* \"contracts/5_MultiItemAuction.sol\":3400:3406  itemId */\n      dup4\n        /* \"contracts/5_MultiItemAuction.sol\":3394:3407  items[itemId] */\n      dup2\n      mstore\n      0x20\n      add\n      swap1\n      dup2\n      mstore\n      0x20\n      add\n      0x00\n      keccak256\n        /* \"contracts/5_MultiItemAuction.sol\":3394:3421  items[itemId].highestBidder */\n      0x03\n      add\n      0x00\n      swap1\n      sload\n      swap1\n      0x0100\n      exp\n      swap1\n      div\n      0xffffffffffffffffffffffffffffffffffffffff\n      and\n        /* \"contracts/5_MultiItemAuction.sol\":3394:3435  items[itemId].highestBidder != address(0) */\n      0xffffffffffffffffffffffffffffffffffffffff\n      and\n      eq\n        /* \"contracts/5_MultiItemAuction.sol\":3390:3516  if (items[itemId].highestBidder != address(0)) {... */\n      tag_86\n      jumpi\n        /* \"contracts/5_MultiItemAuction.sol\":3459:3469  auctioneer */\n      0x00\n      dup1\n      sload\n      swap1\n      0x0100\n      exp\n      swap1\n      div\n      0xffffffffffffffffffffffffffffffffffffffff\n      and\n        /* \"contracts/5_MultiItemAuction.sol\":3451:3479  payable(auctioneer).transfer */\n      0xffffffffffffffffffffffffffffffffffffffff\n      and\n        /* \"contracts/5_MultiItemAuction.sol\":3451:3505  payable(auctioneer).transfer(items[itemId].highestBid) */\n      0x08fc\n        /* \"contracts/5_MultiItemAuction.sol\":3480:3485  items */\n      0x02\n        /* \"contracts/5_MultiItemAuction.sol\":3480:3493  items[itemId] */\n      0x00\n        /* \"contracts/5_MultiItemAuction.sol\":3486:3492  itemId */\n      dup5\n        /* \"contracts/5_MultiItemAuction.sol\":3480:3493  items[itemId] */\n      dup2\n      mstore\n      0x20\n      add\n      swap1\n      dup2\n      mstore\n      0x20\n      add\n      0x00\n      keccak256\n        /* \"contracts/5_MultiItemAuction.sol\":3480:3504  items[itemId].highestBid */\n      0x02\n      add\n      sload\n        /* \"contracts/5_MultiItemAuction.sol\":3451:3505  payable(auctioneer).transfer(items[itemId].highestBid) */\n      swap1\n      dup2\n      iszero\n      mul\n      swap1\n      mload(0x40)\n      0x00\n      mload(0x40)\n      dup1\n      dup4\n      sub\n      dup2\n      dup6\n      dup9\n      dup9\n      call\n      swap4\n      pop\n      pop\n      pop\n      pop\n      iszero\n      dup1\n      iszero\n      tag_88\n      jumpi\n      returndatasize\n      0x00\n      dup1\n      returndatacopy\n      revert(0x00, returndatasize)\n    tag_88:\n      pop\n        /* \"contracts/5_MultiItemAuction.sol\":3390:3516  if (items[itemId].highestBidder != address(0)) {... */\n    tag_86:\n        /* \"contracts/5_MultiItemAuction.sol\":2965:3522  function endAuction(uint itemId) public {... */\n      pop\n      jump\t// out\n        /* \"contracts/5_MultiItemAuction.sol\":906:940  mapping(uint => Item) public items */\n    tag_49:\n      mstore(0x20, 0x02)\n      dup1\n      0x00\n      mstore\n      keccak256(0x00, 0x40)\n      0x00\n      swap2\n      pop\n      swap1\n      pop\n      dup1\n      0x00\n      add\n      sload\n      swap1\n      dup1\n      0x01\n      add\n      sload\n      swap1\n      dup1\n      0x02\n      add\n      sload\n      swap1\n      dup1\n      0x03\n      add\n      0x00\n      swap1\n      sload\n      swap1\n      0x0100\n      exp\n      swap1\n      div\n      0xffffffffffffffffffffffffffffffffffffffff\n      and\n      swap1\n      dup1\n      0x03\n      add\n      0x14\n      swap1\n      sload\n      swap1\n      0x0100\n      exp\n      swap1\n      div\n      0xff\n      and\n      swap1\n      pop\n      dup6\n      jump\t// out\n        /* \"#utility.yul\":88:205   */\n    tag_90:\n        /* \"#utility.yul\":197:198   */\n      0x00\n        /* \"#utility.yul\":194:195   */\n      dup1\n        /* \"#utility.yul\":187:199   */\n      revert\n        /* \"#utility.yul\":334:411   */\n    tag_92:\n        /* \"#utility.yul\":371:378   */\n      0x00\n        /* \"#utility.yul\":400:405   */\n      dup2\n        /* \"#utility.yul\":389:405   */\n      swap1\n      pop\n        /* \"#utility.yul\":334:411   */\n      swap2\n      swap1\n      pop\n      jump\t// out\n        /* \"#utility.yul\":417:539   */\n    tag_93:\n        /* \"#utility.yul\":490:514   */\n      tag_123\n        /* \"#utility.yul\":508:513   */\n      dup2\n        /* \"#utility.yul\":490:514   */\n      tag_92\n      jump\t// in\n    tag_123:\n        /* \"#utility.yul\":483:488   */\n      dup2\n        /* \"#utility.yul\":480:515   */\n      eq\n        /* \"#utility.yul\":470:533   */\n      tag_124\n      jumpi\n        /* \"#utility.yul\":529:530   */\n      0x00\n        /* \"#utility.yul\":526:527   */\n      dup1\n        /* \"#utility.yul\":519:531   */\n      revert\n        /* \"#utility.yul\":470:533   */\n    tag_124:\n        /* \"#utility.yul\":417:539   */\n      pop\n      jump\t// out\n        /* \"#utility.yul\":545:684   */\n    tag_94:\n        /* \"#utility.yul\":591:596   */\n      0x00\n        /* \"#utility.yul\":629:635   */\n      dup2\n        /* \"#utility.yul\":616:636   */\n      calldataload\n        /* \"#utility.yul\":607:636   */\n      swap1\n      pop\n        /* \"#utility.yul\":645:678   */\n      tag_126\n        /* \"#utility.yul\":672:677   */\n      dup2\n        /* \"#utility.yul\":645:678   */\n      tag_93\n      jump\t// in\n    tag_126:\n        /* \"#utility.yul\":545:684   */\n      swap3\n      swap2\n      pop\n      pop\n      jump\t// out\n        /* \"#utility.yul\":690:1019   */\n    tag_14:\n        /* \"#utility.yul\":749:755   */\n      0x00\n        /* \"#utility.yul\":798:800   */\n      0x20\n        /* \"#utility.yul\":786:795   */\n      dup3\n        /* \"#utility.yul\":777:784   */\n      dup5\n        /* \"#utility.yul\":773:796   */\n      sub\n        /* \"#utility.yul\":769:801   */\n      slt\n        /* \"#utility.yul\":766:885   */\n      iszero\n      tag_128\n      jumpi\n        /* \"#utility.yul\":804:883   */\n      tag_129\n      tag_90\n      jump\t// in\n    tag_129:\n        /* \"#utility.yul\":766:885   */\n    tag_128:\n        /* \"#utility.yul\":924:925   */\n      0x00\n        /* \"#utility.yul\":949:1002   */\n      tag_130\n        /* \"#utility.yul\":994:1001   */\n      dup5\n        /* \"#utility.yul\":985:991   */\n      dup3\n        /* \"#utility.yul\":974:983   */\n      dup6\n        /* \"#utility.yul\":970:992   */\n      add\n        /* \"#utility.yul\":949:1002   */\n      tag_94\n      jump\t// in\n    tag_130:\n        /* \"#utility.yul\":939:1002   */\n      swap2\n      pop\n        /* \"#utility.yul\":895:1012   */\n      pop\n        /* \"#utility.yul\":690:1019   */\n      swap3\n      swap2\n      pop\n      pop\n      jump\t// out\n        /* \"#utility.yul\":1025:1115   */\n    tag_95:\n        /* \"#utility.yul\":1059:1066   */\n      0x00\n        /* \"#utility.yul\":1102:1107   */\n      dup2\n        /* \"#utility.yul\":1095:1108   */\n      iszero\n        /* \"#utility.yul\":1088:1109   */\n      iszero\n        /* \"#utility.yul\":1077:1109   */\n      swap1\n      pop\n        /* \"#utility.yul\":1025:1115   */\n      swap2\n      swap1\n      pop\n      jump\t// out\n        /* \"#utility.yul\":1121:1230   */\n    tag_96:\n        /* \"#utility.yul\":1202:1223   */\n      tag_133\n        /* \"#utility.yul\":1217:1222   */\n      dup2\n        /* \"#utility.yul\":1202:1223   */\n      tag_95\n      jump\t// in\n    tag_133:\n        /* \"#utility.yul\":1197:1200   */\n      dup3\n        /* \"#utility.yul\":1190:1224   */\n      mstore\n        /* \"#utility.yul\":1121:1230   */\n      pop\n      pop\n      jump\t// out\n        /* \"#utility.yul\":1236:1446   */\n    tag_17:\n        /* \"#utility.yul\":1323:1327   */\n      0x00\n        /* \"#utility.yul\":1361:1363   */\n      0x20\n        /* \"#utility.yul\":1350:1359   */\n      dup3\n        /* \"#utility.yul\":1346:1364   */\n      add\n        /* \"#utility.yul\":1338:1364   */\n      swap1\n      pop\n        /* \"#utility.yul\":1374:1439   */\n      tag_135\n        /* \"#utility.yul\":1436:1437   */\n      0x00\n        /* \"#utility.yul\":1425:1434   */\n      dup4\n        /* \"#utility.yul\":1421:1438   */\n      add\n        /* \"#utility.yul\":1412:1418   */\n      dup5\n        /* \"#utility.yul\":1374:1439   */\n      tag_96\n      jump\t// in\n    tag_135:\n        /* \"#utility.yul\":1236:1446   */\n      swap3\n      swap2\n      pop\n      pop\n      jump\t// out\n        /* \"#utility.yul\":1452:1570   */\n    tag_97:\n        /* \"#utility.yul\":1539:1563   */\n      tag_137\n        /* \"#utility.yul\":1557:1562   */\n      dup2\n        /* \"#utility.yul\":1539:1563   */\n      tag_92\n      jump\t// in\n    tag_137:\n        /* \"#utility.yul\":1534:1537   */\n      dup3\n        /* \"#utility.yul\":1527:1564   */\n      mstore\n        /* \"#utility.yul\":1452:1570   */\n      pop\n      pop\n      jump\t// out\n        /* \"#utility.yul\":1576:1798   */\n    tag_25:\n        /* \"#utility.yul\":1669:1673   */\n      0x00\n        /* \"#utility.yul\":1707:1709   */\n      0x20\n        /* \"#utility.yul\":1696:1705   */\n      dup3\n        /* \"#utility.yul\":1692:1710   */\n      add\n        /* \"#utility.yul\":1684:1710   */\n      swap1\n      pop\n        /* \"#utility.yul\":1720:1791   */\n      tag_139\n        /* \"#utility.yul\":1788:1789   */\n      0x00\n        /* \"#utility.yul\":1777:1786   */\n      dup4\n        /* \"#utility.yul\":1773:1790   */\n      add\n        /* \"#utility.yul\":1764:1770   */\n      dup5\n        /* \"#utility.yul\":1720:1791   */\n      tag_97\n      jump\t// in\n    tag_139:\n        /* \"#utility.yul\":1576:1798   */\n      swap3\n      swap2\n      pop\n      pop\n      jump\t// out\n        /* \"#utility.yul\":1804:1930   */\n    tag_98:\n        /* \"#utility.yul\":1841:1848   */\n      0x00\n        /* \"#utility.yul\":1881:1923   */\n      0xffffffffffffffffffffffffffffffffffffffff\n        /* \"#utility.yul\":1874:1879   */\n      dup3\n        /* \"#utility.yul\":1870:1924   */\n      and\n        /* \"#utility.yul\":1859:1924   */\n      swap1\n      pop\n        /* \"#utility.yul\":1804:1930   */\n      swap2\n      swap1\n      pop\n      jump\t// out\n        /* \"#utility.yul\":1936:2032   */\n    tag_99:\n        /* \"#utility.yul\":1973:1980   */\n      0x00\n        /* \"#utility.yul\":2002:2026   */\n      tag_142\n        /* \"#utility.yul\":2020:2025   */\n      dup3\n        /* \"#utility.yul\":2002:2026   */\n      tag_98\n      jump\t// in\n    tag_142:\n        /* \"#utility.yul\":1991:2026   */\n      swap1\n      pop\n        /* \"#utility.yul\":1936:2032   */\n      swap2\n      swap1\n      pop\n      jump\t// out\n        /* \"#utility.yul\":2038:2156   */\n    tag_100:\n        /* \"#utility.yul\":2125:2149   */\n      tag_144\n        /* \"#utility.yul\":2143:2148   */\n      dup2\n        /* \"#utility.yul\":2125:2149   */\n      tag_99\n      jump\t// in\n    tag_144:\n        /* \"#utility.yul\":2120:2123   */\n      dup3\n        /* \"#utility.yul\":2113:2150   */\n      mstore\n        /* \"#utility.yul\":2038:2156   */\n      pop\n      pop\n      jump\t// out\n        /* \"#utility.yul\":2162:2384   */\n    tag_30:\n        /* \"#utility.yul\":2255:2259   */\n      0x00\n        /* \"#utility.yul\":2293:2295   */\n      0x20\n        /* \"#utility.yul\":2282:2291   */\n      dup3\n        /* \"#utility.yul\":2278:2296   */\n      add\n        /* \"#utility.yul\":2270:2296   */\n      swap1\n      pop\n        /* \"#utility.yul\":2306:2377   */\n      tag_146\n        /* \"#utility.yul\":2374:2375   */\n      0x00\n        /* \"#utility.yul\":2363:2372   */\n      dup4\n        /* \"#utility.yul\":2359:2376   */\n      add\n        /* \"#utility.yul\":2350:2356   */\n      dup5\n        /* \"#utility.yul\":2306:2377   */\n      tag_100\n      jump\t// in\n    tag_146:\n        /* \"#utility.yul\":2162:2384   */\n      swap3\n      swap2\n      pop\n      pop\n      jump\t// out\n        /* \"#utility.yul\":2390:2512   */\n    tag_101:\n        /* \"#utility.yul\":2463:2487   */\n      tag_148\n        /* \"#utility.yul\":2481:2486   */\n      dup2\n        /* \"#utility.yul\":2463:2487   */\n      tag_99\n      jump\t// in\n    tag_148:\n        /* \"#utility.yul\":2456:2461   */\n      dup2\n        /* \"#utility.yul\":2453:2488   */\n      eq\n        /* \"#utility.yul\":2443:2506   */\n      tag_149\n      jumpi\n        /* \"#utility.yul\":2502:2503   */\n      0x00\n        /* \"#utility.yul\":2499:2500   */\n      dup1\n        /* \"#utility.yul\":2492:2504   */\n      revert\n        /* \"#utility.yul\":2443:2506   */\n    tag_149:\n        /* \"#utility.yul\":2390:2512   */\n      pop\n      jump\t// out\n        /* \"#utility.yul\":2518:2657   */\n    tag_102:\n        /* \"#utility.yul\":2564:2569   */\n      0x00\n        /* \"#utility.yul\":2602:2608   */\n      dup2\n        /* \"#utility.yul\":2589:2609   */\n      calldataload\n        /* \"#utility.yul\":2580:2609   */\n      swap1\n      pop\n        /* \"#utility.yul\":2618:2651   */\n      tag_151\n        /* \"#utility.yul\":2645:2650   */\n      dup2\n        /* \"#utility.yul\":2618:2651   */\n      tag_101\n      jump\t// in\n    tag_151:\n        /* \"#utility.yul\":2518:2657   */\n      swap3\n      swap2\n      pop\n      pop\n      jump\t// out\n        /* \"#utility.yul\":2663:3137   */\n    tag_34:\n        /* \"#utility.yul\":2731:2737   */\n      0x00\n        /* \"#utility.yul\":2739:2745   */\n      dup1\n        /* \"#utility.yul\":2788:2790   */\n      0x40\n        /* \"#utility.yul\":2776:2785   */\n      dup4\n        /* \"#utility.yul\":2767:2774   */\n      dup6\n        /* \"#utility.yul\":2763:2786   */\n      sub\n        /* \"#utility.yul\":2759:2791   */\n      slt\n        /* \"#utility.yul\":2756:2875   */\n      iszero\n      tag_153\n      jumpi\n        /* \"#utility.yul\":2794:2873   */\n      tag_154\n      tag_90\n      jump\t// in\n    tag_154:\n        /* \"#utility.yul\":2756:2875   */\n    tag_153:\n        /* \"#utility.yul\":2914:2915   */\n      0x00\n        /* \"#utility.yul\":2939:2992   */\n      tag_155\n        /* \"#utility.yul\":2984:2991   */\n      dup6\n        /* \"#utility.yul\":2975:2981   */\n      dup3\n        /* \"#utility.yul\":2964:2973   */\n      dup7\n        /* \"#utility.yul\":2960:2982   */\n      add\n        /* \"#utility.yul\":2939:2992   */\n      tag_94\n      jump\t// in\n    tag_155:\n        /* \"#utility.yul\":2929:2992   */\n      swap3\n      pop\n        /* \"#utility.yul\":2885:3002   */\n      pop\n        /* \"#utility.yul\":3041:3043   */\n      0x20\n        /* \"#utility.yul\":3067:3120   */\n      tag_156\n        /* \"#utility.yul\":3112:3119   */\n      dup6\n        /* \"#utility.yul\":3103:3109   */\n      dup3\n        /* \"#utility.yul\":3092:3101   */\n      dup7\n        /* \"#utility.yul\":3088:3110   */\n      add\n        /* \"#utility.yul\":3067:3120   */\n      tag_102\n      jump\t// in\n    tag_156:\n        /* \"#utility.yul\":3057:3120   */\n      swap2\n      pop\n        /* \"#utility.yul\":3012:3130   */\n      pop\n        /* \"#utility.yul\":2663:3137   */\n      swap3\n      pop\n      swap3\n      swap1\n      pop\n      jump\t// out\n        /* \"#utility.yul\":3143:3795   */\n    tag_51:\n        /* \"#utility.yul\":3342:3346   */\n      0x00\n        /* \"#utility.yul\":3380:3383   */\n      0xa0\n        /* \"#utility.yul\":3369:3378   */\n      dup3\n        /* \"#utility.yul\":3365:3384   */\n      add\n        /* \"#utility.yul\":3357:3384   */\n      swap1\n      pop\n        /* \"#utility.yul\":3394:3465   */\n      tag_158\n        /* \"#utility.yul\":3462:3463   */\n      0x00\n        /* \"#utility.yul\":3451:3460   */\n      dup4\n        /* \"#utility.yul\":3447:3464   */\n      add\n        /* \"#utility.yul\":3438:3444   */\n      dup9\n        /* \"#utility.yul\":3394:3465   */\n      tag_97\n      jump\t// in\n    tag_158:\n        /* \"#utility.yul\":3475:3547   */\n      tag_159\n        /* \"#utility.yul\":3543:3545   */\n      0x20\n        /* \"#utility.yul\":3532:3541   */\n      dup4\n        /* \"#utility.yul\":3528:3546   */\n      add\n        /* \"#utility.yul\":3519:3525   */\n      dup8\n        /* \"#utility.yul\":3475:3547   */\n      tag_97\n      jump\t// in\n    tag_159:\n        /* \"#utility.yul\":3557:3629   */\n      tag_160\n        /* \"#utility.yul\":3625:3627   */\n      0x40\n        /* \"#utility.yul\":3614:3623   */\n      dup4\n        /* \"#utility.yul\":3610:3628   */\n      add\n        /* \"#utility.yul\":3601:3607   */\n      dup7\n        /* \"#utility.yul\":3557:3629   */\n      tag_97\n      jump\t// in\n    tag_160:\n        /* \"#utility.yul\":3639:3711   */\n      tag_161\n        /* \"#utility.yul\":3707:3709   */\n      0x60\n        /* \"#utility.yul\":3696:3705   */\n      dup4\n        /* \"#utility.yul\":3692:3710   */\n      add\n        /* \"#utility.yul\":3683:3689   */\n      dup6\n        /* \"#utility.yul\":3639:3711   */\n      tag_100\n      jump\t// in\n    tag_161:\n        /* \"#utility.yul\":3721:3788   */\n      tag_162\n        /* \"#utility.yul\":3783:3786   */\n      0x80\n        /* \"#utility.yul\":3772:3781   */\n      dup4\n        /* \"#utility.yul\":3768:3787   */\n      add\n        /* \"#utility.yul\":3759:3765   */\n      dup5\n        /* \"#utility.yul\":3721:3788   */\n      tag_96\n      jump\t// in\n    tag_162:\n        /* \"#utility.yul\":3143:3795   */\n      swap7\n      swap6\n      pop\n      pop\n      pop\n      pop\n      pop\n      pop\n      jump\t// out\n        /* \"#utility.yul\":3801:3970   */\n    tag_103:\n        /* \"#utility.yul\":3885:3896   */\n      0x00\n        /* \"#utility.yul\":3919:3925   */\n      dup3\n        /* \"#utility.yul\":3914:3917   */\n      dup3\n        /* \"#utility.yul\":3907:3926   */\n      mstore\n        /* \"#utility.yul\":3959:3963   */\n      0x20\n        /* \"#utility.yul\":3954:3957   */\n      dup3\n        /* \"#utility.yul\":3950:3964   */\n      add\n        /* \"#utility.yul\":3935:3964   */\n      swap1\n      pop\n        /* \"#utility.yul\":3801:3970   */\n      swap3\n      swap2\n      pop\n      pop\n      jump\t// out\n        /* \"#utility.yul\":3976:4200   */\n    tag_104:\n        /* \"#utility.yul\":4116:4150   */\n      0x4974656d20646f6573206e6f74206578697374206f72206973206e6f74206163\n        /* \"#utility.yul\":4112:4113   */\n      0x00\n        /* \"#utility.yul\":4104:4110   */\n      dup3\n        /* \"#utility.yul\":4100:4114   */\n      add\n        /* \"#utility.yul\":4093:4151   */\n      mstore\n        /* \"#utility.yul\":4185:4192   */\n      0x746976652e000000000000000000000000000000000000000000000000000000\n        /* \"#utility.yul\":4180:4182   */\n      0x20\n        /* \"#utility.yul\":4172:4178   */\n      dup3\n        /* \"#utility.yul\":4168:4183   */\n      add\n        /* \"#utility.yul\":4161:4193   */\n      mstore\n        /* \"#utility.yul\":3976:4200   */\n      pop\n      jump\t// out\n        /* \"#utility.yul\":4206:4572   */\n    tag_105:\n        /* \"#utility.yul\":4348:4351   */\n      0x00\n        /* \"#utility.yul\":4369:4436   */\n      tag_166\n        /* \"#utility.yul\":4433:4435   */\n      0x25\n        /* \"#utility.yul\":4428:4431   */\n      dup4\n        /* \"#utility.yul\":4369:4436   */\n      tag_103\n      jump\t// in\n    tag_166:\n        /* \"#utility.yul\":4362:4436   */\n      swap2\n      pop\n        /* \"#utility.yul\":4445:4538   */\n      tag_167\n        /* \"#utility.yul\":4534:4537   */\n      dup3\n        /* \"#utility.yul\":4445:4538   */\n      tag_104\n      jump\t// in\n    tag_167:\n        /* \"#utility.yul\":4563:4565   */\n      0x40\n        /* \"#utility.yul\":4558:4561   */\n      dup3\n        /* \"#utility.yul\":4554:4566   */\n      add\n        /* \"#utility.yul\":4547:4566   */\n      swap1\n      pop\n        /* \"#utility.yul\":4206:4572   */\n      swap2\n      swap1\n      pop\n      jump\t// out\n        /* \"#utility.yul\":4578:4997   */\n    tag_59:\n        /* \"#utility.yul\":4744:4748   */\n      0x00\n        /* \"#utility.yul\":4782:4784   */\n      0x20\n        /* \"#utility.yul\":4771:4780   */\n      dup3\n        /* \"#utility.yul\":4767:4785   */\n      add\n        /* \"#utility.yul\":4759:4785   */\n      swap1\n      pop\n        /* \"#utility.yul\":4831:4840   */\n      dup2\n        /* \"#utility.yul\":4825:4829   */\n      dup2\n        /* \"#utility.yul\":4821:4841   */\n      sub\n        /* \"#utility.yul\":4817:4818   */\n      0x00\n        /* \"#utility.yul\":4806:4815   */\n      dup4\n        /* \"#utility.yul\":4802:4819   */\n      add\n        /* \"#utility.yul\":4795:4842   */\n      mstore\n        /* \"#utility.yul\":4859:4990   */\n      tag_169\n        /* \"#utility.yul\":4985:4989   */\n      dup2\n        /* \"#utility.yul\":4859:4990   */\n      tag_105\n      jump\t// in\n    tag_169:\n        /* \"#utility.yul\":4851:4990   */\n      swap1\n      pop\n        /* \"#utility.yul\":4578:4997   */\n      swap2\n      swap1\n      pop\n      jump\t// out\n        /* \"#utility.yul\":5003:5175   */\n    tag_106:\n        /* \"#utility.yul\":5143:5167   */\n      0x41756374696f6e20616c726561647920656e6465642e00000000000000000000\n        /* \"#utility.yul\":5139:5140   */\n      0x00\n        /* \"#utility.yul\":5131:5137   */\n      dup3\n        /* \"#utility.yul\":5127:5141   */\n      add\n        /* \"#utility.yul\":5120:5168   */\n      mstore\n        /* \"#utility.yul\":5003:5175   */\n      pop\n      jump\t// out\n        /* \"#utility.yul\":5181:5547   */\n    tag_107:\n        /* \"#utility.yul\":5323:5326   */\n      0x00\n        /* \"#utility.yul\":5344:5411   */\n      tag_172\n        /* \"#utility.yul\":5408:5410   */\n      0x16\n        /* \"#utility.yul\":5403:5406   */\n      dup4\n        /* \"#utility.yul\":5344:5411   */\n      tag_103\n      jump\t// in\n    tag_172:\n        /* \"#utility.yul\":5337:5411   */\n      swap2\n      pop\n        /* \"#utility.yul\":5420:5513   */\n      tag_173\n        /* \"#utility.yul\":5509:5512   */\n      dup3\n        /* \"#utility.yul\":5420:5513   */\n      tag_106\n      jump\t// in\n    tag_173:\n        /* \"#utility.yul\":5538:5540   */\n      0x20\n        /* \"#utility.yul\":5533:5536   */\n      dup3\n        /* \"#utility.yul\":5529:5541   */\n      add\n        /* \"#utility.yul\":5522:5541   */\n      swap1\n      pop\n        /* \"#utility.yul\":5181:5547   */\n      swap2\n      swap1\n      pop\n      jump\t// out\n        /* \"#utility.yul\":5553:5972   */\n    tag_62:\n        /* \"#utility.yul\":5719:5723   */\n      0x00\n        /* \"#utility.yul\":5757:5759   */\n      0x20\n        /* \"#utility.yul\":5746:5755   */\n      dup3\n        /* \"#utility.yul\":5742:5760   */\n      add\n        /* \"#utility.yul\":5734:5760   */\n      swap1\n      pop\n        /* \"#utility.yul\":5806:5815   */\n      dup2\n        /* \"#utility.yul\":5800:5804   */\n      dup2\n        /* \"#utility.yul\":5796:5816   */\n      sub\n        /* \"#utility.yul\":5792:5793   */\n      0x00\n        /* \"#utility.yul\":5781:5790   */\n      dup4\n        /* \"#utility.yul\":5777:5794   */\n      add\n        /* \"#utility.yul\":5770:5817   */\n      mstore\n        /* \"#utility.yul\":5834:5965   */\n      tag_175\n        /* \"#utility.yul\":5960:5964   */\n      dup2\n        /* \"#utility.yul\":5834:5965   */\n      tag_107\n      jump\t// in\n    tag_175:\n        /* \"#utility.yul\":5826:5965   */\n      swap1\n      pop\n        /* \"#utility.yul\":5553:5972   */\n      swap2\n      swap1\n      pop\n      jump\t// out\n        /* \"#utility.yul\":5978:6222   */\n    tag_108:\n        /* \"#utility.yul\":6118:6152   */\n      0x426964206d75737420626520657175616c206f7220686967686572207468616e\n        /* \"#utility.yul\":6114:6115   */\n      0x00\n        /* \"#utility.yul\":6106:6112   */\n      dup3\n        /* \"#utility.yul\":6102:6116   */\n      add\n        /* \"#utility.yul\":6095:6153   */\n      mstore\n        /* \"#utility.yul\":6187:6214   */\n      0x20746865206974656d2773207374617274696e67206269642e00000000000000\n        /* \"#utility.yul\":6182:6184   */\n      0x20\n        /* \"#utility.yul\":6174:6180   */\n      dup3\n        /* \"#utility.yul\":6170:6185   */\n      add\n        /* \"#utility.yul\":6163:6215   */\n      mstore\n        /* \"#utility.yul\":5978:6222   */\n      pop\n      jump\t// out\n        /* \"#utility.yul\":6228:6594   */\n    tag_109:\n        /* \"#utility.yul\":6370:6373   */\n      0x00\n        /* \"#utility.yul\":6391:6458   */\n      tag_178\n        /* \"#utility.yul\":6455:6457   */\n      0x39\n        /* \"#utility.yul\":6450:6453   */\n      dup4\n        /* \"#utility.yul\":6391:6458   */\n      tag_103\n      jump\t// in\n    tag_178:\n        /* \"#utility.yul\":6384:6458   */\n      swap2\n      pop\n        /* \"#utility.yul\":6467:6560   */\n      tag_179\n        /* \"#utility.yul\":6556:6559   */\n      dup3\n        /* \"#utility.yul\":6467:6560   */\n      tag_108\n      jump\t// in\n    tag_179:\n        /* \"#utility.yul\":6585:6587   */\n      0x40\n        /* \"#utility.yul\":6580:6583   */\n      dup3\n        /* \"#utility.yul\":6576:6588   */\n      add\n        /* \"#utility.yul\":6569:6588   */\n      swap1\n      pop\n        /* \"#utility.yul\":6228:6594   */\n      swap2\n      swap1\n      pop\n      jump\t// out\n        /* \"#utility.yul\":6600:7019   */\n    tag_65:\n        /* \"#utility.yul\":6766:6770   */\n      0x00\n        /* \"#utility.yul\":6804:6806   */\n      0x20\n        /* \"#utility.yul\":6793:6802   */\n      dup3\n        /* \"#utility.yul\":6789:6807   */\n      add\n        /* \"#utility.yul\":6781:6807   */\n      swap1\n      pop\n        /* \"#utility.yul\":6853:6862   */\n      dup2\n        /* \"#utility.yul\":6847:6851   */\n      dup2\n        /* \"#utility.yul\":6843:6863   */\n      sub\n        /* \"#utility.yul\":6839:6840   */\n      0x00\n        /* \"#utility.yul\":6828:6837   */\n      dup4\n        /* \"#utility.yul\":6824:6841   */\n      add\n        /* \"#utility.yul\":6817:6864   */\n      mstore\n        /* \"#utility.yul\":6881:7012   */\n      tag_181\n        /* \"#utility.yul\":7007:7011   */\n      dup2\n        /* \"#utility.yul\":6881:7012   */\n      tag_109\n      jump\t// in\n    tag_181:\n        /* \"#utility.yul\":6873:7012   */\n      swap1\n      pop\n        /* \"#utility.yul\":6600:7019   */\n      swap2\n      swap1\n      pop\n      jump\t// out\n        /* \"#utility.yul\":7025:7205   */\n    tag_110:\n        /* \"#utility.yul\":7165:7197   */\n      0x546865726520616c7265616479206973206120686967686572206269642e0000\n        /* \"#utility.yul\":7161:7162   */\n      0x00\n        /* \"#utility.yul\":7153:7159   */\n      dup3\n        /* \"#utility.yul\":7149:7163   */\n      add\n        /* \"#utility.yul\":7142:7198   */\n      mstore\n        /* \"#utility.yul\":7025:7205   */\n      pop\n      jump\t// out\n        /* \"#utility.yul\":7211:7577   */\n    tag_111:\n        /* \"#utility.yul\":7353:7356   */\n      0x00\n        /* \"#utility.yul\":7374:7441   */\n      tag_184\n        /* \"#utility.yul\":7438:7440   */\n      0x1e\n        /* \"#utility.yul\":7433:7436   */\n      dup4\n        /* \"#utility.yul\":7374:7441   */\n      tag_103\n      jump\t// in\n    tag_184:\n        /* \"#utility.yul\":7367:7441   */\n      swap2\n      pop\n        /* \"#utility.yul\":7450:7543   */\n      tag_185\n        /* \"#utility.yul\":7539:7542   */\n      dup3\n        /* \"#utility.yul\":7450:7543   */\n      tag_110\n      jump\t// in\n    tag_185:\n        /* \"#utility.yul\":7568:7570   */\n      0x20\n        /* \"#utility.yul\":7563:7566   */\n      dup3\n        /* \"#utility.yul\":7559:7571   */\n      add\n        /* \"#utility.yul\":7552:7571   */\n      swap1\n      pop\n        /* \"#utility.yul\":7211:7577   */\n      swap2\n      swap1\n      pop\n      jump\t// out\n        /* \"#utility.yul\":7583:8002   */\n    tag_68:\n        /* \"#utility.yul\":7749:7753   */\n      0x00\n        /* \"#utility.yul\":7787:7789   */\n      0x20\n        /* \"#utility.yul\":7776:7785   */\n      dup3\n        /* \"#utility.yul\":7772:7790   */\n      add\n        /* \"#utility.yul\":7764:7790   */\n      swap1\n      pop\n        /* \"#utility.yul\":7836:7845   */\n      dup2\n        /* \"#utility.yul\":7830:7834   */\n      dup2\n        /* \"#utility.yul\":7826:7846   */\n      sub\n        /* \"#utility.yul\":7822:7823   */\n      0x00\n        /* \"#utility.yul\":7811:7820   */\n      dup4\n        /* \"#utility.yul\":7807:7824   */\n      add\n        /* \"#utility.yul\":7800:7847   */\n      mstore\n        /* \"#utility.yul\":7864:7995   */\n      tag_187\n        /* \"#utility.yul\":7990:7994   */\n      dup2\n        /* \"#utility.yul\":7864:7995   */\n      tag_111\n      jump\t// in\n    tag_187:\n        /* \"#utility.yul\":7856:7995   */\n      swap1\n      pop\n        /* \"#utility.yul\":7583:8002   */\n      swap2\n      swap1\n      pop\n      jump\t// out\n        /* \"#utility.yul\":8008:8188   */\n    tag_112:\n        /* \"#utility.yul\":8056:8133   */\n      0x4e487b7100000000000000000000000000000000000000000000000000000000\n        /* \"#utility.yul\":8053:8054   */\n      0x00\n        /* \"#utility.yul\":8046:8134   */\n      mstore\n        /* \"#utility.yul\":8153:8157   */\n      0x11\n        /* \"#utility.yul\":8150:8151   */\n      0x04\n        /* \"#utility.yul\":8143:8158   */\n      mstore\n        /* \"#utility.yul\":8177:8181   */\n      0x24\n        /* \"#utility.yul\":8174:8175   */\n      0x00\n        /* \"#utility.yul\":8167:8182   */\n      revert\n        /* \"#utility.yul\":8194:8385   */\n    tag_71:\n        /* \"#utility.yul\":8234:8237   */\n      0x00\n        /* \"#utility.yul\":8253:8273   */\n      tag_190\n        /* \"#utility.yul\":8271:8272   */\n      dup3\n        /* \"#utility.yul\":8253:8273   */\n      tag_92\n      jump\t// in\n    tag_190:\n        /* \"#utility.yul\":8248:8273   */\n      swap2\n      pop\n        /* \"#utility.yul\":8287:8307   */\n      tag_191\n        /* \"#utility.yul\":8305:8306   */\n      dup4\n        /* \"#utility.yul\":8287:8307   */\n      tag_92\n      jump\t// in\n    tag_191:\n        /* \"#utility.yul\":8282:8307   */\n      swap3\n      pop\n        /* \"#utility.yul\":8330:8331   */\n      dup3\n        /* \"#utility.yul\":8327:8328   */\n      dup3\n        /* \"#utility.yul\":8323:8332   */\n      add\n        /* \"#utility.yul\":8316:8332   */\n      swap1\n      pop\n        /* \"#utility.yul\":8351:8354   */\n      dup1\n        /* \"#utility.yul\":8348:8349   */\n      dup3\n        /* \"#utility.yul\":8345:8355   */\n      gt\n        /* \"#utility.yul\":8342:8378   */\n      iszero\n      tag_192\n      jumpi\n        /* \"#utility.yul\":8358:8376   */\n      tag_193\n      tag_112\n      jump\t// in\n    tag_193:\n        /* \"#utility.yul\":8342:8378   */\n    tag_192:\n        /* \"#utility.yul\":8194:8385   */\n      swap3\n      swap2\n      pop\n      pop\n      jump\t// out\n        /* \"#utility.yul\":8391:8833   */\n    tag_73:\n        /* \"#utility.yul\":8540:8544   */\n      0x00\n        /* \"#utility.yul\":8578:8580   */\n      0x60\n        /* \"#utility.yul\":8567:8576   */\n      dup3\n        /* \"#utility.yul\":8563:8581   */\n      add\n        /* \"#utility.yul\":8555:8581   */\n      swap1\n      pop\n        /* \"#utility.yul\":8591:8662   */\n      tag_195\n        /* \"#utility.yul\":8659:8660   */\n      0x00\n        /* \"#utility.yul\":8648:8657   */\n      dup4\n        /* \"#utility.yul\":8644:8661   */\n      add\n        /* \"#utility.yul\":8635:8641   */\n      dup7\n        /* \"#utility.yul\":8591:8662   */\n      tag_97\n      jump\t// in\n    tag_195:\n        /* \"#utility.yul\":8672:8744   */\n      tag_196\n        /* \"#utility.yul\":8740:8742   */\n      0x20\n        /* \"#utility.yul\":8729:8738   */\n      dup4\n        /* \"#utility.yul\":8725:8743   */\n      add\n        /* \"#utility.yul\":8716:8722   */\n      dup6\n        /* \"#utility.yul\":8672:8744   */\n      tag_100\n      jump\t// in\n    tag_196:\n        /* \"#utility.yul\":8754:8826   */\n      tag_197\n        /* \"#utility.yul\":8822:8824   */\n      0x40\n        /* \"#utility.yul\":8811:8820   */\n      dup4\n        /* \"#utility.yul\":8807:8825   */\n      add\n        /* \"#utility.yul\":8798:8804   */\n      dup5\n        /* \"#utility.yul\":8754:8826   */\n      tag_97\n      jump\t// in\n    tag_197:\n        /* \"#utility.yul\":8391:8833   */\n      swap5\n      swap4\n      pop\n      pop\n      pop\n      pop\n      jump\t// out\n        /* \"#utility.yul\":8839:9066   */\n    tag_113:\n        /* \"#utility.yul\":8979:9013   */\n      0x4f6e6c79207468652061756374696f6e6565722063616e20656e642074686520\n        /* \"#utility.yul\":8975:8976   */\n      0x00\n        /* \"#utility.yul\":8967:8973   */\n      dup3\n        /* \"#utility.yul\":8963:8977   */\n      add\n        /* \"#utility.yul\":8956:9014   */\n      mstore\n        /* \"#utility.yul\":9048:9058   */\n      0x61756374696f6e2e000000000000000000000000000000000000000000000000\n        /* \"#utility.yul\":9043:9045   */\n      0x20\n        /* \"#utility.yul\":9035:9041   */\n      dup3\n        /* \"#utility.yul\":9031:9046   */\n      add\n        /* \"#utility.yul\":9024:9059   */\n      mstore\n        /* \"#utility.yul\":8839:9066   */\n      pop\n      jump\t// out\n        /* \"#utility.yul\":9072:9438   */\n    tag_114:\n        /* \"#utility.yul\":9214:9217   */\n      0x00\n        /* \"#utility.yul\":9235:9302   */\n      tag_200\n        /* \"#utility.yul\":9299:9301   */\n      0x28\n        /* \"#utility.yul\":9294:9297   */\n      dup4\n        /* \"#utility.yul\":9235:9302   */\n      tag_103\n      jump\t// in\n    tag_200:\n        /* \"#utility.yul\":9228:9302   */\n      swap2\n      pop\n        /* \"#utility.yul\":9311:9404   */\n      tag_201\n        /* \"#utility.yul\":9400:9403   */\n      dup3\n        /* \"#utility.yul\":9311:9404   */\n      tag_113\n      jump\t// in\n    tag_201:\n        /* \"#utility.yul\":9429:9431   */\n      0x40\n        /* \"#utility.yul\":9424:9427   */\n      dup3\n        /* \"#utility.yul\":9420:9432   */\n      add\n        /* \"#utility.yul\":9413:9432   */\n      swap1\n      pop\n        /* \"#utility.yul\":9072:9438   */\n      swap2\n      swap1\n      pop\n      jump\t// out\n        /* \"#utility.yul\":9444:9863   */\n    tag_79:\n        /* \"#utility.yul\":9610:9614   */\n      0x00\n        /* \"#utility.yul\":9648:9650   */\n      0x20\n        /* \"#utility.yul\":9637:9646   */\n      dup3\n        /* \"#utility.yul\":9633:9651   */\n      add\n        /* \"#utility.yul\":9625:9651   */\n      swap1\n      pop\n        /* \"#utility.yul\":9697:9706   */\n      dup2\n        /* \"#utility.yul\":9691:9695   */\n      dup2\n        /* \"#utility.yul\":9687:9707   */\n      sub\n        /* \"#utility.yul\":9683:9684   */\n      0x00\n        /* \"#utility.yul\":9672:9681   */\n      dup4\n        /* \"#utility.yul\":9668:9685   */\n      add\n        /* \"#utility.yul\":9661:9708   */\n      mstore\n        /* \"#utility.yul\":9725:9856   */\n      tag_203\n        /* \"#utility.yul\":9851:9855   */\n      dup2\n        /* \"#utility.yul\":9725:9856   */\n      tag_114\n      jump\t// in\n    tag_203:\n        /* \"#utility.yul\":9717:9856   */\n      swap1\n      pop\n        /* \"#utility.yul\":9444:9863   */\n      swap2\n      swap1\n      pop\n      jump\t// out\n        /* \"#utility.yul\":9869:10041   */\n    tag_115:\n        /* \"#utility.yul\":10009:10033   */\n      0x41756374696f6e206e6f742079657420656e6465642e00000000000000000000\n        /* \"#utility.yul\":10005:10006   */\n      0x00\n        /* \"#utility.yul\":9997:10003   */\n      dup3\n        /* \"#utility.yul\":9993:10007   */\n      add\n        /* \"#utility.yul\":9986:10034   */\n      mstore\n        /* \"#utility.yul\":9869:10041   */\n      pop\n      jump\t// out\n        /* \"#utility.yul\":10047:10413   */\n    tag_116:\n        /* \"#utility.yul\":10189:10192   */\n      0x00\n        /* \"#utility.yul\":10210:10277   */\n      tag_206\n        /* \"#utility.yul\":10274:10276   */\n      0x16\n        /* \"#utility.yul\":10269:10272   */\n      dup4\n        /* \"#utility.yul\":10210:10277   */\n      tag_103\n      jump\t// in\n    tag_206:\n        /* \"#utility.yul\":10203:10277   */\n      swap2\n      pop\n        /* \"#utility.yul\":10286:10379   */\n      tag_207\n        /* \"#utility.yul\":10375:10378   */\n      dup3\n        /* \"#utility.yul\":10286:10379   */\n      tag_115\n      jump\t// in\n    tag_207:\n        /* \"#utility.yul\":10404:10406   */\n      0x20\n        /* \"#utility.yul\":10399:10402   */\n      dup3\n        /* \"#utility.yul\":10395:10407   */\n      add\n        /* \"#utility.yul\":10388:10407   */\n      swap1\n      pop\n        /* \"#utility.yul\":10047:10413   */\n      swap2\n      swap1\n      pop\n      jump\t// out\n        /* \"#utility.yul\":10419:10838   */\n    tag_82:\n        /* \"#utility.yul\":10585:10589   */\n      0x00\n        /* \"#utility.yul\":10623:10625   */\n      0x20\n        /* \"#utility.yul\":10612:10621   */\n      dup3\n        /* \"#utility.yul\":10608:10626   */\n      add\n        /* \"#utility.yul\":10600:10626   */\n      swap1\n      pop\n        /* \"#utility.yul\":10672:10681   */\n      dup2\n        /* \"#utility.yul\":10666:10670   */\n      dup2\n        /* \"#utility.yul\":10662:10682   */\n      sub\n        /* \"#utility.yul\":10658:10659   */\n      0x00\n        /* \"#utility.yul\":10647:10656   */\n      dup4\n        /* \"#utility.yul\":10643:10660   */\n      add\n        /* \"#utility.yul\":10636:10683   */\n      mstore\n        /* \"#utility.yul\":10700:10831   */\n      tag_209\n        /* \"#utility.yul\":10826:10830   */\n      dup2\n        /* \"#utility.yul\":10700:10831   */\n      tag_116\n      jump\t// in\n    tag_209:\n        /* \"#utility.yul\":10692:10831   */\n      swap1\n      pop\n        /* \"#utility.yul\":10419:10838   */\n      swap2\n      swap1\n      pop\n      jump\t// out\n\n    auxdata: 0xa264697066735822122058d888d323de66f86635cf1b83363fbf6b7a39f5ba4f62e99f355ebb3e07c52a64736f6c63430008110033\n}\n",
				"bytecode": {
					"linkReferences": {},
					"object": "60806040523480156200001157600080fd5b50604051620016263803806200162683398181016040528101906200003791906200043d565b80518251146200007e576040517f08c379a000000000000000000000000000000000000000000000000000000000815260040162000075906200055e565b60405180910390fd5b336000806101000a81548173ffffffffffffffffffffffffffffffffffffffff021916908373ffffffffffffffffffffffffffffffffffffffff1602179055508242620000cc9190620005af565b60018190555060005b82518110156200026f576040518060a001604052808483815181106200010057620000ff620005ea565b5b60200260200101518152602001838381518110620001235762000122620005ea565b5b6020026020010151815260200160008152602001600073ffffffffffffffffffffffffffffffffffffffff1681526020016001151581525060026000858481518110620001755762000174620005ea565b5b6020026020010151815260200190815260200160002060008201518160000155602082015181600101556040820151816002015560608201518160030160006101000a81548173ffffffffffffffffffffffffffffffffffffffff021916908373ffffffffffffffffffffffffffffffffffffffff16021790555060808201518160030160146101000a81548160ff02191690831515021790555090505060048382815181106200022b576200022a620005ea565b5b602002602001015190806001815401808255809150506001900390600052602060002001600090919091909150558080620002669062000619565b915050620000d5565b5050505062000666565b6000604051905090565b600080fd5b600080fd5b6000819050919050565b620002a2816200028d565b8114620002ae57600080fd5b50565b600081519050620002c28162000297565b92915050565b600080fd5b6000601f19601f8301169050919050565b7f4e487b7100000000000000000000000000000000000000000000000000000000600052604160045260246000fd5b6200031882620002cd565b810181811067ffffffffffffffff821117156200033a5762000339620002de565b5b80604052505050565b60006200034f62000279565b90506200035d82826200030d565b919050565b600067ffffffffffffffff82111562000380576200037f620002de565b5b602082029050602081019050919050565b600080fd5b6000620003ad620003a78462000362565b62000343565b90508083825260208201905060208402830185811115620003d357620003d262000391565b5b835b81811015620004005780620003eb8882620002b1565b845260208401935050602081019050620003d5565b5050509392505050565b600082601f830112620004225762000421620002c8565b5b81516200043484826020860162000396565b91505092915050565b60008060006060848603121562000459576200045862000283565b5b60006200046986828701620002b1565b935050602084015167ffffffffffffffff8111156200048d576200048c62000288565b5b6200049b868287016200040a565b925050604084015167ffffffffffffffff811115620004bf57620004be62000288565b5b620004cd868287016200040a565b9150509250925092565b600082825260208201905092915050565b7f4974656d2049447320616e64207374617274696e67206269647320617272617960008201527f73206d7573742068617665207468652073616d65206c656e6774682e00000000602082015250565b600062000546603c83620004d7565b91506200055382620004e8565b604082019050919050565b60006020820190508181036000830152620005798162000537565b9050919050565b7f4e487b7100000000000000000000000000000000000000000000000000000000600052601160045260246000fd5b6000620005bc826200028d565b9150620005c9836200028d565b9250828201905080821115620005e457620005e362000580565b5b92915050565b7f4e487b7100000000000000000000000000000000000000000000000000000000600052603260045260246000fd5b600062000626826200028d565b91507fffffffffffffffffffffffffffffffffffffffffffffffffffffffffffffffff82036200065b576200065a62000580565b5b600182019050919050565b610fb080620006766000396000f3fe60806040526004361061007b5760003560e01c80638ddac1ef1161004e5780638ddac1ef1461012f578063b3dc00fe1461016c578063b9a2de3a146101a9578063bfb231d2146101d25761007b565b80632e1a7d4d14610080578063454a2ab3146100bd5780634b449cba146100d95780635ec2c7bf14610104575b600080fd5b34801561008c57600080fd5b506100a760048036038101906100a29190610a2d565b610213565b6040516100b49190610a75565b60405180910390f35b6100d760048036038101906100d29190610a2d565b61036c565b005b3480156100e557600080fd5b506100ee610645565b6040516100fb9190610a9f565b60405180910390f35b34801561011057600080fd5b5061011961064b565b6040516101269190610afb565b60405180910390f35b34801561013b57600080fd5b5061015660048036038101906101519190610b42565b61066f565b6040516101639190610a9f565b60405180910390f35b34801561017857600080fd5b50610193600480360381019061018e9190610a2d565b610694565b6040516101a09190610a9f565b60405180910390f35b3480156101b557600080fd5b506101d060048036038101906101cb9190610a2d565b6106b8565b005b3480156101de57600080fd5b506101f960048036038101906101f49190610a2d565b61098f565b60405161020a959493929190610b82565b60405180910390f35b6000806003600084815260200190815260200160002060003373ffffffffffffffffffffffffffffffffffffffff1673ffffffffffffffffffffffffffffffffffffffff16815260200190815260200160002054905060008111156103615760006003600085815260200190815260200160002060003373ffffffffffffffffffffffffffffffffffffffff1673ffffffffffffffffffffffffffffffffffffffff168152602001908152602001600020819055503373ffffffffffffffffffffffffffffffffffffffff166108fc829081150290604051600060405180830381858888f1935050505061036057806003600085815260200190815260200160002060003373ffffffffffffffffffffffffffffffffffffffff1673ffffffffffffffffffffffffffffffffffffffff168152602001908152602001600020819055506000915050610367565b5b60019150505b919050565b6002600082815260200190815260200160002060030160149054906101000a900460ff166103cf576040517f08c379a00000000000000000000000000000000000000000000000000000000081526004016103c690610c58565b60405180910390fd5b600154421115610414576040517f08c379a000000000000000000000000000000000000000000000000000000000815260040161040b90610cc4565b60405180910390fd5b600260008281526020019081526020016000206001015434101561046d576040517f08c379a000000000000000000000000000000000000000000000000000000000815260040161046490610d56565b60405180910390fd5b600260008281526020019081526020016000206002015434116104c5576040517f08c379a00000000000000000000000000000000000000000000000000000000081526004016104bc90610dc2565b60405180910390fd5b60006002600083815260200190815260200160002060020154146105975760026000828152602001908152602001600020600201546003600083815260200190815260200160002060006002600085815260200190815260200160002060030160009054906101000a900473ffffffffffffffffffffffffffffffffffffffff1673ffffffffffffffffffffffffffffffffffffffff1673ffffffffffffffffffffffffffffffffffffffff168152602001908152602001600020600082825461058f9190610e11565b925050819055505b336002600083815260200190815260200160002060030160006101000a81548173ffffffffffffffffffffffffffffffffffffffff021916908373ffffffffffffffffffffffffffffffffffffffff1602179055503460026000838152602001908152602001600020600201819055507fda0a18da71d8ebd145966339a728fc0d8ccc07c22870d561890d823c515dda6b81333460405161063a93929190610e45565b60405180910390a150565b60015481565b60008054906101000a900473ffffffffffffffffffffffffffffffffffffffff1681565b6003602052816000526040600020602052806000526040600020600091509150505481565b600481815481106106a457600080fd5b906000526020600020016000915090505481565b60008054906101000a900473ffffffffffffffffffffffffffffffffffffffff1673ffffffffffffffffffffffffffffffffffffffff163373ffffffffffffffffffffffffffffffffffffffff1614610746576040517f08c379a000000000000000000000000000000000000000000000000000000000815260040161073d90610eee565b60405180910390fd5b60015442101561078b576040517f08c379a000000000000000000000000000000000000000000000000000000000815260040161078290610f5a565b60405180910390fd5b6002600082815260200190815260200160002060030160149054906101000a900460ff166107ee576040517f08c379a00000000000000000000000000000000000000000000000000000000081526004016107e590610c58565b60405180910390fd5b60006002600083815260200190815260200160002060030160146101000a81548160ff0219169083151502179055507fd2aa34a4fdbbc6dff6a3e56f46e0f3ae2a31d7785ff3487aa5c95c642acea501816002600084815260200190815260200160002060030160009054906101000a900473ffffffffffffffffffffffffffffffffffffffff16600260008581526020019081526020016000206002015460405161089c93929190610e45565b60405180910390a1600073ffffffffffffffffffffffffffffffffffffffff166002600083815260200190815260200160002060030160009054906101000a900473ffffffffffffffffffffffffffffffffffffffff1673ffffffffffffffffffffffffffffffffffffffff161461098c5760008054906101000a900473ffffffffffffffffffffffffffffffffffffffff1673ffffffffffffffffffffffffffffffffffffffff166108fc60026000848152602001908152602001600020600201549081150290604051600060405180830381858888f1935050505015801561098a573d6000803e3d6000fd5b505b50565b60026020528060005260406000206000915090508060000154908060010154908060020154908060030160009054906101000a900473ffffffffffffffffffffffffffffffffffffffff16908060030160149054906101000a900460ff16905085565b600080fd5b6000819050919050565b610a0a816109f7565b8114610a1557600080fd5b50565b600081359050610a2781610a01565b92915050565b600060208284031215610a4357610a426109f2565b5b6000610a5184828501610a18565b91505092915050565b60008115159050919050565b610a6f81610a5a565b82525050565b6000602082019050610a8a6000830184610a66565b92915050565b610a99816109f7565b82525050565b6000602082019050610ab46000830184610a90565b92915050565b600073ffffffffffffffffffffffffffffffffffffffff82169050919050565b6000610ae582610aba565b9050919050565b610af581610ada565b82525050565b6000602082019050610b106000830184610aec565b92915050565b610b1f81610ada565b8114610b2a57600080fd5b50565b600081359050610b3c81610b16565b92915050565b60008060408385031215610b5957610b586109f2565b5b6000610b6785828601610a18565b9250506020610b7885828601610b2d565b9150509250929050565b600060a082019050610b976000830188610a90565b610ba46020830187610a90565b610bb16040830186610a90565b610bbe6060830185610aec565b610bcb6080830184610a66565b9695505050505050565b600082825260208201905092915050565b7f4974656d20646f6573206e6f74206578697374206f72206973206e6f7420616360008201527f746976652e000000000000000000000000000000000000000000000000000000602082015250565b6000610c42602583610bd5565b9150610c4d82610be6565b604082019050919050565b60006020820190508181036000830152610c7181610c35565b9050919050565b7f41756374696f6e20616c726561647920656e6465642e00000000000000000000600082015250565b6000610cae601683610bd5565b9150610cb982610c78565b602082019050919050565b60006020820190508181036000830152610cdd81610ca1565b9050919050565b7f426964206d75737420626520657175616c206f7220686967686572207468616e60008201527f20746865206974656d2773207374617274696e67206269642e00000000000000602082015250565b6000610d40603983610bd5565b9150610d4b82610ce4565b604082019050919050565b60006020820190508181036000830152610d6f81610d33565b9050919050565b7f546865726520616c7265616479206973206120686967686572206269642e0000600082015250565b6000610dac601e83610bd5565b9150610db782610d76565b602082019050919050565b60006020820190508181036000830152610ddb81610d9f565b9050919050565b7f4e487b7100000000000000000000000000000000000000000000000000000000600052601160045260246000fd5b6000610e1c826109f7565b9150610e27836109f7565b9250828201905080821115610e3f57610e3e610de2565b5b92915050565b6000606082019050610e5a6000830186610a90565b610e676020830185610aec565b610e746040830184610a90565b949350505050565b7f4f6e6c79207468652061756374696f6e6565722063616e20656e64207468652060008201527f61756374696f6e2e000000000000000000000000000000000000000000000000602082015250565b6000610ed8602883610bd5565b9150610ee382610e7c565b604082019050919050565b60006020820190508181036000830152610f0781610ecb565b9050919050565b7f41756374696f6e206e6f742079657420656e6465642e00000000000000000000600082015250565b6000610f44601683610bd5565b9150610f4f82610f0e565b602082019050919050565b60006020820190508181036000830152610f7381610f37565b905091905056fea264697066735822122058d888d323de66f86635cf1b83363fbf6b7a39f5ba4f62e99f355ebb3e07c52a64736f6c63430008110033",
					"opcodes": "PUSH1 0x80 PUSH1 0x40 MSTORE CALLVALUE DUP1 ISZERO PUSH3 0x11 JUMPI PUSH1 0x0 DUP1 REVERT JUMPDEST POP PUSH1 0x40 MLOAD PUSH3 0x1626 CODESIZE SUB DUP1 PUSH3 0x1626 DUP4 CODECOPY DUP2 DUP2 ADD PUSH1 0x40 MSTORE DUP2 ADD SWAP1 PUSH3 0x37 SWAP2 SWAP1 PUSH3 0x43D JUMP JUMPDEST DUP1 MLOAD DUP3 MLOAD EQ PUSH3 0x7E JUMPI PUSH1 0x40 MLOAD PUSH32 0x8C379A000000000000000000000000000000000000000000000000000000000 DUP2 MSTORE PUSH1 0x4 ADD PUSH3 0x75 SWAP1 PUSH3 0x55E JUMP JUMPDEST PUSH1 0x40 MLOAD DUP1 SWAP2 SUB SWAP1 REVERT JUMPDEST CALLER PUSH1 0x0 DUP1 PUSH2 0x100 EXP DUP2 SLOAD DUP2 PUSH20 0xFFFFFFFFFFFFFFFFFFFFFFFFFFFFFFFFFFFFFFFF MUL NOT AND SWAP1 DUP4 PUSH20 0xFFFFFFFFFFFFFFFFFFFFFFFFFFFFFFFFFFFFFFFF AND MUL OR SWAP1 SSTORE POP DUP3 TIMESTAMP PUSH3 0xCC SWAP2 SWAP1 PUSH3 0x5AF JUMP JUMPDEST PUSH1 0x1 DUP2 SWAP1 SSTORE POP PUSH1 0x0 JUMPDEST DUP3 MLOAD DUP2 LT ISZERO PUSH3 0x26F JUMPI PUSH1 0x40 MLOAD DUP1 PUSH1 0xA0 ADD PUSH1 0x40 MSTORE DUP1 DUP5 DUP4 DUP2 MLOAD DUP2 LT PUSH3 0x100 JUMPI PUSH3 0xFF PUSH3 0x5EA JUMP JUMPDEST JUMPDEST PUSH1 0x20 MUL PUSH1 0x20 ADD ADD MLOAD DUP2 MSTORE PUSH1 0x20 ADD DUP4 DUP4 DUP2 MLOAD DUP2 LT PUSH3 0x123 JUMPI PUSH3 0x122 PUSH3 0x5EA JUMP JUMPDEST JUMPDEST PUSH1 0x20 MUL PUSH1 0x20 ADD ADD MLOAD DUP2 MSTORE PUSH1 0x20 ADD PUSH1 0x0 DUP2 MSTORE PUSH1 0x20 ADD PUSH1 0x0 PUSH20 0xFFFFFFFFFFFFFFFFFFFFFFFFFFFFFFFFFFFFFFFF AND DUP2 MSTORE PUSH1 0x20 ADD PUSH1 0x1 ISZERO ISZERO DUP2 MSTORE POP PUSH1 0x2 PUSH1 0x0 DUP6 DUP5 DUP2 MLOAD DUP2 LT PUSH3 0x175 JUMPI PUSH3 0x174 PUSH3 0x5EA JUMP JUMPDEST JUMPDEST PUSH1 0x20 MUL PUSH1 0x20 ADD ADD MLOAD DUP2 MSTORE PUSH1 0x20 ADD SWAP1 DUP2 MSTORE PUSH1 0x20 ADD PUSH1 0x0 KECCAK256 PUSH1 0x0 DUP3 ADD MLOAD DUP2 PUSH1 0x0 ADD SSTORE PUSH1 0x20 DUP3 ADD MLOAD DUP2 PUSH1 0x1 ADD SSTORE PUSH1 0x40 DUP3 ADD MLOAD DUP2 PUSH1 0x2 ADD SSTORE PUSH1 0x60 DUP3 ADD MLOAD DUP2 PUSH1 0x3 ADD PUSH1 0x0 PUSH2 0x100 EXP DUP2 SLOAD DUP2 PUSH20 0xFFFFFFFFFFFFFFFFFFFFFFFFFFFFFFFFFFFFFFFF MUL NOT AND SWAP1 DUP4 PUSH20 0xFFFFFFFFFFFFFFFFFFFFFFFFFFFFFFFFFFFFFFFF AND MUL OR SWAP1 SSTORE POP PUSH1 0x80 DUP3 ADD MLOAD DUP2 PUSH1 0x3 ADD PUSH1 0x14 PUSH2 0x100 EXP DUP2 SLOAD DUP2 PUSH1 0xFF MUL NOT AND SWAP1 DUP4 ISZERO ISZERO MUL OR SWAP1 SSTORE POP SWAP1 POP POP PUSH1 0x4 DUP4 DUP3 DUP2 MLOAD DUP2 LT PUSH3 0x22B JUMPI PUSH3 0x22A PUSH3 0x5EA JUMP JUMPDEST JUMPDEST PUSH1 0x20 MUL PUSH1 0x20 ADD ADD MLOAD SWAP1 DUP1 PUSH1 0x1 DUP2 SLOAD ADD DUP1 DUP3 SSTORE DUP1 SWAP2 POP POP PUSH1 0x1 SWAP1 SUB SWAP1 PUSH1 0x0 MSTORE PUSH1 0x20 PUSH1 0x0 KECCAK256 ADD PUSH1 0x0 SWAP1 SWAP2 SWAP1 SWAP2 SWAP1 SWAP2 POP SSTORE DUP1 DUP1 PUSH3 0x266 SWAP1 PUSH3 0x619 JUMP JUMPDEST SWAP2 POP POP PUSH3 0xD5 JUMP JUMPDEST POP POP POP POP PUSH3 0x666 JUMP JUMPDEST PUSH1 0x0 PUSH1 0x40 MLOAD SWAP1 POP SWAP1 JUMP JUMPDEST PUSH1 0x0 DUP1 REVERT JUMPDEST PUSH1 0x0 DUP1 REVERT JUMPDEST PUSH1 0x0 DUP2 SWAP1 POP SWAP2 SWAP1 POP JUMP JUMPDEST PUSH3 0x2A2 DUP2 PUSH3 0x28D JUMP JUMPDEST DUP2 EQ PUSH3 0x2AE JUMPI PUSH1 0x0 DUP1 REVERT JUMPDEST POP JUMP JUMPDEST PUSH1 0x0 DUP2 MLOAD SWAP1 POP PUSH3 0x2C2 DUP2 PUSH3 0x297 JUMP JUMPDEST SWAP3 SWAP2 POP POP JUMP JUMPDEST PUSH1 0x0 DUP1 REVERT JUMPDEST PUSH1 0x0 PUSH1 0x1F NOT PUSH1 0x1F DUP4 ADD AND SWAP1 POP SWAP2 SWAP1 POP JUMP JUMPDEST PUSH32 0x4E487B7100000000000000000000000000000000000000000000000000000000 PUSH1 0x0 MSTORE PUSH1 0x41 PUSH1 0x4 MSTORE PUSH1 0x24 PUSH1 0x0 REVERT JUMPDEST PUSH3 0x318 DUP3 PUSH3 0x2CD JUMP JUMPDEST DUP2 ADD DUP2 DUP2 LT PUSH8 0xFFFFFFFFFFFFFFFF DUP3 GT OR ISZERO PUSH3 0x33A JUMPI PUSH3 0x339 PUSH3 0x2DE JUMP JUMPDEST JUMPDEST DUP1 PUSH1 0x40 MSTORE POP POP POP JUMP JUMPDEST PUSH1 0x0 PUSH3 0x34F PUSH3 0x279 JUMP JUMPDEST SWAP1 POP PUSH3 0x35D DUP3 DUP3 PUSH3 0x30D JUMP JUMPDEST SWAP2 SWAP1 POP JUMP JUMPDEST PUSH1 0x0 PUSH8 0xFFFFFFFFFFFFFFFF DUP3 GT ISZERO PUSH3 0x380 JUMPI PUSH3 0x37F PUSH3 0x2DE JUMP JUMPDEST JUMPDEST PUSH1 0x20 DUP3 MUL SWAP1 POP PUSH1 0x20 DUP2 ADD SWAP1 POP SWAP2 SWAP1 POP JUMP JUMPDEST PUSH1 0x0 DUP1 REVERT JUMPDEST PUSH1 0x0 PUSH3 0x3AD PUSH3 0x3A7 DUP5 PUSH3 0x362 JUMP JUMPDEST PUSH3 0x343 JUMP JUMPDEST SWAP1 POP DUP1 DUP4 DUP3 MSTORE PUSH1 0x20 DUP3 ADD SWAP1 POP PUSH1 0x20 DUP5 MUL DUP4 ADD DUP6 DUP2 GT ISZERO PUSH3 0x3D3 JUMPI PUSH3 0x3D2 PUSH3 0x391 JUMP JUMPDEST JUMPDEST DUP4 JUMPDEST DUP2 DUP2 LT ISZERO PUSH3 0x400 JUMPI DUP1 PUSH3 0x3EB DUP9 DUP3 PUSH3 0x2B1 JUMP JUMPDEST DUP5 MSTORE PUSH1 0x20 DUP5 ADD SWAP4 POP POP PUSH1 0x20 DUP2 ADD SWAP1 POP PUSH3 0x3D5 JUMP JUMPDEST POP POP POP SWAP4 SWAP3 POP POP POP JUMP JUMPDEST PUSH1 0x0 DUP3 PUSH1 0x1F DUP4 ADD SLT PUSH3 0x422 JUMPI PUSH3 0x421 PUSH3 0x2C8 JUMP JUMPDEST JUMPDEST DUP2 MLOAD PUSH3 0x434 DUP5 DUP3 PUSH1 0x20 DUP7 ADD PUSH3 0x396 JUMP JUMPDEST SWAP2 POP POP SWAP3 SWAP2 POP POP JUMP JUMPDEST PUSH1 0x0 DUP1 PUSH1 0x0 PUSH1 0x60 DUP5 DUP7 SUB SLT ISZERO PUSH3 0x459 JUMPI PUSH3 0x458 PUSH3 0x283 JUMP JUMPDEST JUMPDEST PUSH1 0x0 PUSH3 0x469 DUP7 DUP3 DUP8 ADD PUSH3 0x2B1 JUMP JUMPDEST SWAP4 POP POP PUSH1 0x20 DUP5 ADD MLOAD PUSH8 0xFFFFFFFFFFFFFFFF DUP2 GT ISZERO PUSH3 0x48D JUMPI PUSH3 0x48C PUSH3 0x288 JUMP JUMPDEST JUMPDEST PUSH3 0x49B DUP7 DUP3 DUP8 ADD PUSH3 0x40A JUMP JUMPDEST SWAP3 POP POP PUSH1 0x40 DUP5 ADD MLOAD PUSH8 0xFFFFFFFFFFFFFFFF DUP2 GT ISZERO PUSH3 0x4BF JUMPI PUSH3 0x4BE PUSH3 0x288 JUMP JUMPDEST JUMPDEST PUSH3 0x4CD DUP7 DUP3 DUP8 ADD PUSH3 0x40A JUMP JUMPDEST SWAP2 POP POP SWAP3 POP SWAP3 POP SWAP3 JUMP JUMPDEST PUSH1 0x0 DUP3 DUP3 MSTORE PUSH1 0x20 DUP3 ADD SWAP1 POP SWAP3 SWAP2 POP POP JUMP JUMPDEST PUSH32 0x4974656D2049447320616E64207374617274696E672062696473206172726179 PUSH1 0x0 DUP3 ADD MSTORE PUSH32 0x73206D7573742068617665207468652073616D65206C656E6774682E00000000 PUSH1 0x20 DUP3 ADD MSTORE POP JUMP JUMPDEST PUSH1 0x0 PUSH3 0x546 PUSH1 0x3C DUP4 PUSH3 0x4D7 JUMP JUMPDEST SWAP2 POP PUSH3 0x553 DUP3 PUSH3 0x4E8 JUMP JUMPDEST PUSH1 0x40 DUP3 ADD SWAP1 POP SWAP2 SWAP1 POP JUMP JUMPDEST PUSH1 0x0 PUSH1 0x20 DUP3 ADD SWAP1 POP DUP2 DUP2 SUB PUSH1 0x0 DUP4 ADD MSTORE PUSH3 0x579 DUP2 PUSH3 0x537 JUMP JUMPDEST SWAP1 POP SWAP2 SWAP1 POP JUMP JUMPDEST PUSH32 0x4E487B7100000000000000000000000000000000000000000000000000000000 PUSH1 0x0 MSTORE PUSH1 0x11 PUSH1 0x4 MSTORE PUSH1 0x24 PUSH1 0x0 REVERT JUMPDEST PUSH1 0x0 PUSH3 0x5BC DUP3 PUSH3 0x28D JUMP JUMPDEST SWAP2 POP PUSH3 0x5C9 DUP4 PUSH3 0x28D JUMP JUMPDEST SWAP3 POP DUP3 DUP3 ADD SWAP1 POP DUP1 DUP3 GT ISZERO PUSH3 0x5E4 JUMPI PUSH3 0x5E3 PUSH3 0x580 JUMP JUMPDEST JUMPDEST SWAP3 SWAP2 POP POP JUMP JUMPDEST PUSH32 0x4E487B7100000000000000000000000000000000000000000000000000000000 PUSH1 0x0 MSTORE PUSH1 0x32 PUSH1 0x4 MSTORE PUSH1 0x24 PUSH1 0x0 REVERT JUMPDEST PUSH1 0x0 PUSH3 0x626 DUP3 PUSH3 0x28D JUMP JUMPDEST SWAP2 POP PUSH32 0xFFFFFFFFFFFFFFFFFFFFFFFFFFFFFFFFFFFFFFFFFFFFFFFFFFFFFFFFFFFFFFFF DUP3 SUB PUSH3 0x65B JUMPI PUSH3 0x65A PUSH3 0x580 JUMP JUMPDEST JUMPDEST PUSH1 0x1 DUP3 ADD SWAP1 POP SWAP2 SWAP1 POP JUMP JUMPDEST PUSH2 0xFB0 DUP1 PUSH3 0x676 PUSH1 0x0 CODECOPY PUSH1 0x0 RETURN INVALID PUSH1 0x80 PUSH1 0x40 MSTORE PUSH1 0x4 CALLDATASIZE LT PUSH2 0x7B JUMPI PUSH1 0x0 CALLDATALOAD PUSH1 0xE0 SHR DUP1 PUSH4 0x8DDAC1EF GT PUSH2 0x4E JUMPI DUP1 PUSH4 0x8DDAC1EF EQ PUSH2 0x12F JUMPI DUP1 PUSH4 0xB3DC00FE EQ PUSH2 0x16C JUMPI DUP1 PUSH4 0xB9A2DE3A EQ PUSH2 0x1A9 JUMPI DUP1 PUSH4 0xBFB231D2 EQ PUSH2 0x1D2 JUMPI PUSH2 0x7B JUMP JUMPDEST DUP1 PUSH4 0x2E1A7D4D EQ PUSH2 0x80 JUMPI DUP1 PUSH4 0x454A2AB3 EQ PUSH2 0xBD JUMPI DUP1 PUSH4 0x4B449CBA EQ PUSH2 0xD9 JUMPI DUP1 PUSH4 0x5EC2C7BF EQ PUSH2 0x104 JUMPI JUMPDEST PUSH1 0x0 DUP1 REVERT JUMPDEST CALLVALUE DUP1 ISZERO PUSH2 0x8C JUMPI PUSH1 0x0 DUP1 REVERT JUMPDEST POP PUSH2 0xA7 PUSH1 0x4 DUP1 CALLDATASIZE SUB DUP2 ADD SWAP1 PUSH2 0xA2 SWAP2 SWAP1 PUSH2 0xA2D JUMP JUMPDEST PUSH2 0x213 JUMP JUMPDEST PUSH1 0x40 MLOAD PUSH2 0xB4 SWAP2 SWAP1 PUSH2 0xA75 JUMP JUMPDEST PUSH1 0x40 MLOAD DUP1 SWAP2 SUB SWAP1 RETURN JUMPDEST PUSH2 0xD7 PUSH1 0x4 DUP1 CALLDATASIZE SUB DUP2 ADD SWAP1 PUSH2 0xD2 SWAP2 SWAP1 PUSH2 0xA2D JUMP JUMPDEST PUSH2 0x36C JUMP JUMPDEST STOP JUMPDEST CALLVALUE DUP1 ISZERO PUSH2 0xE5 JUMPI PUSH1 0x0 DUP1 REVERT JUMPDEST POP PUSH2 0xEE PUSH2 0x645 JUMP JUMPDEST PUSH1 0x40 MLOAD PUSH2 0xFB SWAP2 SWAP1 PUSH2 0xA9F JUMP JUMPDEST PUSH1 0x40 MLOAD DUP1 SWAP2 SUB SWAP1 RETURN JUMPDEST CALLVALUE DUP1 ISZERO PUSH2 0x110 JUMPI PUSH1 0x0 DUP1 REVERT JUMPDEST POP PUSH2 0x119 PUSH2 0x64B JUMP JUMPDEST PUSH1 0x40 MLOAD PUSH2 0x126 SWAP2 SWAP1 PUSH2 0xAFB JUMP JUMPDEST PUSH1 0x40 MLOAD DUP1 SWAP2 SUB SWAP1 RETURN JUMPDEST CALLVALUE DUP1 ISZERO PUSH2 0x13B JUMPI PUSH1 0x0 DUP1 REVERT JUMPDEST POP PUSH2 0x156 PUSH1 0x4 DUP1 CALLDATASIZE SUB DUP2 ADD SWAP1 PUSH2 0x151 SWAP2 SWAP1 PUSH2 0xB42 JUMP JUMPDEST PUSH2 0x66F JUMP JUMPDEST PUSH1 0x40 MLOAD PUSH2 0x163 SWAP2 SWAP1 PUSH2 0xA9F JUMP JUMPDEST PUSH1 0x40 MLOAD DUP1 SWAP2 SUB SWAP1 RETURN JUMPDEST CALLVALUE DUP1 ISZERO PUSH2 0x178 JUMPI PUSH1 0x0 DUP1 REVERT JUMPDEST POP PUSH2 0x193 PUSH1 0x4 DUP1 CALLDATASIZE SUB DUP2 ADD SWAP1 PUSH2 0x18E SWAP2 SWAP1 PUSH2 0xA2D JUMP JUMPDEST PUSH2 0x694 JUMP JUMPDEST PUSH1 0x40 MLOAD PUSH2 0x1A0 SWAP2 SWAP1 PUSH2 0xA9F JUMP JUMPDEST PUSH1 0x40 MLOAD DUP1 SWAP2 SUB SWAP1 RETURN JUMPDEST CALLVALUE DUP1 ISZERO PUSH2 0x1B5 JUMPI PUSH1 0x0 DUP1 REVERT JUMPDEST POP PUSH2 0x1D0 PUSH1 0x4 DUP1 CALLDATASIZE SUB DUP2 ADD SWAP1 PUSH2 0x1CB SWAP2 SWAP1 PUSH2 0xA2D JUMP JUMPDEST PUSH2 0x6B8 JUMP JUMPDEST STOP JUMPDEST CALLVALUE DUP1 ISZERO PUSH2 0x1DE JUMPI PUSH1 0x0 DUP1 REVERT JUMPDEST POP PUSH2 0x1F9 PUSH1 0x4 DUP1 CALLDATASIZE SUB DUP2 ADD SWAP1 PUSH2 0x1F4 SWAP2 SWAP1 PUSH2 0xA2D JUMP JUMPDEST PUSH2 0x98F JUMP JUMPDEST PUSH1 0x40 MLOAD PUSH2 0x20A SWAP6 SWAP5 SWAP4 SWAP3 SWAP2 SWAP1 PUSH2 0xB82 JUMP JUMPDEST PUSH1 0x40 MLOAD DUP1 SWAP2 SUB SWAP1 RETURN JUMPDEST PUSH1 0x0 DUP1 PUSH1 0x3 PUSH1 0x0 DUP5 DUP2 MSTORE PUSH1 0x20 ADD SWAP1 DUP2 MSTORE PUSH1 0x20 ADD PUSH1 0x0 KECCAK256 PUSH1 0x0 CALLER PUSH20 0xFFFFFFFFFFFFFFFFFFFFFFFFFFFFFFFFFFFFFFFF AND PUSH20 0xFFFFFFFFFFFFFFFFFFFFFFFFFFFFFFFFFFFFFFFF AND DUP2 MSTORE PUSH1 0x20 ADD SWAP1 DUP2 MSTORE PUSH1 0x20 ADD PUSH1 0x0 KECCAK256 SLOAD SWAP1 POP PUSH1 0x0 DUP2 GT ISZERO PUSH2 0x361 JUMPI PUSH1 0x0 PUSH1 0x3 PUSH1 0x0 DUP6 DUP2 MSTORE PUSH1 0x20 ADD SWAP1 DUP2 MSTORE PUSH1 0x20 ADD PUSH1 0x0 KECCAK256 PUSH1 0x0 CALLER PUSH20 0xFFFFFFFFFFFFFFFFFFFFFFFFFFFFFFFFFFFFFFFF AND PUSH20 0xFFFFFFFFFFFFFFFFFFFFFFFFFFFFFFFFFFFFFFFF AND DUP2 MSTORE PUSH1 0x20 ADD SWAP1 DUP2 MSTORE PUSH1 0x20 ADD PUSH1 0x0 KECCAK256 DUP2 SWAP1 SSTORE POP CALLER PUSH20 0xFFFFFFFFFFFFFFFFFFFFFFFFFFFFFFFFFFFFFFFF AND PUSH2 0x8FC DUP3 SWAP1 DUP2 ISZERO MUL SWAP1 PUSH1 0x40 MLOAD PUSH1 0x0 PUSH1 0x40 MLOAD DUP1 DUP4 SUB DUP2 DUP6 DUP9 DUP9 CALL SWAP4 POP POP POP POP PUSH2 0x360 JUMPI DUP1 PUSH1 0x3 PUSH1 0x0 DUP6 DUP2 MSTORE PUSH1 0x20 ADD SWAP1 DUP2 MSTORE PUSH1 0x20 ADD PUSH1 0x0 KECCAK256 PUSH1 0x0 CALLER PUSH20 0xFFFFFFFFFFFFFFFFFFFFFFFFFFFFFFFFFFFFFFFF AND PUSH20 0xFFFFFFFFFFFFFFFFFFFFFFFFFFFFFFFFFFFFFFFF AND DUP2 MSTORE PUSH1 0x20 ADD SWAP1 DUP2 MSTORE PUSH1 0x20 ADD PUSH1 0x0 KECCAK256 DUP2 SWAP1 SSTORE POP PUSH1 0x0 SWAP2 POP POP PUSH2 0x367 JUMP JUMPDEST JUMPDEST PUSH1 0x1 SWAP2 POP POP JUMPDEST SWAP2 SWAP1 POP JUMP JUMPDEST PUSH1 0x2 PUSH1 0x0 DUP3 DUP2 MSTORE PUSH1 0x20 ADD SWAP1 DUP2 MSTORE PUSH1 0x20 ADD PUSH1 0x0 KECCAK256 PUSH1 0x3 ADD PUSH1 0x14 SWAP1 SLOAD SWAP1 PUSH2 0x100 EXP SWAP1 DIV PUSH1 0xFF AND PUSH2 0x3CF JUMPI PUSH1 0x40 MLOAD PUSH32 0x8C379A000000000000000000000000000000000000000000000000000000000 DUP2 MSTORE PUSH1 0x4 ADD PUSH2 0x3C6 SWAP1 PUSH2 0xC58 JUMP JUMPDEST PUSH1 0x40 MLOAD DUP1 SWAP2 SUB SWAP1 REVERT JUMPDEST PUSH1 0x1 SLOAD TIMESTAMP GT ISZERO PUSH2 0x414 JUMPI PUSH1 0x40 MLOAD PUSH32 0x8C379A000000000000000000000000000000000000000000000000000000000 DUP2 MSTORE PUSH1 0x4 ADD PUSH2 0x40B SWAP1 PUSH2 0xCC4 JUMP JUMPDEST PUSH1 0x40 MLOAD DUP1 SWAP2 SUB SWAP1 REVERT JUMPDEST PUSH1 0x2 PUSH1 0x0 DUP3 DUP2 MSTORE PUSH1 0x20 ADD SWAP1 DUP2 MSTORE PUSH1 0x20 ADD PUSH1 0x0 KECCAK256 PUSH1 0x1 ADD SLOAD CALLVALUE LT ISZERO PUSH2 0x46D JUMPI PUSH1 0x40 MLOAD PUSH32 0x8C379A000000000000000000000000000000000000000000000000000000000 DUP2 MSTORE PUSH1 0x4 ADD PUSH2 0x464 SWAP1 PUSH2 0xD56 JUMP JUMPDEST PUSH1 0x40 MLOAD DUP1 SWAP2 SUB SWAP1 REVERT JUMPDEST PUSH1 0x2 PUSH1 0x0 DUP3 DUP2 MSTORE PUSH1 0x20 ADD SWAP1 DUP2 MSTORE PUSH1 0x20 ADD PUSH1 0x0 KECCAK256 PUSH1 0x2 ADD SLOAD CALLVALUE GT PUSH2 0x4C5 JUMPI PUSH1 0x40 MLOAD PUSH32 0x8C379A000000000000000000000000000000000000000000000000000000000 DUP2 MSTORE PUSH1 0x4 ADD PUSH2 0x4BC SWAP1 PUSH2 0xDC2 JUMP JUMPDEST PUSH1 0x40 MLOAD DUP1 SWAP2 SUB SWAP1 REVERT JUMPDEST PUSH1 0x0 PUSH1 0x2 PUSH1 0x0 DUP4 DUP2 MSTORE PUSH1 0x20 ADD SWAP1 DUP2 MSTORE PUSH1 0x20 ADD PUSH1 0x0 KECCAK256 PUSH1 0x2 ADD SLOAD EQ PUSH2 0x597 JUMPI PUSH1 0x2 PUSH1 0x0 DUP3 DUP2 MSTORE PUSH1 0x20 ADD SWAP1 DUP2 MSTORE PUSH1 0x20 ADD PUSH1 0x0 KECCAK256 PUSH1 0x2 ADD SLOAD PUSH1 0x3 PUSH1 0x0 DUP4 DUP2 MSTORE PUSH1 0x20 ADD SWAP1 DUP2 MSTORE PUSH1 0x20 ADD PUSH1 0x0 KECCAK256 PUSH1 0x0 PUSH1 0x2 PUSH1 0x0 DUP6 DUP2 MSTORE PUSH1 0x20 ADD SWAP1 DUP2 MSTORE PUSH1 0x20 ADD PUSH1 0x0 KECCAK256 PUSH1 0x3 ADD PUSH1 0x0 SWAP1 SLOAD SWAP1 PUSH2 0x100 EXP SWAP1 DIV PUSH20 0xFFFFFFFFFFFFFFFFFFFFFFFFFFFFFFFFFFFFFFFF AND PUSH20 0xFFFFFFFFFFFFFFFFFFFFFFFFFFFFFFFFFFFFFFFF AND PUSH20 0xFFFFFFFFFFFFFFFFFFFFFFFFFFFFFFFFFFFFFFFF AND DUP2 MSTORE PUSH1 0x20 ADD SWAP1 DUP2 MSTORE PUSH1 0x20 ADD PUSH1 0x0 KECCAK256 PUSH1 0x0 DUP3 DUP3 SLOAD PUSH2 0x58F SWAP2 SWAP1 PUSH2 0xE11 JUMP JUMPDEST SWAP3 POP POP DUP2 SWAP1 SSTORE POP JUMPDEST CALLER PUSH1 0x2 PUSH1 0x0 DUP4 DUP2 MSTORE PUSH1 0x20 ADD SWAP1 DUP2 MSTORE PUSH1 0x20 ADD PUSH1 0x0 KECCAK256 PUSH1 0x3 ADD PUSH1 0x0 PUSH2 0x100 EXP DUP2 SLOAD DUP2 PUSH20 0xFFFFFFFFFFFFFFFFFFFFFFFFFFFFFFFFFFFFFFFF MUL NOT AND SWAP1 DUP4 PUSH20 0xFFFFFFFFFFFFFFFFFFFFFFFFFFFFFFFFFFFFFFFF AND MUL OR SWAP1 SSTORE POP CALLVALUE PUSH1 0x2 PUSH1 0x0 DUP4 DUP2 MSTORE PUSH1 0x20 ADD SWAP1 DUP2 MSTORE PUSH1 0x20 ADD PUSH1 0x0 KECCAK256 PUSH1 0x2 ADD DUP2 SWAP1 SSTORE POP PUSH32 0xDA0A18DA71D8EBD145966339A728FC0D8CCC07C22870D561890D823C515DDA6B DUP2 CALLER CALLVALUE PUSH1 0x40 MLOAD PUSH2 0x63A SWAP4 SWAP3 SWAP2 SWAP1 PUSH2 0xE45 JUMP JUMPDEST PUSH1 0x40 MLOAD DUP1 SWAP2 SUB SWAP1 LOG1 POP JUMP JUMPDEST PUSH1 0x1 SLOAD DUP2 JUMP JUMPDEST PUSH1 0x0 DUP1 SLOAD SWAP1 PUSH2 0x100 EXP SWAP1 DIV PUSH20 0xFFFFFFFFFFFFFFFFFFFFFFFFFFFFFFFFFFFFFFFF AND DUP2 JUMP JUMPDEST PUSH1 0x3 PUSH1 0x20 MSTORE DUP2 PUSH1 0x0 MSTORE PUSH1 0x40 PUSH1 0x0 KECCAK256 PUSH1 0x20 MSTORE DUP1 PUSH1 0x0 MSTORE PUSH1 0x40 PUSH1 0x0 KECCAK256 PUSH1 0x0 SWAP2 POP SWAP2 POP POP SLOAD DUP2 JUMP JUMPDEST PUSH1 0x4 DUP2 DUP2 SLOAD DUP2 LT PUSH2 0x6A4 JUMPI PUSH1 0x0 DUP1 REVERT JUMPDEST SWAP1 PUSH1 0x0 MSTORE PUSH1 0x20 PUSH1 0x0 KECCAK256 ADD PUSH1 0x0 SWAP2 POP SWAP1 POP SLOAD DUP2 JUMP JUMPDEST PUSH1 0x0 DUP1 SLOAD SWAP1 PUSH2 0x100 EXP SWAP1 DIV PUSH20 0xFFFFFFFFFFFFFFFFFFFFFFFFFFFFFFFFFFFFFFFF AND PUSH20 0xFFFFFFFFFFFFFFFFFFFFFFFFFFFFFFFFFFFFFFFF AND CALLER PUSH20 0xFFFFFFFFFFFFFFFFFFFFFFFFFFFFFFFFFFFFFFFF AND EQ PUSH2 0x746 JUMPI PUSH1 0x40 MLOAD PUSH32 0x8C379A000000000000000000000000000000000000000000000000000000000 DUP2 MSTORE PUSH1 0x4 ADD PUSH2 0x73D SWAP1 PUSH2 0xEEE JUMP JUMPDEST PUSH1 0x40 MLOAD DUP1 SWAP2 SUB SWAP1 REVERT JUMPDEST PUSH1 0x1 SLOAD TIMESTAMP LT ISZERO PUSH2 0x78B JUMPI PUSH1 0x40 MLOAD PUSH32 0x8C379A000000000000000000000000000000000000000000000000000000000 DUP2 MSTORE PUSH1 0x4 ADD PUSH2 0x782 SWAP1 PUSH2 0xF5A JUMP JUMPDEST PUSH1 0x40 MLOAD DUP1 SWAP2 SUB SWAP1 REVERT JUMPDEST PUSH1 0x2 PUSH1 0x0 DUP3 DUP2 MSTORE PUSH1 0x20 ADD SWAP1 DUP2 MSTORE PUSH1 0x20 ADD PUSH1 0x0 KECCAK256 PUSH1 0x3 ADD PUSH1 0x14 SWAP1 SLOAD SWAP1 PUSH2 0x100 EXP SWAP1 DIV PUSH1 0xFF AND PUSH2 0x7EE JUMPI PUSH1 0x40 MLOAD PUSH32 0x8C379A000000000000000000000000000000000000000000000000000000000 DUP2 MSTORE PUSH1 0x4 ADD PUSH2 0x7E5 SWAP1 PUSH2 0xC58 JUMP JUMPDEST PUSH1 0x40 MLOAD DUP1 SWAP2 SUB SWAP1 REVERT JUMPDEST PUSH1 0x0 PUSH1 0x2 PUSH1 0x0 DUP4 DUP2 MSTORE PUSH1 0x20 ADD SWAP1 DUP2 MSTORE PUSH1 0x20 ADD PUSH1 0x0 KECCAK256 PUSH1 0x3 ADD PUSH1 0x14 PUSH2 0x100 EXP DUP2 SLOAD DUP2 PUSH1 0xFF MUL NOT AND SWAP1 DUP4 ISZERO ISZERO MUL OR SWAP1 SSTORE POP PUSH32 0xD2AA34A4FDBBC6DFF6A3E56F46E0F3AE2A31D7785FF3487AA5C95C642ACEA501 DUP2 PUSH1 0x2 PUSH1 0x0 DUP5 DUP2 MSTORE PUSH1 0x20 ADD SWAP1 DUP2 MSTORE PUSH1 0x20 ADD PUSH1 0x0 KECCAK256 PUSH1 0x3 ADD PUSH1 0x0 SWAP1 SLOAD SWAP1 PUSH2 0x100 EXP SWAP1 DIV PUSH20 0xFFFFFFFFFFFFFFFFFFFFFFFFFFFFFFFFFFFFFFFF AND PUSH1 0x2 PUSH1 0x0 DUP6 DUP2 MSTORE PUSH1 0x20 ADD SWAP1 DUP2 MSTORE PUSH1 0x20 ADD PUSH1 0x0 KECCAK256 PUSH1 0x2 ADD SLOAD PUSH1 0x40 MLOAD PUSH2 0x89C SWAP4 SWAP3 SWAP2 SWAP1 PUSH2 0xE45 JUMP JUMPDEST PUSH1 0x40 MLOAD DUP1 SWAP2 SUB SWAP1 LOG1 PUSH1 0x0 PUSH20 0xFFFFFFFFFFFFFFFFFFFFFFFFFFFFFFFFFFFFFFFF AND PUSH1 0x2 PUSH1 0x0 DUP4 DUP2 MSTORE PUSH1 0x20 ADD SWAP1 DUP2 MSTORE PUSH1 0x20 ADD PUSH1 0x0 KECCAK256 PUSH1 0x3 ADD PUSH1 0x0 SWAP1 SLOAD SWAP1 PUSH2 0x100 EXP SWAP1 DIV PUSH20 0xFFFFFFFFFFFFFFFFFFFFFFFFFFFFFFFFFFFFFFFF AND PUSH20 0xFFFFFFFFFFFFFFFFFFFFFFFFFFFFFFFFFFFFFFFF AND EQ PUSH2 0x98C JUMPI PUSH1 0x0 DUP1 SLOAD SWAP1 PUSH2 0x100 EXP SWAP1 DIV PUSH20 0xFFFFFFFFFFFFFFFFFFFFFFFFFFFFFFFFFFFFFFFF AND PUSH20 0xFFFFFFFFFFFFFFFFFFFFFFFFFFFFFFFFFFFFFFFF AND PUSH2 0x8FC PUSH1 0x2 PUSH1 0x0 DUP5 DUP2 MSTORE PUSH1 0x20 ADD SWAP1 DUP2 MSTORE PUSH1 0x20 ADD PUSH1 0x0 KECCAK256 PUSH1 0x2 ADD SLOAD SWAP1 DUP2 ISZERO MUL SWAP1 PUSH1 0x40 MLOAD PUSH1 0x0 PUSH1 0x40 MLOAD DUP1 DUP4 SUB DUP2 DUP6 DUP9 DUP9 CALL SWAP4 POP POP POP POP ISZERO DUP1 ISZERO PUSH2 0x98A JUMPI RETURNDATASIZE PUSH1 0x0 DUP1 RETURNDATACOPY RETURNDATASIZE PUSH1 0x0 REVERT JUMPDEST POP JUMPDEST POP JUMP JUMPDEST PUSH1 0x2 PUSH1 0x20 MSTORE DUP1 PUSH1 0x0 MSTORE PUSH1 0x40 PUSH1 0x0 KECCAK256 PUSH1 0x0 SWAP2 POP SWAP1 POP DUP1 PUSH1 0x0 ADD SLOAD SWAP1 DUP1 PUSH1 0x1 ADD SLOAD SWAP1 DUP1 PUSH1 0x2 ADD SLOAD SWAP1 DUP1 PUSH1 0x3 ADD PUSH1 0x0 SWAP1 SLOAD SWAP1 PUSH2 0x100 EXP SWAP1 DIV PUSH20 0xFFFFFFFFFFFFFFFFFFFFFFFFFFFFFFFFFFFFFFFF AND SWAP1 DUP1 PUSH1 0x3 ADD PUSH1 0x14 SWAP1 SLOAD SWAP1 PUSH2 0x100 EXP SWAP1 DIV PUSH1 0xFF AND SWAP1 POP DUP6 JUMP JUMPDEST PUSH1 0x0 DUP1 REVERT JUMPDEST PUSH1 0x0 DUP2 SWAP1 POP SWAP2 SWAP1 POP JUMP JUMPDEST PUSH2 0xA0A DUP2 PUSH2 0x9F7 JUMP JUMPDEST DUP2 EQ PUSH2 0xA15 JUMPI PUSH1 0x0 DUP1 REVERT JUMPDEST POP JUMP JUMPDEST PUSH1 0x0 DUP2 CALLDATALOAD SWAP1 POP PUSH2 0xA27 DUP2 PUSH2 0xA01 JUMP JUMPDEST SWAP3 SWAP2 POP POP JUMP JUMPDEST PUSH1 0x0 PUSH1 0x20 DUP3 DUP5 SUB SLT ISZERO PUSH2 0xA43 JUMPI PUSH2 0xA42 PUSH2 0x9F2 JUMP JUMPDEST JUMPDEST PUSH1 0x0 PUSH2 0xA51 DUP5 DUP3 DUP6 ADD PUSH2 0xA18 JUMP JUMPDEST SWAP2 POP POP SWAP3 SWAP2 POP POP JUMP JUMPDEST PUSH1 0x0 DUP2 ISZERO ISZERO SWAP1 POP SWAP2 SWAP1 POP JUMP JUMPDEST PUSH2 0xA6F DUP2 PUSH2 0xA5A JUMP JUMPDEST DUP3 MSTORE POP POP JUMP JUMPDEST PUSH1 0x0 PUSH1 0x20 DUP3 ADD SWAP1 POP PUSH2 0xA8A PUSH1 0x0 DUP4 ADD DUP5 PUSH2 0xA66 JUMP JUMPDEST SWAP3 SWAP2 POP POP JUMP JUMPDEST PUSH2 0xA99 DUP2 PUSH2 0x9F7 JUMP JUMPDEST DUP3 MSTORE POP POP JUMP JUMPDEST PUSH1 0x0 PUSH1 0x20 DUP3 ADD SWAP1 POP PUSH2 0xAB4 PUSH1 0x0 DUP4 ADD DUP5 PUSH2 0xA90 JUMP JUMPDEST SWAP3 SWAP2 POP POP JUMP JUMPDEST PUSH1 0x0 PUSH20 0xFFFFFFFFFFFFFFFFFFFFFFFFFFFFFFFFFFFFFFFF DUP3 AND SWAP1 POP SWAP2 SWAP1 POP JUMP JUMPDEST PUSH1 0x0 PUSH2 0xAE5 DUP3 PUSH2 0xABA JUMP JUMPDEST SWAP1 POP SWAP2 SWAP1 POP JUMP JUMPDEST PUSH2 0xAF5 DUP2 PUSH2 0xADA JUMP JUMPDEST DUP3 MSTORE POP POP JUMP JUMPDEST PUSH1 0x0 PUSH1 0x20 DUP3 ADD SWAP1 POP PUSH2 0xB10 PUSH1 0x0 DUP4 ADD DUP5 PUSH2 0xAEC JUMP JUMPDEST SWAP3 SWAP2 POP POP JUMP JUMPDEST PUSH2 0xB1F DUP2 PUSH2 0xADA JUMP JUMPDEST DUP2 EQ PUSH2 0xB2A JUMPI PUSH1 0x0 DUP1 REVERT JUMPDEST POP JUMP JUMPDEST PUSH1 0x0 DUP2 CALLDATALOAD SWAP1 POP PUSH2 0xB3C DUP2 PUSH2 0xB16 JUMP JUMPDEST SWAP3 SWAP2 POP POP JUMP JUMPDEST PUSH1 0x0 DUP1 PUSH1 0x40 DUP4 DUP6 SUB SLT ISZERO PUSH2 0xB59 JUMPI PUSH2 0xB58 PUSH2 0x9F2 JUMP JUMPDEST JUMPDEST PUSH1 0x0 PUSH2 0xB67 DUP6 DUP3 DUP7 ADD PUSH2 0xA18 JUMP JUMPDEST SWAP3 POP POP PUSH1 0x20 PUSH2 0xB78 DUP6 DUP3 DUP7 ADD PUSH2 0xB2D JUMP JUMPDEST SWAP2 POP POP SWAP3 POP SWAP3 SWAP1 POP JUMP JUMPDEST PUSH1 0x0 PUSH1 0xA0 DUP3 ADD SWAP1 POP PUSH2 0xB97 PUSH1 0x0 DUP4 ADD DUP9 PUSH2 0xA90 JUMP JUMPDEST PUSH2 0xBA4 PUSH1 0x20 DUP4 ADD DUP8 PUSH2 0xA90 JUMP JUMPDEST PUSH2 0xBB1 PUSH1 0x40 DUP4 ADD DUP7 PUSH2 0xA90 JUMP JUMPDEST PUSH2 0xBBE PUSH1 0x60 DUP4 ADD DUP6 PUSH2 0xAEC JUMP JUMPDEST PUSH2 0xBCB PUSH1 0x80 DUP4 ADD DUP5 PUSH2 0xA66 JUMP JUMPDEST SWAP7 SWAP6 POP POP POP POP POP POP JUMP JUMPDEST PUSH1 0x0 DUP3 DUP3 MSTORE PUSH1 0x20 DUP3 ADD SWAP1 POP SWAP3 SWAP2 POP POP JUMP JUMPDEST PUSH32 0x4974656D20646F6573206E6F74206578697374206F72206973206E6F74206163 PUSH1 0x0 DUP3 ADD MSTORE PUSH32 0x746976652E000000000000000000000000000000000000000000000000000000 PUSH1 0x20 DUP3 ADD MSTORE POP JUMP JUMPDEST PUSH1 0x0 PUSH2 0xC42 PUSH1 0x25 DUP4 PUSH2 0xBD5 JUMP JUMPDEST SWAP2 POP PUSH2 0xC4D DUP3 PUSH2 0xBE6 JUMP JUMPDEST PUSH1 0x40 DUP3 ADD SWAP1 POP SWAP2 SWAP1 POP JUMP JUMPDEST PUSH1 0x0 PUSH1 0x20 DUP3 ADD SWAP1 POP DUP2 DUP2 SUB PUSH1 0x0 DUP4 ADD MSTORE PUSH2 0xC71 DUP2 PUSH2 0xC35 JUMP JUMPDEST SWAP1 POP SWAP2 SWAP1 POP JUMP JUMPDEST PUSH32 0x41756374696F6E20616C726561647920656E6465642E00000000000000000000 PUSH1 0x0 DUP3 ADD MSTORE POP JUMP JUMPDEST PUSH1 0x0 PUSH2 0xCAE PUSH1 0x16 DUP4 PUSH2 0xBD5 JUMP JUMPDEST SWAP2 POP PUSH2 0xCB9 DUP3 PUSH2 0xC78 JUMP JUMPDEST PUSH1 0x20 DUP3 ADD SWAP1 POP SWAP2 SWAP1 POP JUMP JUMPDEST PUSH1 0x0 PUSH1 0x20 DUP3 ADD SWAP1 POP DUP2 DUP2 SUB PUSH1 0x0 DUP4 ADD MSTORE PUSH2 0xCDD DUP2 PUSH2 0xCA1 JUMP JUMPDEST SWAP1 POP SWAP2 SWAP1 POP JUMP JUMPDEST PUSH32 0x426964206D75737420626520657175616C206F7220686967686572207468616E PUSH1 0x0 DUP3 ADD MSTORE PUSH32 0x20746865206974656D2773207374617274696E67206269642E00000000000000 PUSH1 0x20 DUP3 ADD MSTORE POP JUMP JUMPDEST PUSH1 0x0 PUSH2 0xD40 PUSH1 0x39 DUP4 PUSH2 0xBD5 JUMP JUMPDEST SWAP2 POP PUSH2 0xD4B DUP3 PUSH2 0xCE4 JUMP JUMPDEST PUSH1 0x40 DUP3 ADD SWAP1 POP SWAP2 SWAP1 POP JUMP JUMPDEST PUSH1 0x0 PUSH1 0x20 DUP3 ADD SWAP1 POP DUP2 DUP2 SUB PUSH1 0x0 DUP4 ADD MSTORE PUSH2 0xD6F DUP2 PUSH2 0xD33 JUMP JUMPDEST SWAP1 POP SWAP2 SWAP1 POP JUMP JUMPDEST PUSH32 0x546865726520616C7265616479206973206120686967686572206269642E0000 PUSH1 0x0 DUP3 ADD MSTORE POP JUMP JUMPDEST PUSH1 0x0 PUSH2 0xDAC PUSH1 0x1E DUP4 PUSH2 0xBD5 JUMP JUMPDEST SWAP2 POP PUSH2 0xDB7 DUP3 PUSH2 0xD76 JUMP JUMPDEST PUSH1 0x20 DUP3 ADD SWAP1 POP SWAP2 SWAP1 POP JUMP JUMPDEST PUSH1 0x0 PUSH1 0x20 DUP3 ADD SWAP1 POP DUP2 DUP2 SUB PUSH1 0x0 DUP4 ADD MSTORE PUSH2 0xDDB DUP2 PUSH2 0xD9F JUMP JUMPDEST SWAP1 POP SWAP2 SWAP1 POP JUMP JUMPDEST PUSH32 0x4E487B7100000000000000000000000000000000000000000000000000000000 PUSH1 0x0 MSTORE PUSH1 0x11 PUSH1 0x4 MSTORE PUSH1 0x24 PUSH1 0x0 REVERT JUMPDEST PUSH1 0x0 PUSH2 0xE1C DUP3 PUSH2 0x9F7 JUMP JUMPDEST SWAP2 POP PUSH2 0xE27 DUP4 PUSH2 0x9F7 JUMP JUMPDEST SWAP3 POP DUP3 DUP3 ADD SWAP1 POP DUP1 DUP3 GT ISZERO PUSH2 0xE3F JUMPI PUSH2 0xE3E PUSH2 0xDE2 JUMP JUMPDEST JUMPDEST SWAP3 SWAP2 POP POP JUMP JUMPDEST PUSH1 0x0 PUSH1 0x60 DUP3 ADD SWAP1 POP PUSH2 0xE5A PUSH1 0x0 DUP4 ADD DUP7 PUSH2 0xA90 JUMP JUMPDEST PUSH2 0xE67 PUSH1 0x20 DUP4 ADD DUP6 PUSH2 0xAEC JUMP JUMPDEST PUSH2 0xE74 PUSH1 0x40 DUP4 ADD DUP5 PUSH2 0xA90 JUMP JUMPDEST SWAP5 SWAP4 POP POP POP POP JUMP JUMPDEST PUSH32 0x4F6E6C79207468652061756374696F6E6565722063616E20656E642074686520 PUSH1 0x0 DUP3 ADD MSTORE PUSH32 0x61756374696F6E2E000000000000000000000000000000000000000000000000 PUSH1 0x20 DUP3 ADD MSTORE POP JUMP JUMPDEST PUSH1 0x0 PUSH2 0xED8 PUSH1 0x28 DUP4 PUSH2 0xBD5 JUMP JUMPDEST SWAP2 POP PUSH2 0xEE3 DUP3 PUSH2 0xE7C JUMP JUMPDEST PUSH1 0x40 DUP3 ADD SWAP1 POP SWAP2 SWAP1 POP JUMP JUMPDEST PUSH1 0x0 PUSH1 0x20 DUP3 ADD SWAP1 POP DUP2 DUP2 SUB PUSH1 0x0 DUP4 ADD MSTORE PUSH2 0xF07 DUP2 PUSH2 0xECB JUMP JUMPDEST SWAP1 POP SWAP2 SWAP1 POP JUMP JUMPDEST PUSH32 0x41756374696F6E206E6F742079657420656E6465642E00000000000000000000 PUSH1 0x0 DUP3 ADD MSTORE POP JUMP JUMPDEST PUSH1 0x0 PUSH2 0xF44 PUSH1 0x16 DUP4 PUSH2 0xBD5 JUMP JUMPDEST SWAP2 POP PUSH2 0xF4F DUP3 PUSH2 0xF0E JUMP JUMPDEST PUSH1 0x20 DUP3 ADD SWAP1 POP SWAP2 SWAP1 POP JUMP JUMPDEST PUSH1 0x0 PUSH1 0x20 DUP3 ADD SWAP1 POP DUP2 DUP2 SUB PUSH1 0x0 DUP4 ADD MSTORE PUSH2 0xF73 DUP2 PUSH2 0xF37 JUMP JUMPDEST SWAP1 POP SWAP2 SWAP1 POP JUMP INVALID LOG2 PUSH5 0x6970667358 0x22 SLT KECCAK256 PC 0xD8 DUP9 0xD3 0x23 0xDE PUSH7 0xF86635CF1B8336 EXTCODEHASH 0xBF PUSH12 0x7A39F5BA4F62E99F355EBB3E SMOD 0xC5 0x2A PUSH5 0x736F6C6343 STOP ADDMOD GT STOP CALLER "
				},
				"gasEstimates": {
					"creation": {
						"codeDepositCost": "803200",
						"executionCost": "infinite",
						"totalCost": "infinite"
					},
					"external": {
						"auctionEndTime()": "2474",
						"auctioneer()": "2578",
						"bid(uint256)": "infinite",
						"endAuction(uint256)": "infinite",
						"itemIds(uint256)": "infinite",
						"items(uint256)": "infinite",
						"pendingReturns(uint256,address)": "infinite",
						"withdraw(uint256)": "infinite"
					}
				},
				"methodIdentifiers": {
					"auctionEndTime()": "4b449cba",
					"auctioneer()": "5ec2c7bf",
					"bid(uint256)": "454a2ab3",
					"endAuction(uint256)": "b9a2de3a",
					"itemIds(uint256)": "b3dc00fe",
					"items(uint256)": "bfb231d2",
					"pendingReturns(uint256,address)": "8ddac1ef",
					"withdraw(uint256)": "2e1a7d4d"
				}
			},
			"storageLayout": {
				"storage": [
					{
						"astId": 15,
						"contract": "contracts/5_MultiItemAuction.sol:MultiItemAuction",
						"label": "auctioneer",
						"offset": 0,
						"slot": "0",
						"type": "t_address"
					},
					{
						"astId": 17,
						"contract": "contracts/5_MultiItemAuction.sol:MultiItemAuction",
						"label": "auctionEndTime",
						"offset": 0,
						"slot": "1",
						"type": "t_uint256"
					},
					{
						"astId": 22,
						"contract": "contracts/5_MultiItemAuction.sol:MultiItemAuction",
						"label": "items",
						"offset": 0,
						"slot": "2",
						"type": "t_mapping(t_uint256,t_struct(Item)13_storage)"
					},
					{
						"astId": 28,
						"contract": "contracts/5_MultiItemAuction.sol:MultiItemAuction",
						"label": "pendingReturns",
						"offset": 0,
						"slot": "3",
						"type": "t_mapping(t_uint256,t_mapping(t_address,t_uint256))"
					},
					{
						"astId": 31,
						"contract": "contracts/5_MultiItemAuction.sol:MultiItemAuction",
						"label": "itemIds",
						"offset": 0,
						"slot": "4",
						"type": "t_array(t_uint256)dyn_storage"
					}
				],
				"types": {
					"t_address": {
						"encoding": "inplace",
						"label": "address",
						"numberOfBytes": "20"
					},
					"t_array(t_uint256)dyn_storage": {
						"base": "t_uint256",
						"encoding": "dynamic_array",
						"label": "uint256[]",
						"numberOfBytes": "32"
					},
					"t_bool": {
						"encoding": "inplace",
						"label": "bool",
						"numberOfBytes": "1"
					},
					"t_mapping(t_address,t_uint256)": {
						"encoding": "mapping",
						"key": "t_address",
						"label": "mapping(address => uint256)",
						"numberOfBytes": "32",
						"value": "t_uint256"
					},
					"t_mapping(t_uint256,t_mapping(t_address,t_uint256))": {
						"encoding": "mapping",
						"key": "t_uint256",
						"label": "mapping(uint256 => mapping(address => uint256))",
						"numberOfBytes": "32",
						"value": "t_mapping(t_address,t_uint256)"
					},
					"t_mapping(t_uint256,t_struct(Item)13_storage)": {
						"encoding": "mapping",
						"key": "t_uint256",
						"label": "mapping(uint256 => struct MultiItemAuction.Item)",
						"numberOfBytes": "32",
						"value": "t_struct(Item)13_storage"
					},
					"t_struct(Item)13_storage": {
						"encoding": "inplace",
						"label": "struct MultiItemAuction.Item",
						"members": [
							{
								"astId": 4,
								"contract": "contracts/5_MultiItemAuction.sol:MultiItemAuction",
								"label": "itemId",
								"offset": 0,
								"slot": "0",
								"type": "t_uint256"
							},
							{
								"astId": 6,
								"contract": "contracts/5_MultiItemAuction.sol:MultiItemAuction",
								"label": "startingBid",
								"offset": 0,
								"slot": "1",
								"type": "t_uint256"
							},
							{
								"astId": 8,
								"contract": "contracts/5_MultiItemAuction.sol:MultiItemAuction",
								"label": "highestBid",
								"offset": 0,
								"slot": "2",
								"type": "t_uint256"
							},
							{
								"astId": 10,
								"contract": "contracts/5_MultiItemAuction.sol:MultiItemAuction",
								"label": "highestBidder",
								"offset": 0,
								"slot": "3",
								"type": "t_address"
							},
							{
								"astId": 12,
								"contract": "contracts/5_MultiItemAuction.sol:MultiItemAuction",
								"label": "active",
								"offset": 20,
								"slot": "3",
								"type": "t_bool"
							}
						],
						"numberOfBytes": "128"
					},
					"t_uint256": {
						"encoding": "inplace",
						"label": "uint256",
						"numberOfBytes": "32"
					}
				}
			},
			"userdoc": {
				"kind": "user",
				"methods": {},
				"version": 1
			}
		}
	}
}