{
	"data": {
		"bytecode": {
			"linkReferences": {
				"remix_tests.sol": {
					"Assert": [
						{
							"length": 20,
							"start": 755
						},
						{
							"length": 20,
							"start": 2228
						},
						{
							"length": 20,
							"start": 2357
						},
						{
							"length": 20,
							"start": 2487
						},
						{
							"length": 20,
							"start": 2628
						},
						{
							"length": 20,
							"start": 3180
						},
						{
							"length": 20,
							"start": 3359
						}
					]
				}
			},
			"object": "60806040523480156200001157600080fd5b506040516200420b3803806200420b83398181016040528101906200003791906200040d565b620000836040518060400160405280600281526020017f613a000000000000000000000000000000000000000000000000000000000000815250826200009b60201b620006071760201c565b62000094816200014160201b60201c565b5062000789565b6200013d8282604051602401620000b4929190620004ea565b6040516020818303038152906040527fb60e72cc000000000000000000000000000000000000000000000000000000007bffffffffffffffffffffffffffffffffffffffffffffffffffffffff19166020820180517bffffffffffffffffffffffffffffffffffffffffffffffffffffffff83818316178352505050506200039660201b60201c565b5050565b60006001905060606001816000815181106200016257620001616200051e565b5b6020026020010181815250506003816001815181106200018757620001866200051e565b5b602002602001018181525050600481600281518110620001ac57620001ab6200051e565b5b6020026020010181815250506060600a81600081518110620001d357620001d26200051e565b5b602002602001018181525050601481600181518110620001f857620001f76200051e565b5b602002602001018181525050601e816002815181106200021d576200021c6200051e565b5b602002602001018181525050620002756040518060400160405280600281526020017f613a000000000000000000000000000000000000000000000000000000000000815250856200009b60201b620006071760201c565b8282826040516200028690620003bf565b62000294939291906200061b565b604051809103906000f080158015620002b1573d6000803e3d6000fd5b506000806101000a81548173ffffffffffffffffffffffffffffffffffffffff021916908373ffffffffffffffffffffffffffffffffffffffff16021790555073__$acbfb1c35000d78352310b16a054a6b106$__63abcd79606001846000815181106200032457620003236200051e565b5b60200260200101516040518363ffffffff1660e01b81526004016200034b929190620006d8565b602060405180830381865af415801562000369573d6000803e3d6000fd5b505050506040513d601f19601f820116820180604052508101906200038f919062000757565b5050505050565b60008151905060006a636f6e736f6c652e6c6f679050602083016000808483855afa5050505050565b6116268062002be583390190565b600080fd5b6000819050919050565b620003e781620003d2565b8114620003f357600080fd5b50565b6000815190506200040781620003dc565b92915050565b600060208284031215620004265762000425620003cd565b5b60006200043684828501620003f6565b91505092915050565b600081519050919050565b600082825260208201905092915050565b60005b838110156200047b5780820151818401526020810190506200045e565b60008484015250505050565b6000601f19601f8301169050919050565b6000620004a5826200043f565b620004b181856200044a565b9350620004c38185602086016200045b565b620004ce8162000487565b840191505092915050565b620004e481620003d2565b82525050565b6000604082019050818103600083015262000506818562000498565b9050620005176020830184620004d9565b9392505050565b7f4e487b7100000000000000000000000000000000000000000000000000000000600052603260045260246000fd5b600081519050919050565b600082825260208201905092915050565b6000819050602082019050919050565b6200058481620003d2565b82525050565b600062000598838362000579565b60208301905092915050565b6000602082019050919050565b6000620005be826200054d565b620005ca818562000558565b9350620005d78362000569565b8060005b838110156200060e578151620005f288826200058a565b9750620005ff83620005a4565b925050600181019050620005db565b5085935050505092915050565b6000606082019050620006326000830186620004d9565b8181036020830152620006468185620005b1565b905081810360408301526200065c8184620005b1565b9050949350505050565b6200067181620003d2565b82525050565b600082825260208201905092915050565b7f312073686f756c6420626520657175616c20746f206974656d4964735b305d20600082015250565b6000620006c060208362000677565b9150620006cd8262000688565b602082019050919050565b6000606082019050620006ef600083018562000666565b620006fe602083018462000666565b81810360408301526200071181620006b1565b90509392505050565b60008115159050919050565b62000731816200071a565b81146200073d57600080fd5b50565b600081519050620007518162000726565b92915050565b60006020828403121562000770576200076f620003cd565b5b6000620007808482850162000740565b91505092915050565b61244c80620007996000396000f3fe6080604052600436106200005c5760003560e01c8063011e6492146200006157806312d487ea146200007b57806336c0065614620000ab5780634313b9e514620000c55780637fea0d4b14620000f35780639074416d146200010d575b600080fd5b3480156200006e57600080fd5b506200007962000119565b005b3480156200008857600080fd5b5062000093620002a0565b604051620000a29190620006fb565b60405180910390f35b348015620000b857600080fd5b50620000c3620002a9565b005b348015620000d257600080fd5b50620000f16004803603810190620000eb919062000758565b6200032c565b005b3480156200010057600080fd5b506200010b62000576565b005b6200011762000584565b005b73__$acbfb1c35000d78352310b16a054a6b106$__6339df137f600280146040518263ffffffff1660e01b8152600401620001559190620007fc565b602060405180830381865af415801562000173573d6000803e3d6000fd5b505050506040513d601f19601f820116820180604052508101906200019991906200085f565b5073__$acbfb1c35000d78352310b16a054a6b106$__63a079f1a3600260016040518363ffffffff1660e01b8152600401620001d7929190620008f2565b602060405180830381865af4158015620001f5573d6000803e3d6000fd5b505050506040513d601f19601f820116820180604052508101906200021b91906200085f565b5073__$acbfb1c35000d78352310b16a054a6b106$__63aea88952600260036040518363ffffffff1660e01b81526004016200025992919062000984565b602060405180830381865af415801562000277573d6000803e3d6000fd5b505050506040513d601f19601f820116820180604052508101906200029d91906200085f565b50565b60006001905090565b73__$acbfb1c35000d78352310b16a054a6b106$__63561015e26001806040518363ffffffff1660e01b8152600401620002e592919062000a16565b602060405180830381865af415801562000303573d6000803e3d6000fd5b505050506040513d601f19601f820116820180604052508101906200032991906200085f565b50565b60006001905060606001816000815181106200034d576200034c62000a58565b5b60200260200101818152505060038160018151811062000372576200037162000a58565b5b60200260200101818152505060048160028151811062000397576200039662000a58565b5b6020026020010181815250506060600a81600081518110620003be57620003bd62000a58565b5b602002602001018181525050601481600181518110620003e357620003e262000a58565b5b602002602001018181525050601e8160028151811062000408576200040762000a58565b5b602002602001018181525050620004556040518060400160405280600281526020017f613a0000000000000000000000000000000000000000000000000000000000008152508562000607565b8282826040516200046690620006d0565b620004749392919062000b66565b604051809103906000f08015801562000491573d6000803e3d6000fd5b506000806101000a81548173ffffffffffffffffffffffffffffffffffffffff021916908373ffffffffffffffffffffffffffffffffffffffff16021790555073__$acbfb1c35000d78352310b16a054a6b106$__63abcd796060018460008151811062000504576200050362000a58565b5b60200260200101516040518363ffffffff1660e01b81526004016200052b92919062000c01565b602060405180830381865af415801562000549573d6000803e3d6000fd5b505050506040513d601f19601f820116820180604052508101906200056f91906200085f565b5050505050565b62000582600c6200032c565b565b73__$acbfb1c35000d78352310b16a054a6b106$__63abcd79603460646040518363ffffffff1660e01b8152600401620005c092919062000ce0565b602060405180830381865af4158015620005de573d6000803e3d6000fd5b505050506040513d601f19601f820116820180604052508101906200060491906200085f565b50565b620006a382826040516024016200062092919062000dbc565b6040516020818303038152906040527fb60e72cc000000000000000000000000000000000000000000000000000000007bffffffffffffffffffffffffffffffffffffffffffffffffffffffff19166020820180517bffffffffffffffffffffffffffffffffffffffffffffffffffffffff8381831617835250505050620006a7565b5050565b60008151905060006a636f6e736f6c652e6c6f679050602083016000808483855afa5050505050565b6116268062000df183390190565b60008115159050919050565b620006f581620006de565b82525050565b6000602082019050620007126000830184620006ea565b92915050565b600080fd5b6000819050919050565b62000732816200071d565b81146200073e57600080fd5b50565b600081359050620007528162000727565b92915050565b60006020828403121562000771576200077062000718565b5b6000620007818482850162000741565b91505092915050565b6200079581620006de565b82525050565b600082825260208201905092915050565b7f73686f756c642062652074727565000000000000000000000000000000000000600082015250565b6000620007e4600e836200079b565b9150620007f182620007ac565b602082019050919050565b60006040820190506200081360008301846200078a565b81810360208301526200082681620007d5565b905092915050565b6200083981620006de565b81146200084557600080fd5b50565b60008151905062000859816200082e565b92915050565b60006020828403121562000878576200087762000718565b5b6000620008888482850162000848565b91505092915050565b6200089c816200071d565b82525050565b7f322073686f756c642062652067726561746572207468616e20746f2031000000600082015250565b6000620008da601d836200079b565b9150620008e782620008a2565b602082019050919050565b600060608201905062000909600083018562000891565b62000918602083018462000891565b81810360408301526200092b81620008cb565b90509392505050565b7f322073686f756c64206265206c6573736572207468616e20746f203300000000600082015250565b60006200096c601c836200079b565b9150620009798262000934565b602082019050919050565b60006060820190506200099b600083018562000891565b620009aa602083018462000891565b8181036040830152620009bd816200095d565b90509392505050565b7f312073686f756c64206e6f7420626520657175616c20746f2031000000000000600082015250565b6000620009fe601a836200079b565b915062000a0b82620009c6565b602082019050919050565b600060608201905062000a2d600083018562000891565b62000a3c602083018462000891565b818103604083015262000a4f81620009ef565b90509392505050565b7f4e487b7100000000000000000000000000000000000000000000000000000000600052603260045260246000fd5b62000a92816200071d565b82525050565b600081519050919050565b600082825260208201905092915050565b6000819050602082019050919050565b62000acf816200071d565b82525050565b600062000ae3838362000ac4565b60208301905092915050565b6000602082019050919050565b600062000b098262000a98565b62000b15818562000aa3565b935062000b228362000ab4565b8060005b8381101562000b5957815162000b3d888262000ad5565b975062000b4a8362000aef565b92505060018101905062000b26565b5085935050505092915050565b600060608201905062000b7d600083018662000a87565b818103602083015262000b91818562000afc565b9050818103604083015262000ba7818462000afc565b9050949350505050565b7f312073686f756c6420626520657175616c20746f206974656d4964735b305d20600082015250565b600062000be96020836200079b565b915062000bf68262000bb1565b602082019050919050565b600060608201905062000c18600083018562000891565b62000c27602083018462000891565b818103604083015262000c3a8162000bda565b90509392505050565b6000819050919050565b6000819050919050565b600062000c7862000c7262000c6c8462000c43565b62000c4d565b6200071d565b9050919050565b62000c8a8162000c57565b82525050565b7f496e76616c69642076616c756500000000000000000000000000000000000000600082015250565b600062000cc8600d836200079b565b915062000cd58262000c90565b602082019050919050565b600060608201905062000cf7600083018562000891565b62000d06602083018462000c7f565b818103604083015262000d198162000cb9565b90509392505050565b600081519050919050565b600082825260208201905092915050565b60005b8381101562000d5e57808201518184015260208101905062000d41565b60008484015250505050565b6000601f19601f8301169050919050565b600062000d888262000d22565b62000d94818562000d2d565b935062000da681856020860162000d3e565b62000db18162000d6a565b840191505092915050565b6000604082019050818103600083015262000dd8818562000d7b565b905062000de9602083018462000a87565b939250505056fe60806040523480156200001157600080fd5b50604051620016263803806200162683398181016040528101906200003791906200043d565b80518251146200007e576040517f08c379a000000000000000000000000000000000000000000000000000000000815260040162000075906200055e565b60405180910390fd5b336000806101000a81548173ffffffffffffffffffffffffffffffffffffffff021916908373ffffffffffffffffffffffffffffffffffffffff1602179055508242620000cc9190620005af565b60018190555060005b82518110156200026f576040518060a001604052808483815181106200010057620000ff620005ea565b5b60200260200101518152602001838381518110620001235762000122620005ea565b5b6020026020010151815260200160008152602001600073ffffffffffffffffffffffffffffffffffffffff1681526020016001151581525060026000858481518110620001755762000174620005ea565b5b6020026020010151815260200190815260200160002060008201518160000155602082015181600101556040820151816002015560608201518160030160006101000a81548173ffffffffffffffffffffffffffffffffffffffff021916908373ffffffffffffffffffffffffffffffffffffffff16021790555060808201518160030160146101000a81548160ff02191690831515021790555090505060048382815181106200022b576200022a620005ea565b5b602002602001015190806001815401808255809150506001900390600052602060002001600090919091909150558080620002669062000619565b915050620000d5565b5050505062000666565b6000604051905090565b600080fd5b600080fd5b6000819050919050565b620002a2816200028d565b8114620002ae57600080fd5b50565b600081519050620002c28162000297565b92915050565b600080fd5b6000601f19601f8301169050919050565b7f4e487b7100000000000000000000000000000000000000000000000000000000600052604160045260246000fd5b6200031882620002cd565b810181811067ffffffffffffffff821117156200033a5762000339620002de565b5b80604052505050565b60006200034f62000279565b90506200035d82826200030d565b919050565b600067ffffffffffffffff82111562000380576200037f620002de565b5b602082029050602081019050919050565b600080fd5b6000620003ad620003a78462000362565b62000343565b90508083825260208201905060208402830185811115620003d357620003d262000391565b5b835b81811015620004005780620003eb8882620002b1565b845260208401935050602081019050620003d5565b5050509392505050565b600082601f830112620004225762000421620002c8565b5b81516200043484826020860162000396565b91505092915050565b60008060006060848603121562000459576200045862000283565b5b60006200046986828701620002b1565b935050602084015167ffffffffffffffff8111156200048d576200048c62000288565b5b6200049b868287016200040a565b925050604084015167ffffffffffffffff811115620004bf57620004be62000288565b5b620004cd868287016200040a565b9150509250925092565b600082825260208201905092915050565b7f4974656d2049447320616e64207374617274696e67206269647320617272617960008201527f73206d7573742068617665207468652073616d65206c656e6774682e00000000602082015250565b600062000546603c83620004d7565b91506200055382620004e8565b604082019050919050565b60006020820190508181036000830152620005798162000537565b9050919050565b7f4e487b7100000000000000000000000000000000000000000000000000000000600052601160045260246000fd5b6000620005bc826200028d565b9150620005c9836200028d565b9250828201905080821115620005e457620005e362000580565b5b92915050565b7f4e487b7100000000000000000000000000000000000000000000000000000000600052603260045260246000fd5b600062000626826200028d565b91507fffffffffffffffffffffffffffffffffffffffffffffffffffffffffffffffff82036200065b576200065a62000580565b5b600182019050919050565b610fb080620006766000396000f3fe60806040526004361061007b5760003560e01c80638ddac1ef1161004e5780638ddac1ef1461012f578063b3dc00fe1461016c578063b9a2de3a146101a9578063bfb231d2146101d25761007b565b80632e1a7d4d14610080578063454a2ab3146100bd5780634b449cba146100d95780635ec2c7bf14610104575b600080fd5b34801561008c57600080fd5b506100a760048036038101906100a29190610a2d565b610213565b6040516100b49190610a75565b60405180910390f35b6100d760048036038101906100d29190610a2d565b61036c565b005b3480156100e557600080fd5b506100ee610645565b6040516100fb9190610a9f565b60405180910390f35b34801561011057600080fd5b5061011961064b565b6040516101269190610afb565b60405180910390f35b34801561013b57600080fd5b5061015660048036038101906101519190610b42565b61066f565b6040516101639190610a9f565b60405180910390f35b34801561017857600080fd5b50610193600480360381019061018e9190610a2d565b610694565b6040516101a09190610a9f565b60405180910390f35b3480156101b557600080fd5b506101d060048036038101906101cb9190610a2d565b6106b8565b005b3480156101de57600080fd5b506101f960048036038101906101f49190610a2d565b61098f565b60405161020a959493929190610b82565b60405180910390f35b6000806003600084815260200190815260200160002060003373ffffffffffffffffffffffffffffffffffffffff1673ffffffffffffffffffffffffffffffffffffffff16815260200190815260200160002054905060008111156103615760006003600085815260200190815260200160002060003373ffffffffffffffffffffffffffffffffffffffff1673ffffffffffffffffffffffffffffffffffffffff168152602001908152602001600020819055503373ffffffffffffffffffffffffffffffffffffffff166108fc829081150290604051600060405180830381858888f1935050505061036057806003600085815260200190815260200160002060003373ffffffffffffffffffffffffffffffffffffffff1673ffffffffffffffffffffffffffffffffffffffff168152602001908152602001600020819055506000915050610367565b5b60019150505b919050565b6002600082815260200190815260200160002060030160149054906101000a900460ff166103cf576040517f08c379a00000000000000000000000000000000000000000000000000000000081526004016103c690610c58565b60405180910390fd5b600154421115610414576040517f08c379a000000000000000000000000000000000000000000000000000000000815260040161040b90610cc4565b60405180910390fd5b600260008281526020019081526020016000206001015434101561046d576040517f08c379a000000000000000000000000000000000000000000000000000000000815260040161046490610d56565b60405180910390fd5b600260008281526020019081526020016000206002015434116104c5576040517f08c379a00000000000000000000000000000000000000000000000000000000081526004016104bc90610dc2565b60405180910390fd5b60006002600083815260200190815260200160002060020154146105975760026000828152602001908152602001600020600201546003600083815260200190815260200160002060006002600085815260200190815260200160002060030160009054906101000a900473ffffffffffffffffffffffffffffffffffffffff1673ffffffffffffffffffffffffffffffffffffffff1673ffffffffffffffffffffffffffffffffffffffff168152602001908152602001600020600082825461058f9190610e11565b925050819055505b336002600083815260200190815260200160002060030160006101000a81548173ffffffffffffffffffffffffffffffffffffffff021916908373ffffffffffffffffffffffffffffffffffffffff1602179055503460026000838152602001908152602001600020600201819055507fda0a18da71d8ebd145966339a728fc0d8ccc07c22870d561890d823c515dda6b81333460405161063a93929190610e45565b60405180910390a150565b60015481565b60008054906101000a900473ffffffffffffffffffffffffffffffffffffffff1681565b6003602052816000526040600020602052806000526040600020600091509150505481565b600481815481106106a457600080fd5b906000526020600020016000915090505481565b60008054906101000a900473ffffffffffffffffffffffffffffffffffffffff1673ffffffffffffffffffffffffffffffffffffffff163373ffffffffffffffffffffffffffffffffffffffff1614610746576040517f08c379a000000000000000000000000000000000000000000000000000000000815260040161073d90610eee565b60405180910390fd5b60015442101561078b576040517f08c379a000000000000000000000000000000000000000000000000000000000815260040161078290610f5a565b60405180910390fd5b6002600082815260200190815260200160002060030160149054906101000a900460ff166107ee576040517f08c379a00000000000000000000000000000000000000000000000000000000081526004016107e590610c58565b60405180910390fd5b60006002600083815260200190815260200160002060030160146101000a81548160ff0219169083151502179055507fd2aa34a4fdbbc6dff6a3e56f46e0f3ae2a31d7785ff3487aa5c95c642acea501816002600084815260200190815260200160002060030160009054906101000a900473ffffffffffffffffffffffffffffffffffffffff16600260008581526020019081526020016000206002015460405161089c93929190610e45565b60405180910390a1600073ffffffffffffffffffffffffffffffffffffffff166002600083815260200190815260200160002060030160009054906101000a900473ffffffffffffffffffffffffffffffffffffffff1673ffffffffffffffffffffffffffffffffffffffff161461098c5760008054906101000a900473ffffffffffffffffffffffffffffffffffffffff1673ffffffffffffffffffffffffffffffffffffffff166108fc60026000848152602001908152602001600020600201549081150290604051600060405180830381858888f1935050505015801561098a573d6000803e3d6000fd5b505b50565b60026020528060005260406000206000915090508060000154908060010154908060020154908060030160009054906101000a900473ffffffffffffffffffffffffffffffffffffffff16908060030160149054906101000a900460ff16905085565b600080fd5b6000819050919050565b610a0a816109f7565b8114610a1557600080fd5b50565b600081359050610a2781610a01565b92915050565b600060208284031215610a4357610a426109f2565b5b6000610a5184828501610a18565b91505092915050565b60008115159050919050565b610a6f81610a5a565b82525050565b6000602082019050610a8a6000830184610a66565b92915050565b610a99816109f7565b82525050565b6000602082019050610ab46000830184610a90565b92915050565b600073ffffffffffffffffffffffffffffffffffffffff82169050919050565b6000610ae582610aba565b9050919050565b610af581610ada565b82525050565b6000602082019050610b106000830184610aec565b92915050565b610b1f81610ada565b8114610b2a57600080fd5b50565b600081359050610b3c81610b16565b92915050565b60008060408385031215610b5957610b586109f2565b5b6000610b6785828601610a18565b9250506020610b7885828601610b2d565b9150509250929050565b600060a082019050610b976000830188610a90565b610ba46020830187610a90565b610bb16040830186610a90565b610bbe6060830185610aec565b610bcb6080830184610a66565b9695505050505050565b600082825260208201905092915050565b7f4974656d20646f6573206e6f74206578697374206f72206973206e6f7420616360008201527f746976652e000000000000000000000000000000000000000000000000000000602082015250565b6000610c42602583610bd5565b9150610c4d82610be6565b604082019050919050565b60006020820190508181036000830152610c7181610c35565b9050919050565b7f41756374696f6e20616c726561647920656e6465642e00000000000000000000600082015250565b6000610cae601683610bd5565b9150610cb982610c78565b602082019050919050565b60006020820190508181036000830152610cdd81610ca1565b9050919050565b7f426964206d75737420626520657175616c206f7220686967686572207468616e60008201527f20746865206974656d2773207374617274696e67206269642e00000000000000602082015250565b6000610d40603983610bd5565b9150610d4b82610ce4565b604082019050919050565b60006020820190508181036000830152610d6f81610d33565b9050919050565b7f546865726520616c7265616479206973206120686967686572206269642e0000600082015250565b6000610dac601e83610bd5565b9150610db782610d76565b602082019050919050565b60006020820190508181036000830152610ddb81610d9f565b9050919050565b7f4e487b7100000000000000000000000000000000000000000000000000000000600052601160045260246000fd5b6000610e1c826109f7565b9150610e27836109f7565b9250828201905080821115610e3f57610e3e610de2565b5b92915050565b6000606082019050610e5a6000830186610a90565b610e676020830185610aec565b610e746040830184610a90565b949350505050565b7f4f6e6c79207468652061756374696f6e6565722063616e20656e64207468652060008201527f61756374696f6e2e000000000000000000000000000000000000000000000000602082015250565b6000610ed8602883610bd5565b9150610ee382610e7c565b604082019050919050565b60006020820190508181036000830152610f0781610ecb565b9050919050565b7f41756374696f6e206e6f742079657420656e6465642e00000000000000000000600082015250565b6000610f44601683610bd5565b9150610f4f82610f0e565b602082019050919050565b60006020820190508181036000830152610f7381610f37565b905091905056fea264697066735822122020f140c6e5d38f990c55dbc99ebdc570aa42890ea74d0c5931940ba83192d45864736f6c63430008120033a26469706673582212202e5ba255b32ff4387e873b22e7b871bb115b3e5b5886fea9612256d67c9fff7a64736f6c6343000812003360806040523480156200001157600080fd5b50604051620016263803806200162683398181016040528101906200003791906200043d565b80518251146200007e576040517f08c379a000000000000000000000000000000000000000000000000000000000815260040162000075906200055e565b60405180910390fd5b336000806101000a81548173ffffffffffffffffffffffffffffffffffffffff021916908373ffffffffffffffffffffffffffffffffffffffff1602179055508242620000cc9190620005af565b60018190555060005b82518110156200026f576040518060a001604052808483815181106200010057620000ff620005ea565b5b60200260200101518152602001838381518110620001235762000122620005ea565b5b6020026020010151815260200160008152602001600073ffffffffffffffffffffffffffffffffffffffff1681526020016001151581525060026000858481518110620001755762000174620005ea565b5b6020026020010151815260200190815260200160002060008201518160000155602082015181600101556040820151816002015560608201518160030160006101000a81548173ffffffffffffffffffffffffffffffffffffffff021916908373ffffffffffffffffffffffffffffffffffffffff16021790555060808201518160030160146101000a81548160ff02191690831515021790555090505060048382815181106200022b576200022a620005ea565b5b602002602001015190806001815401808255809150506001900390600052602060002001600090919091909150558080620002669062000619565b915050620000d5565b5050505062000666565b6000604051905090565b600080fd5b600080fd5b6000819050919050565b620002a2816200028d565b8114620002ae57600080fd5b50565b600081519050620002c28162000297565b92915050565b600080fd5b6000601f19601f8301169050919050565b7f4e487b7100000000000000000000000000000000000000000000000000000000600052604160045260246000fd5b6200031882620002cd565b810181811067ffffffffffffffff821117156200033a5762000339620002de565b5b80604052505050565b60006200034f62000279565b90506200035d82826200030d565b919050565b600067ffffffffffffffff82111562000380576200037f620002de565b5b602082029050602081019050919050565b600080fd5b6000620003ad620003a78462000362565b62000343565b90508083825260208201905060208402830185811115620003d357620003d262000391565b5b835b81811015620004005780620003eb8882620002b1565b845260208401935050602081019050620003d5565b5050509392505050565b600082601f830112620004225762000421620002c8565b5b81516200043484826020860162000396565b91505092915050565b60008060006060848603121562000459576200045862000283565b5b60006200046986828701620002b1565b935050602084015167ffffffffffffffff8111156200048d576200048c62000288565b5b6200049b868287016200040a565b925050604084015167ffffffffffffffff811115620004bf57620004be62000288565b5b620004cd868287016200040a565b9150509250925092565b600082825260208201905092915050565b7f4974656d2049447320616e64207374617274696e67206269647320617272617960008201527f73206d7573742068617665207468652073616d65206c656e6774682e00000000602082015250565b600062000546603c83620004d7565b91506200055382620004e8565b604082019050919050565b60006020820190508181036000830152620005798162000537565b9050919050565b7f4e487b7100000000000000000000000000000000000000000000000000000000600052601160045260246000fd5b6000620005bc826200028d565b9150620005c9836200028d565b9250828201905080821115620005e457620005e362000580565b5b92915050565b7f4e487b7100000000000000000000000000000000000000000000000000000000600052603260045260246000fd5b600062000626826200028d565b91507fffffffffffffffffffffffffffffffffffffffffffffffffffffffffffffffff82036200065b576200065a62000580565b5b600182019050919050565b610fb080620006766000396000f3fe60806040526004361061007b5760003560e01c80638ddac1ef1161004e5780638ddac1ef1461012f578063b3dc00fe1461016c578063b9a2de3a146101a9578063bfb231d2146101d25761007b565b80632e1a7d4d14610080578063454a2ab3146100bd5780634b449cba146100d95780635ec2c7bf14610104575b600080fd5b34801561008c57600080fd5b506100a760048036038101906100a29190610a2d565b610213565b6040516100b49190610a75565b60405180910390f35b6100d760048036038101906100d29190610a2d565b61036c565b005b3480156100e557600080fd5b506100ee610645565b6040516100fb9190610a9f565b60405180910390f35b34801561011057600080fd5b5061011961064b565b6040516101269190610afb565b60405180910390f35b34801561013b57600080fd5b5061015660048036038101906101519190610b42565b61066f565b6040516101639190610a9f565b60405180910390f35b34801561017857600080fd5b50610193600480360381019061018e9190610a2d565b610694565b6040516101a09190610a9f565b60405180910390f35b3480156101b557600080fd5b506101d060048036038101906101cb9190610a2d565b6106b8565b005b3480156101de57600080fd5b506101f960048036038101906101f49190610a2d565b61098f565b60405161020a959493929190610b82565b60405180910390f35b6000806003600084815260200190815260200160002060003373ffffffffffffffffffffffffffffffffffffffff1673ffffffffffffffffffffffffffffffffffffffff16815260200190815260200160002054905060008111156103615760006003600085815260200190815260200160002060003373ffffffffffffffffffffffffffffffffffffffff1673ffffffffffffffffffffffffffffffffffffffff168152602001908152602001600020819055503373ffffffffffffffffffffffffffffffffffffffff166108fc829081150290604051600060405180830381858888f1935050505061036057806003600085815260200190815260200160002060003373ffffffffffffffffffffffffffffffffffffffff1673ffffffffffffffffffffffffffffffffffffffff168152602001908152602001600020819055506000915050610367565b5b60019150505b919050565b6002600082815260200190815260200160002060030160149054906101000a900460ff166103cf576040517f08c379a00000000000000000000000000000000000000000000000000000000081526004016103c690610c58565b60405180910390fd5b600154421115610414576040517f08c379a000000000000000000000000000000000000000000000000000000000815260040161040b90610cc4565b60405180910390fd5b600260008281526020019081526020016000206001015434101561046d576040517f08c379a000000000000000000000000000000000000000000000000000000000815260040161046490610d56565b60405180910390fd5b600260008281526020019081526020016000206002015434116104c5576040517f08c379a00000000000000000000000000000000000000000000000000000000081526004016104bc90610dc2565b60405180910390fd5b60006002600083815260200190815260200160002060020154146105975760026000828152602001908152602001600020600201546003600083815260200190815260200160002060006002600085815260200190815260200160002060030160009054906101000a900473ffffffffffffffffffffffffffffffffffffffff1673ffffffffffffffffffffffffffffffffffffffff1673ffffffffffffffffffffffffffffffffffffffff168152602001908152602001600020600082825461058f9190610e11565b925050819055505b336002600083815260200190815260200160002060030160006101000a81548173ffffffffffffffffffffffffffffffffffffffff021916908373ffffffffffffffffffffffffffffffffffffffff1602179055503460026000838152602001908152602001600020600201819055507fda0a18da71d8ebd145966339a728fc0d8ccc07c22870d561890d823c515dda6b81333460405161063a93929190610e45565b60405180910390a150565b60015481565b60008054906101000a900473ffffffffffffffffffffffffffffffffffffffff1681565b6003602052816000526040600020602052806000526040600020600091509150505481565b600481815481106106a457600080fd5b906000526020600020016000915090505481565b60008054906101000a900473ffffffffffffffffffffffffffffffffffffffff1673ffffffffffffffffffffffffffffffffffffffff163373ffffffffffffffffffffffffffffffffffffffff1614610746576040517f08c379a000000000000000000000000000000000000000000000000000000000815260040161073d90610eee565b60405180910390fd5b60015442101561078b576040517f08c379a000000000000000000000000000000000000000000000000000000000815260040161078290610f5a565b60405180910390fd5b6002600082815260200190815260200160002060030160149054906101000a900460ff166107ee576040517f08c379a00000000000000000000000000000000000000000000000000000000081526004016107e590610c58565b60405180910390fd5b60006002600083815260200190815260200160002060030160146101000a81548160ff0219169083151502179055507fd2aa34a4fdbbc6dff6a3e56f46e0f3ae2a31d7785ff3487aa5c95c642acea501816002600084815260200190815260200160002060030160009054906101000a900473ffffffffffffffffffffffffffffffffffffffff16600260008581526020019081526020016000206002015460405161089c93929190610e45565b60405180910390a1600073ffffffffffffffffffffffffffffffffffffffff166002600083815260200190815260200160002060030160009054906101000a900473ffffffffffffffffffffffffffffffffffffffff1673ffffffffffffffffffffffffffffffffffffffff161461098c5760008054906101000a900473ffffffffffffffffffffffffffffffffffffffff1673ffffffffffffffffffffffffffffffffffffffff166108fc60026000848152602001908152602001600020600201549081150290604051600060405180830381858888f1935050505015801561098a573d6000803e3d6000fd5b505b50565b60026020528060005260406000206000915090508060000154908060010154908060020154908060030160009054906101000a900473ffffffffffffffffffffffffffffffffffffffff16908060030160149054906101000a900460ff16905085565b600080fd5b6000819050919050565b610a0a816109f7565b8114610a1557600080fd5b50565b600081359050610a2781610a01565b92915050565b600060208284031215610a4357610a426109f2565b5b6000610a5184828501610a18565b91505092915050565b60008115159050919050565b610a6f81610a5a565b82525050565b6000602082019050610a8a6000830184610a66565b92915050565b610a99816109f7565b82525050565b6000602082019050610ab46000830184610a90565b92915050565b600073ffffffffffffffffffffffffffffffffffffffff82169050919050565b6000610ae582610aba565b9050919050565b610af581610ada565b82525050565b6000602082019050610b106000830184610aec565b92915050565b610b1f81610ada565b8114610b2a57600080fd5b50565b600081359050610b3c81610b16565b92915050565b60008060408385031215610b5957610b586109f2565b5b6000610b6785828601610a18565b9250506020610b7885828601610b2d565b9150509250929050565b600060a082019050610b976000830188610a90565b610ba46020830187610a90565b610bb16040830186610a90565b610bbe6060830185610aec565b610bcb6080830184610a66565b9695505050505050565b600082825260208201905092915050565b7f4974656d20646f6573206e6f74206578697374206f72206973206e6f7420616360008201527f746976652e000000000000000000000000000000000000000000000000000000602082015250565b6000610c42602583610bd5565b9150610c4d82610be6565b604082019050919050565b60006020820190508181036000830152610c7181610c35565b9050919050565b7f41756374696f6e20616c726561647920656e6465642e00000000000000000000600082015250565b6000610cae601683610bd5565b9150610cb982610c78565b602082019050919050565b60006020820190508181036000830152610cdd81610ca1565b9050919050565b7f426964206d75737420626520657175616c206f7220686967686572207468616e60008201527f20746865206974656d2773207374617274696e67206269642e00000000000000602082015250565b6000610d40603983610bd5565b9150610d4b82610ce4565b604082019050919050565b60006020820190508181036000830152610d6f81610d33565b9050919050565b7f546865726520616c7265616479206973206120686967686572206269642e0000600082015250565b6000610dac601e83610bd5565b9150610db782610d76565b602082019050919050565b60006020820190508181036000830152610ddb81610d9f565b9050919050565b7f4e487b7100000000000000000000000000000000000000000000000000000000600052601160045260246000fd5b6000610e1c826109f7565b9150610e27836109f7565b9250828201905080821115610e3f57610e3e610de2565b5b92915050565b6000606082019050610e5a6000830186610a90565b610e676020830185610aec565b610e746040830184610a90565b949350505050565b7f4f6e6c79207468652061756374696f6e6565722063616e20656e64207468652060008201527f61756374696f6e2e000000000000000000000000000000000000000000000000602082015250565b6000610ed8602883610bd5565b9150610ee382610e7c565b604082019050919050565b60006020820190508181036000830152610f0781610ecb565b9050919050565b7f41756374696f6e206e6f742079657420656e6465642e00000000000000000000600082015250565b6000610f44601683610bd5565b9150610f4f82610f0e565b602082019050919050565b60006020820190508181036000830152610f7381610f37565b905091905056fea264697066735822122020f140c6e5d38f990c55dbc99ebdc570aa42890ea74d0c5931940ba83192d45864736f6c63430008120033",
			"opcodes": "PUSH1 0x80 PUSH1 0x40 MSTORE CALLVALUE DUP1 ISZERO PUSH3 0x11 JUMPI PUSH1 0x0 DUP1 REVERT JUMPDEST POP PUSH1 0x40 MLOAD PUSH3 0x420B CODESIZE SUB DUP1 PUSH3 0x420B DUP4 CODECOPY DUP2 DUP2 ADD PUSH1 0x40 MSTORE DUP2 ADD SWAP1 PUSH3 0x37 SWAP2 SWAP1 PUSH3 0x40D JUMP JUMPDEST PUSH3 0x83 PUSH1 0x40 MLOAD DUP1 PUSH1 0x40 ADD PUSH1 0x40 MSTORE DUP1 PUSH1 0x2 DUP2 MSTORE PUSH1 0x20 ADD PUSH32 0x613A000000000000000000000000000000000000000000000000000000000000 DUP2 MSTORE POP DUP3 PUSH3 0x9B PUSH1 0x20 SHL PUSH3 0x607 OR PUSH1 0x20 SHR JUMP JUMPDEST PUSH3 0x94 DUP2 PUSH3 0x141 PUSH1 0x20 SHL PUSH1 0x20 SHR JUMP JUMPDEST POP PUSH3 0x789 JUMP JUMPDEST PUSH3 0x13D DUP3 DUP3 PUSH1 0x40 MLOAD PUSH1 0x24 ADD PUSH3 0xB4 SWAP3 SWAP2 SWAP1 PUSH3 0x4EA JUMP JUMPDEST PUSH1 0x40 MLOAD PUSH1 0x20 DUP2 DUP4 SUB SUB DUP2 MSTORE SWAP1 PUSH1 0x40 MSTORE PUSH32 0xB60E72CC00000000000000000000000000000000000000000000000000000000 PUSH28 0xFFFFFFFFFFFFFFFFFFFFFFFFFFFFFFFFFFFFFFFFFFFFFFFFFFFFFFFF NOT AND PUSH1 0x20 DUP3 ADD DUP1 MLOAD PUSH28 0xFFFFFFFFFFFFFFFFFFFFFFFFFFFFFFFFFFFFFFFFFFFFFFFFFFFFFFFF DUP4 DUP2 DUP4 AND OR DUP4 MSTORE POP POP POP POP PUSH3 0x396 PUSH1 0x20 SHL PUSH1 0x20 SHR JUMP JUMPDEST POP POP JUMP JUMPDEST PUSH1 0x0 PUSH1 0x1 SWAP1 POP PUSH1 0x60 PUSH1 0x1 DUP2 PUSH1 0x0 DUP2 MLOAD DUP2 LT PUSH3 0x162 JUMPI PUSH3 0x161 PUSH3 0x51E JUMP JUMPDEST JUMPDEST PUSH1 0x20 MUL PUSH1 0x20 ADD ADD DUP2 DUP2 MSTORE POP POP PUSH1 0x3 DUP2 PUSH1 0x1 DUP2 MLOAD DUP2 LT PUSH3 0x187 JUMPI PUSH3 0x186 PUSH3 0x51E JUMP JUMPDEST JUMPDEST PUSH1 0x20 MUL PUSH1 0x20 ADD ADD DUP2 DUP2 MSTORE POP POP PUSH1 0x4 DUP2 PUSH1 0x2 DUP2 MLOAD DUP2 LT PUSH3 0x1AC JUMPI PUSH3 0x1AB PUSH3 0x51E JUMP JUMPDEST JUMPDEST PUSH1 0x20 MUL PUSH1 0x20 ADD ADD DUP2 DUP2 MSTORE POP POP PUSH1 0x60 PUSH1 0xA DUP2 PUSH1 0x0 DUP2 MLOAD DUP2 LT PUSH3 0x1D3 JUMPI PUSH3 0x1D2 PUSH3 0x51E JUMP JUMPDEST JUMPDEST PUSH1 0x20 MUL PUSH1 0x20 ADD ADD DUP2 DUP2 MSTORE POP POP PUSH1 0x14 DUP2 PUSH1 0x1 DUP2 MLOAD DUP2 LT PUSH3 0x1F8 JUMPI PUSH3 0x1F7 PUSH3 0x51E JUMP JUMPDEST JUMPDEST PUSH1 0x20 MUL PUSH1 0x20 ADD ADD DUP2 DUP2 MSTORE POP POP PUSH1 0x1E DUP2 PUSH1 0x2 DUP2 MLOAD DUP2 LT PUSH3 0x21D JUMPI PUSH3 0x21C PUSH3 0x51E JUMP JUMPDEST JUMPDEST PUSH1 0x20 MUL PUSH1 0x20 ADD ADD DUP2 DUP2 MSTORE POP POP PUSH3 0x275 PUSH1 0x40 MLOAD DUP1 PUSH1 0x40 ADD PUSH1 0x40 MSTORE DUP1 PUSH1 0x2 DUP2 MSTORE PUSH1 0x20 ADD PUSH32 0x613A000000000000000000000000000000000000000000000000000000000000 DUP2 MSTORE POP DUP6 PUSH3 0x9B PUSH1 0x20 SHL PUSH3 0x607 OR PUSH1 0x20 SHR JUMP JUMPDEST DUP3 DUP3 DUP3 PUSH1 0x40 MLOAD PUSH3 0x286 SWAP1 PUSH3 0x3BF JUMP JUMPDEST PUSH3 0x294 SWAP4 SWAP3 SWAP2 SWAP1 PUSH3 0x61B JUMP JUMPDEST PUSH1 0x40 MLOAD DUP1 SWAP2 SUB SWAP1 PUSH1 0x0 CREATE DUP1 ISZERO DUP1 ISZERO PUSH3 0x2B1 JUMPI RETURNDATASIZE PUSH1 0x0 DUP1 RETURNDATACOPY RETURNDATASIZE PUSH1 0x0 REVERT JUMPDEST POP PUSH1 0x0 DUP1 PUSH2 0x100 EXP DUP2 SLOAD DUP2 PUSH20 0xFFFFFFFFFFFFFFFFFFFFFFFFFFFFFFFFFFFFFFFF MUL NOT AND SWAP1 DUP4 PUSH20 0xFFFFFFFFFFFFFFFFFFFFFFFFFFFFFFFFFFFFFFFF AND MUL OR SWAP1 SSTORE POP PUSH20 0x0 PUSH4 0xABCD7960 PUSH1 0x1 DUP5 PUSH1 0x0 DUP2 MLOAD DUP2 LT PUSH3 0x324 JUMPI PUSH3 0x323 PUSH3 0x51E JUMP JUMPDEST JUMPDEST PUSH1 0x20 MUL PUSH1 0x20 ADD ADD MLOAD PUSH1 0x40 MLOAD DUP4 PUSH4 0xFFFFFFFF AND PUSH1 0xE0 SHL DUP2 MSTORE PUSH1 0x4 ADD PUSH3 0x34B SWAP3 SWAP2 SWAP1 PUSH3 0x6D8 JUMP JUMPDEST PUSH1 0x20 PUSH1 0x40 MLOAD DUP1 DUP4 SUB DUP2 DUP7 GAS DELEGATECALL ISZERO DUP1 ISZERO PUSH3 0x369 JUMPI RETURNDATASIZE PUSH1 0x0 DUP1 RETURNDATACOPY RETURNDATASIZE PUSH1 0x0 REVERT JUMPDEST POP POP POP POP PUSH1 0x40 MLOAD RETURNDATASIZE PUSH1 0x1F NOT PUSH1 0x1F DUP3 ADD AND DUP3 ADD DUP1 PUSH1 0x40 MSTORE POP DUP2 ADD SWAP1 PUSH3 0x38F SWAP2 SWAP1 PUSH3 0x757 JUMP JUMPDEST POP POP POP POP POP JUMP JUMPDEST PUSH1 0x0 DUP2 MLOAD SWAP1 POP PUSH1 0x0 PUSH11 0x636F6E736F6C652E6C6F67 SWAP1 POP PUSH1 0x20 DUP4 ADD PUSH1 0x0 DUP1 DUP5 DUP4 DUP6 GAS STATICCALL POP POP POP POP POP JUMP JUMPDEST PUSH2 0x1626 DUP1 PUSH3 0x2BE5 DUP4 CODECOPY ADD SWAP1 JUMP JUMPDEST PUSH1 0x0 DUP1 REVERT JUMPDEST PUSH1 0x0 DUP2 SWAP1 POP SWAP2 SWAP1 POP JUMP JUMPDEST PUSH3 0x3E7 DUP2 PUSH3 0x3D2 JUMP JUMPDEST DUP2 EQ PUSH3 0x3F3 JUMPI PUSH1 0x0 DUP1 REVERT JUMPDEST POP JUMP JUMPDEST PUSH1 0x0 DUP2 MLOAD SWAP1 POP PUSH3 0x407 DUP2 PUSH3 0x3DC JUMP JUMPDEST SWAP3 SWAP2 POP POP JUMP JUMPDEST PUSH1 0x0 PUSH1 0x20 DUP3 DUP5 SUB SLT ISZERO PUSH3 0x426 JUMPI PUSH3 0x425 PUSH3 0x3CD JUMP JUMPDEST JUMPDEST PUSH1 0x0 PUSH3 0x436 DUP5 DUP3 DUP6 ADD PUSH3 0x3F6 JUMP JUMPDEST SWAP2 POP POP SWAP3 SWAP2 POP POP JUMP JUMPDEST PUSH1 0x0 DUP2 MLOAD SWAP1 POP SWAP2 SWAP1 POP JUMP JUMPDEST PUSH1 0x0 DUP3 DUP3 MSTORE PUSH1 0x20 DUP3 ADD SWAP1 POP SWAP3 SWAP2 POP POP JUMP JUMPDEST PUSH1 0x0 JUMPDEST DUP4 DUP2 LT ISZERO PUSH3 0x47B JUMPI DUP1 DUP3 ADD MLOAD DUP2 DUP5 ADD MSTORE PUSH1 0x20 DUP2 ADD SWAP1 POP PUSH3 0x45E JUMP JUMPDEST PUSH1 0x0 DUP5 DUP5 ADD MSTORE POP POP POP POP JUMP JUMPDEST PUSH1 0x0 PUSH1 0x1F NOT PUSH1 0x1F DUP4 ADD AND SWAP1 POP SWAP2 SWAP1 POP JUMP JUMPDEST PUSH1 0x0 PUSH3 0x4A5 DUP3 PUSH3 0x43F JUMP JUMPDEST PUSH3 0x4B1 DUP2 DUP6 PUSH3 0x44A JUMP JUMPDEST SWAP4 POP PUSH3 0x4C3 DUP2 DUP6 PUSH1 0x20 DUP7 ADD PUSH3 0x45B JUMP JUMPDEST PUSH3 0x4CE DUP2 PUSH3 0x487 JUMP JUMPDEST DUP5 ADD SWAP2 POP POP SWAP3 SWAP2 POP POP JUMP JUMPDEST PUSH3 0x4E4 DUP2 PUSH3 0x3D2 JUMP JUMPDEST DUP3 MSTORE POP POP JUMP JUMPDEST PUSH1 0x0 PUSH1 0x40 DUP3 ADD SWAP1 POP DUP2 DUP2 SUB PUSH1 0x0 DUP4 ADD MSTORE PUSH3 0x506 DUP2 DUP6 PUSH3 0x498 JUMP JUMPDEST SWAP1 POP PUSH3 0x517 PUSH1 0x20 DUP4 ADD DUP5 PUSH3 0x4D9 JUMP JUMPDEST SWAP4 SWAP3 POP POP POP JUMP JUMPDEST PUSH32 0x4E487B7100000000000000000000000000000000000000000000000000000000 PUSH1 0x0 MSTORE PUSH1 0x32 PUSH1 0x4 MSTORE PUSH1 0x24 PUSH1 0x0 REVERT JUMPDEST PUSH1 0x0 DUP2 MLOAD SWAP1 POP SWAP2 SWAP1 POP JUMP JUMPDEST PUSH1 0x0 DUP3 DUP3 MSTORE PUSH1 0x20 DUP3 ADD SWAP1 POP SWAP3 SWAP2 POP POP JUMP JUMPDEST PUSH1 0x0 DUP2 SWAP1 POP PUSH1 0x20 DUP3 ADD SWAP1 POP SWAP2 SWAP1 POP JUMP JUMPDEST PUSH3 0x584 DUP2 PUSH3 0x3D2 JUMP JUMPDEST DUP3 MSTORE POP POP JUMP JUMPDEST PUSH1 0x0 PUSH3 0x598 DUP4 DUP4 PUSH3 0x579 JUMP JUMPDEST PUSH1 0x20 DUP4 ADD SWAP1 POP SWAP3 SWAP2 POP POP JUMP JUMPDEST PUSH1 0x0 PUSH1 0x20 DUP3 ADD SWAP1 POP SWAP2 SWAP1 POP JUMP JUMPDEST PUSH1 0x0 PUSH3 0x5BE DUP3 PUSH3 0x54D JUMP JUMPDEST PUSH3 0x5CA DUP2 DUP6 PUSH3 0x558 JUMP JUMPDEST SWAP4 POP PUSH3 0x5D7 DUP4 PUSH3 0x569 JUMP JUMPDEST DUP1 PUSH1 0x0 JUMPDEST DUP4 DUP2 LT ISZERO PUSH3 0x60E JUMPI DUP2 MLOAD PUSH3 0x5F2 DUP9 DUP3 PUSH3 0x58A JUMP JUMPDEST SWAP8 POP PUSH3 0x5FF DUP4 PUSH3 0x5A4 JUMP JUMPDEST SWAP3 POP POP PUSH1 0x1 DUP2 ADD SWAP1 POP PUSH3 0x5DB JUMP JUMPDEST POP DUP6 SWAP4 POP POP POP POP SWAP3 SWAP2 POP POP JUMP JUMPDEST PUSH1 0x0 PUSH1 0x60 DUP3 ADD SWAP1 POP PUSH3 0x632 PUSH1 0x0 DUP4 ADD DUP7 PUSH3 0x4D9 JUMP JUMPDEST DUP2 DUP2 SUB PUSH1 0x20 DUP4 ADD MSTORE PUSH3 0x646 DUP2 DUP6 PUSH3 0x5B1 JUMP JUMPDEST SWAP1 POP DUP2 DUP2 SUB PUSH1 0x40 DUP4 ADD MSTORE PUSH3 0x65C DUP2 DUP5 PUSH3 0x5B1 JUMP JUMPDEST SWAP1 POP SWAP5 SWAP4 POP POP POP POP JUMP JUMPDEST PUSH3 0x671 DUP2 PUSH3 0x3D2 JUMP JUMPDEST DUP3 MSTORE POP POP JUMP JUMPDEST PUSH1 0x0 DUP3 DUP3 MSTORE PUSH1 0x20 DUP3 ADD SWAP1 POP SWAP3 SWAP2 POP POP JUMP JUMPDEST PUSH32 0x312073686F756C6420626520657175616C20746F206974656D4964735B305D20 PUSH1 0x0 DUP3 ADD MSTORE POP JUMP JUMPDEST PUSH1 0x0 PUSH3 0x6C0 PUSH1 0x20 DUP4 PUSH3 0x677 JUMP JUMPDEST SWAP2 POP PUSH3 0x6CD DUP3 PUSH3 0x688 JUMP JUMPDEST PUSH1 0x20 DUP3 ADD SWAP1 POP SWAP2 SWAP1 POP JUMP JUMPDEST PUSH1 0x0 PUSH1 0x60 DUP3 ADD SWAP1 POP PUSH3 0x6EF PUSH1 0x0 DUP4 ADD DUP6 PUSH3 0x666 JUMP JUMPDEST PUSH3 0x6FE PUSH1 0x20 DUP4 ADD DUP5 PUSH3 0x666 JUMP JUMPDEST DUP2 DUP2 SUB PUSH1 0x40 DUP4 ADD MSTORE PUSH3 0x711 DUP2 PUSH3 0x6B1 JUMP JUMPDEST SWAP1 POP SWAP4 SWAP3 POP POP POP JUMP JUMPDEST PUSH1 0x0 DUP2 ISZERO ISZERO SWAP1 POP SWAP2 SWAP1 POP JUMP JUMPDEST PUSH3 0x731 DUP2 PUSH3 0x71A JUMP JUMPDEST DUP2 EQ PUSH3 0x73D JUMPI PUSH1 0x0 DUP1 REVERT JUMPDEST POP JUMP JUMPDEST PUSH1 0x0 DUP2 MLOAD SWAP1 POP PUSH3 0x751 DUP2 PUSH3 0x726 JUMP JUMPDEST SWAP3 SWAP2 POP POP JUMP JUMPDEST PUSH1 0x0 PUSH1 0x20 DUP3 DUP5 SUB SLT ISZERO PUSH3 0x770 JUMPI PUSH3 0x76F PUSH3 0x3CD JUMP JUMPDEST JUMPDEST PUSH1 0x0 PUSH3 0x780 DUP5 DUP3 DUP6 ADD PUSH3 0x740 JUMP JUMPDEST SWAP2 POP POP SWAP3 SWAP2 POP POP JUMP JUMPDEST PUSH2 0x244C DUP1 PUSH3 0x799 PUSH1 0x0 CODECOPY PUSH1 0x0 RETURN INVALID PUSH1 0x80 PUSH1 0x40 MSTORE PUSH1 0x4 CALLDATASIZE LT PUSH3 0x5C JUMPI PUSH1 0x0 CALLDATALOAD PUSH1 0xE0 SHR DUP1 PUSH4 0x11E6492 EQ PUSH3 0x61 JUMPI DUP1 PUSH4 0x12D487EA EQ PUSH3 0x7B JUMPI DUP1 PUSH4 0x36C00656 EQ PUSH3 0xAB JUMPI DUP1 PUSH4 0x4313B9E5 EQ PUSH3 0xC5 JUMPI DUP1 PUSH4 0x7FEA0D4B EQ PUSH3 0xF3 JUMPI DUP1 PUSH4 0x9074416D EQ PUSH3 0x10D JUMPI JUMPDEST PUSH1 0x0 DUP1 REVERT JUMPDEST CALLVALUE DUP1 ISZERO PUSH3 0x6E JUMPI PUSH1 0x0 DUP1 REVERT JUMPDEST POP PUSH3 0x79 PUSH3 0x119 JUMP JUMPDEST STOP JUMPDEST CALLVALUE DUP1 ISZERO PUSH3 0x88 JUMPI PUSH1 0x0 DUP1 REVERT JUMPDEST POP PUSH3 0x93 PUSH3 0x2A0 JUMP JUMPDEST PUSH1 0x40 MLOAD PUSH3 0xA2 SWAP2 SWAP1 PUSH3 0x6FB JUMP JUMPDEST PUSH1 0x40 MLOAD DUP1 SWAP2 SUB SWAP1 RETURN JUMPDEST CALLVALUE DUP1 ISZERO PUSH3 0xB8 JUMPI PUSH1 0x0 DUP1 REVERT JUMPDEST POP PUSH3 0xC3 PUSH3 0x2A9 JUMP JUMPDEST STOP JUMPDEST CALLVALUE DUP1 ISZERO PUSH3 0xD2 JUMPI PUSH1 0x0 DUP1 REVERT JUMPDEST POP PUSH3 0xF1 PUSH1 0x4 DUP1 CALLDATASIZE SUB DUP2 ADD SWAP1 PUSH3 0xEB SWAP2 SWAP1 PUSH3 0x758 JUMP JUMPDEST PUSH3 0x32C JUMP JUMPDEST STOP JUMPDEST CALLVALUE DUP1 ISZERO PUSH3 0x100 JUMPI PUSH1 0x0 DUP1 REVERT JUMPDEST POP PUSH3 0x10B PUSH3 0x576 JUMP JUMPDEST STOP JUMPDEST PUSH3 0x117 PUSH3 0x584 JUMP JUMPDEST STOP JUMPDEST PUSH20 0x0 PUSH4 0x39DF137F PUSH1 0x2 DUP1 EQ PUSH1 0x40 MLOAD DUP3 PUSH4 0xFFFFFFFF AND PUSH1 0xE0 SHL DUP2 MSTORE PUSH1 0x4 ADD PUSH3 0x155 SWAP2 SWAP1 PUSH3 0x7FC JUMP JUMPDEST PUSH1 0x20 PUSH1 0x40 MLOAD DUP1 DUP4 SUB DUP2 DUP7 GAS DELEGATECALL ISZERO DUP1 ISZERO PUSH3 0x173 JUMPI RETURNDATASIZE PUSH1 0x0 DUP1 RETURNDATACOPY RETURNDATASIZE PUSH1 0x0 REVERT JUMPDEST POP POP POP POP PUSH1 0x40 MLOAD RETURNDATASIZE PUSH1 0x1F NOT PUSH1 0x1F DUP3 ADD AND DUP3 ADD DUP1 PUSH1 0x40 MSTORE POP DUP2 ADD SWAP1 PUSH3 0x199 SWAP2 SWAP1 PUSH3 0x85F JUMP JUMPDEST POP PUSH20 0x0 PUSH4 0xA079F1A3 PUSH1 0x2 PUSH1 0x1 PUSH1 0x40 MLOAD DUP4 PUSH4 0xFFFFFFFF AND PUSH1 0xE0 SHL DUP2 MSTORE PUSH1 0x4 ADD PUSH3 0x1D7 SWAP3 SWAP2 SWAP1 PUSH3 0x8F2 JUMP JUMPDEST PUSH1 0x20 PUSH1 0x40 MLOAD DUP1 DUP4 SUB DUP2 DUP7 GAS DELEGATECALL ISZERO DUP1 ISZERO PUSH3 0x1F5 JUMPI RETURNDATASIZE PUSH1 0x0 DUP1 RETURNDATACOPY RETURNDATASIZE PUSH1 0x0 REVERT JUMPDEST POP POP POP POP PUSH1 0x40 MLOAD RETURNDATASIZE PUSH1 0x1F NOT PUSH1 0x1F DUP3 ADD AND DUP3 ADD DUP1 PUSH1 0x40 MSTORE POP DUP2 ADD SWAP1 PUSH3 0x21B SWAP2 SWAP1 PUSH3 0x85F JUMP JUMPDEST POP PUSH20 0x0 PUSH4 0xAEA88952 PUSH1 0x2 PUSH1 0x3 PUSH1 0x40 MLOAD DUP4 PUSH4 0xFFFFFFFF AND PUSH1 0xE0 SHL DUP2 MSTORE PUSH1 0x4 ADD PUSH3 0x259 SWAP3 SWAP2 SWAP1 PUSH3 0x984 JUMP JUMPDEST PUSH1 0x20 PUSH1 0x40 MLOAD DUP1 DUP4 SUB DUP2 DUP7 GAS DELEGATECALL ISZERO DUP1 ISZERO PUSH3 0x277 JUMPI RETURNDATASIZE PUSH1 0x0 DUP1 RETURNDATACOPY RETURNDATASIZE PUSH1 0x0 REVERT JUMPDEST POP POP POP POP PUSH1 0x40 MLOAD RETURNDATASIZE PUSH1 0x1F NOT PUSH1 0x1F DUP3 ADD AND DUP3 ADD DUP1 PUSH1 0x40 MSTORE POP DUP2 ADD SWAP1 PUSH3 0x29D SWAP2 SWAP1 PUSH3 0x85F JUMP JUMPDEST POP JUMP JUMPDEST PUSH1 0x0 PUSH1 0x1 SWAP1 POP SWAP1 JUMP JUMPDEST PUSH20 0x0 PUSH4 0x561015E2 PUSH1 0x1 DUP1 PUSH1 0x40 MLOAD DUP4 PUSH4 0xFFFFFFFF AND PUSH1 0xE0 SHL DUP2 MSTORE PUSH1 0x4 ADD PUSH3 0x2E5 SWAP3 SWAP2 SWAP1 PUSH3 0xA16 JUMP JUMPDEST PUSH1 0x20 PUSH1 0x40 MLOAD DUP1 DUP4 SUB DUP2 DUP7 GAS DELEGATECALL ISZERO DUP1 ISZERO PUSH3 0x303 JUMPI RETURNDATASIZE PUSH1 0x0 DUP1 RETURNDATACOPY RETURNDATASIZE PUSH1 0x0 REVERT JUMPDEST POP POP POP POP PUSH1 0x40 MLOAD RETURNDATASIZE PUSH1 0x1F NOT PUSH1 0x1F DUP3 ADD AND DUP3 ADD DUP1 PUSH1 0x40 MSTORE POP DUP2 ADD SWAP1 PUSH3 0x329 SWAP2 SWAP1 PUSH3 0x85F JUMP JUMPDEST POP JUMP JUMPDEST PUSH1 0x0 PUSH1 0x1 SWAP1 POP PUSH1 0x60 PUSH1 0x1 DUP2 PUSH1 0x0 DUP2 MLOAD DUP2 LT PUSH3 0x34D JUMPI PUSH3 0x34C PUSH3 0xA58 JUMP JUMPDEST JUMPDEST PUSH1 0x20 MUL PUSH1 0x20 ADD ADD DUP2 DUP2 MSTORE POP POP PUSH1 0x3 DUP2 PUSH1 0x1 DUP2 MLOAD DUP2 LT PUSH3 0x372 JUMPI PUSH3 0x371 PUSH3 0xA58 JUMP JUMPDEST JUMPDEST PUSH1 0x20 MUL PUSH1 0x20 ADD ADD DUP2 DUP2 MSTORE POP POP PUSH1 0x4 DUP2 PUSH1 0x2 DUP2 MLOAD DUP2 LT PUSH3 0x397 JUMPI PUSH3 0x396 PUSH3 0xA58 JUMP JUMPDEST JUMPDEST PUSH1 0x20 MUL PUSH1 0x20 ADD ADD DUP2 DUP2 MSTORE POP POP PUSH1 0x60 PUSH1 0xA DUP2 PUSH1 0x0 DUP2 MLOAD DUP2 LT PUSH3 0x3BE JUMPI PUSH3 0x3BD PUSH3 0xA58 JUMP JUMPDEST JUMPDEST PUSH1 0x20 MUL PUSH1 0x20 ADD ADD DUP2 DUP2 MSTORE POP POP PUSH1 0x14 DUP2 PUSH1 0x1 DUP2 MLOAD DUP2 LT PUSH3 0x3E3 JUMPI PUSH3 0x3E2 PUSH3 0xA58 JUMP JUMPDEST JUMPDEST PUSH1 0x20 MUL PUSH1 0x20 ADD ADD DUP2 DUP2 MSTORE POP POP PUSH1 0x1E DUP2 PUSH1 0x2 DUP2 MLOAD DUP2 LT PUSH3 0x408 JUMPI PUSH3 0x407 PUSH3 0xA58 JUMP JUMPDEST JUMPDEST PUSH1 0x20 MUL PUSH1 0x20 ADD ADD DUP2 DUP2 MSTORE POP POP PUSH3 0x455 PUSH1 0x40 MLOAD DUP1 PUSH1 0x40 ADD PUSH1 0x40 MSTORE DUP1 PUSH1 0x2 DUP2 MSTORE PUSH1 0x20 ADD PUSH32 0x613A000000000000000000000000000000000000000000000000000000000000 DUP2 MSTORE POP DUP6 PUSH3 0x607 JUMP JUMPDEST DUP3 DUP3 DUP3 PUSH1 0x40 MLOAD PUSH3 0x466 SWAP1 PUSH3 0x6D0 JUMP JUMPDEST PUSH3 0x474 SWAP4 SWAP3 SWAP2 SWAP1 PUSH3 0xB66 JUMP JUMPDEST PUSH1 0x40 MLOAD DUP1 SWAP2 SUB SWAP1 PUSH1 0x0 CREATE DUP1 ISZERO DUP1 ISZERO PUSH3 0x491 JUMPI RETURNDATASIZE PUSH1 0x0 DUP1 RETURNDATACOPY RETURNDATASIZE PUSH1 0x0 REVERT JUMPDEST POP PUSH1 0x0 DUP1 PUSH2 0x100 EXP DUP2 SLOAD DUP2 PUSH20 0xFFFFFFFFFFFFFFFFFFFFFFFFFFFFFFFFFFFFFFFF MUL NOT AND SWAP1 DUP4 PUSH20 0xFFFFFFFFFFFFFFFFFFFFFFFFFFFFFFFFFFFFFFFF AND MUL OR SWAP1 SSTORE POP PUSH20 0x0 PUSH4 0xABCD7960 PUSH1 0x1 DUP5 PUSH1 0x0 DUP2 MLOAD DUP2 LT PUSH3 0x504 JUMPI PUSH3 0x503 PUSH3 0xA58 JUMP JUMPDEST JUMPDEST PUSH1 0x20 MUL PUSH1 0x20 ADD ADD MLOAD PUSH1 0x40 MLOAD DUP4 PUSH4 0xFFFFFFFF AND PUSH1 0xE0 SHL DUP2 MSTORE PUSH1 0x4 ADD PUSH3 0x52B SWAP3 SWAP2 SWAP1 PUSH3 0xC01 JUMP JUMPDEST PUSH1 0x20 PUSH1 0x40 MLOAD DUP1 DUP4 SUB DUP2 DUP7 GAS DELEGATECALL ISZERO DUP1 ISZERO PUSH3 0x549 JUMPI RETURNDATASIZE PUSH1 0x0 DUP1 RETURNDATACOPY RETURNDATASIZE PUSH1 0x0 REVERT JUMPDEST POP POP POP POP PUSH1 0x40 MLOAD RETURNDATASIZE PUSH1 0x1F NOT PUSH1 0x1F DUP3 ADD AND DUP3 ADD DUP1 PUSH1 0x40 MSTORE POP DUP2 ADD SWAP1 PUSH3 0x56F SWAP2 SWAP1 PUSH3 0x85F JUMP JUMPDEST POP POP POP POP POP JUMP JUMPDEST PUSH3 0x582 PUSH1 0xC PUSH3 0x32C JUMP JUMPDEST JUMP JUMPDEST PUSH20 0x0 PUSH4 0xABCD7960 CALLVALUE PUSH1 0x64 PUSH1 0x40 MLOAD DUP4 PUSH4 0xFFFFFFFF AND PUSH1 0xE0 SHL DUP2 MSTORE PUSH1 0x4 ADD PUSH3 0x5C0 SWAP3 SWAP2 SWAP1 PUSH3 0xCE0 JUMP JUMPDEST PUSH1 0x20 PUSH1 0x40 MLOAD DUP1 DUP4 SUB DUP2 DUP7 GAS DELEGATECALL ISZERO DUP1 ISZERO PUSH3 0x5DE JUMPI RETURNDATASIZE PUSH1 0x0 DUP1 RETURNDATACOPY RETURNDATASIZE PUSH1 0x0 REVERT JUMPDEST POP POP POP POP PUSH1 0x40 MLOAD RETURNDATASIZE PUSH1 0x1F NOT PUSH1 0x1F DUP3 ADD AND DUP3 ADD DUP1 PUSH1 0x40 MSTORE POP DUP2 ADD SWAP1 PUSH3 0x604 SWAP2 SWAP1 PUSH3 0x85F JUMP JUMPDEST POP JUMP JUMPDEST PUSH3 0x6A3 DUP3 DUP3 PUSH1 0x40 MLOAD PUSH1 0x24 ADD PUSH3 0x620 SWAP3 SWAP2 SWAP1 PUSH3 0xDBC JUMP JUMPDEST PUSH1 0x40 MLOAD PUSH1 0x20 DUP2 DUP4 SUB SUB DUP2 MSTORE SWAP1 PUSH1 0x40 MSTORE PUSH32 0xB60E72CC00000000000000000000000000000000000000000000000000000000 PUSH28 0xFFFFFFFFFFFFFFFFFFFFFFFFFFFFFFFFFFFFFFFFFFFFFFFFFFFFFFFF NOT AND PUSH1 0x20 DUP3 ADD DUP1 MLOAD PUSH28 0xFFFFFFFFFFFFFFFFFFFFFFFFFFFFFFFFFFFFFFFFFFFFFFFFFFFFFFFF DUP4 DUP2 DUP4 AND OR DUP4 MSTORE POP POP POP POP PUSH3 0x6A7 JUMP JUMPDEST POP POP JUMP JUMPDEST PUSH1 0x0 DUP2 MLOAD SWAP1 POP PUSH1 0x0 PUSH11 0x636F6E736F6C652E6C6F67 SWAP1 POP PUSH1 0x20 DUP4 ADD PUSH1 0x0 DUP1 DUP5 DUP4 DUP6 GAS STATICCALL POP POP POP POP POP JUMP JUMPDEST PUSH2 0x1626 DUP1 PUSH3 0xDF1 DUP4 CODECOPY ADD SWAP1 JUMP JUMPDEST PUSH1 0x0 DUP2 ISZERO ISZERO SWAP1 POP SWAP2 SWAP1 POP JUMP JUMPDEST PUSH3 0x6F5 DUP2 PUSH3 0x6DE JUMP JUMPDEST DUP3 MSTORE POP POP JUMP JUMPDEST PUSH1 0x0 PUSH1 0x20 DUP3 ADD SWAP1 POP PUSH3 0x712 PUSH1 0x0 DUP4 ADD DUP5 PUSH3 0x6EA JUMP JUMPDEST SWAP3 SWAP2 POP POP JUMP JUMPDEST PUSH1 0x0 DUP1 REVERT JUMPDEST PUSH1 0x0 DUP2 SWAP1 POP SWAP2 SWAP1 POP JUMP JUMPDEST PUSH3 0x732 DUP2 PUSH3 0x71D JUMP JUMPDEST DUP2 EQ PUSH3 0x73E JUMPI PUSH1 0x0 DUP1 REVERT JUMPDEST POP JUMP JUMPDEST PUSH1 0x0 DUP2 CALLDATALOAD SWAP1 POP PUSH3 0x752 DUP2 PUSH3 0x727 JUMP JUMPDEST SWAP3 SWAP2 POP POP JUMP JUMPDEST PUSH1 0x0 PUSH1 0x20 DUP3 DUP5 SUB SLT ISZERO PUSH3 0x771 JUMPI PUSH3 0x770 PUSH3 0x718 JUMP JUMPDEST JUMPDEST PUSH1 0x0 PUSH3 0x781 DUP5 DUP3 DUP6 ADD PUSH3 0x741 JUMP JUMPDEST SWAP2 POP POP SWAP3 SWAP2 POP POP JUMP JUMPDEST PUSH3 0x795 DUP2 PUSH3 0x6DE JUMP JUMPDEST DUP3 MSTORE POP POP JUMP JUMPDEST PUSH1 0x0 DUP3 DUP3 MSTORE PUSH1 0x20 DUP3 ADD SWAP1 POP SWAP3 SWAP2 POP POP JUMP JUMPDEST PUSH32 0x73686F756C642062652074727565000000000000000000000000000000000000 PUSH1 0x0 DUP3 ADD MSTORE POP JUMP JUMPDEST PUSH1 0x0 PUSH3 0x7E4 PUSH1 0xE DUP4 PUSH3 0x79B JUMP JUMPDEST SWAP2 POP PUSH3 0x7F1 DUP3 PUSH3 0x7AC JUMP JUMPDEST PUSH1 0x20 DUP3 ADD SWAP1 POP SWAP2 SWAP1 POP JUMP JUMPDEST PUSH1 0x0 PUSH1 0x40 DUP3 ADD SWAP1 POP PUSH3 0x813 PUSH1 0x0 DUP4 ADD DUP5 PUSH3 0x78A JUMP JUMPDEST DUP2 DUP2 SUB PUSH1 0x20 DUP4 ADD MSTORE PUSH3 0x826 DUP2 PUSH3 0x7D5 JUMP JUMPDEST SWAP1 POP SWAP3 SWAP2 POP POP JUMP JUMPDEST PUSH3 0x839 DUP2 PUSH3 0x6DE JUMP JUMPDEST DUP2 EQ PUSH3 0x845 JUMPI PUSH1 0x0 DUP1 REVERT JUMPDEST POP JUMP JUMPDEST PUSH1 0x0 DUP2 MLOAD SWAP1 POP PUSH3 0x859 DUP2 PUSH3 0x82E JUMP JUMPDEST SWAP3 SWAP2 POP POP JUMP JUMPDEST PUSH1 0x0 PUSH1 0x20 DUP3 DUP5 SUB SLT ISZERO PUSH3 0x878 JUMPI PUSH3 0x877 PUSH3 0x718 JUMP JUMPDEST JUMPDEST PUSH1 0x0 PUSH3 0x888 DUP5 DUP3 DUP6 ADD PUSH3 0x848 JUMP JUMPDEST SWAP2 POP POP SWAP3 SWAP2 POP POP JUMP JUMPDEST PUSH3 0x89C DUP2 PUSH3 0x71D JUMP JUMPDEST DUP3 MSTORE POP POP JUMP JUMPDEST PUSH32 0x322073686F756C642062652067726561746572207468616E20746F2031000000 PUSH1 0x0 DUP3 ADD MSTORE POP JUMP JUMPDEST PUSH1 0x0 PUSH3 0x8DA PUSH1 0x1D DUP4 PUSH3 0x79B JUMP JUMPDEST SWAP2 POP PUSH3 0x8E7 DUP3 PUSH3 0x8A2 JUMP JUMPDEST PUSH1 0x20 DUP3 ADD SWAP1 POP SWAP2 SWAP1 POP JUMP JUMPDEST PUSH1 0x0 PUSH1 0x60 DUP3 ADD SWAP1 POP PUSH3 0x909 PUSH1 0x0 DUP4 ADD DUP6 PUSH3 0x891 JUMP JUMPDEST PUSH3 0x918 PUSH1 0x20 DUP4 ADD DUP5 PUSH3 0x891 JUMP JUMPDEST DUP2 DUP2 SUB PUSH1 0x40 DUP4 ADD MSTORE PUSH3 0x92B DUP2 PUSH3 0x8CB JUMP JUMPDEST SWAP1 POP SWAP4 SWAP3 POP POP POP JUMP JUMPDEST PUSH32 0x322073686F756C64206265206C6573736572207468616E20746F203300000000 PUSH1 0x0 DUP3 ADD MSTORE POP JUMP JUMPDEST PUSH1 0x0 PUSH3 0x96C PUSH1 0x1C DUP4 PUSH3 0x79B JUMP JUMPDEST SWAP2 POP PUSH3 0x979 DUP3 PUSH3 0x934 JUMP JUMPDEST PUSH1 0x20 DUP3 ADD SWAP1 POP SWAP2 SWAP1 POP JUMP JUMPDEST PUSH1 0x0 PUSH1 0x60 DUP3 ADD SWAP1 POP PUSH3 0x99B PUSH1 0x0 DUP4 ADD DUP6 PUSH3 0x891 JUMP JUMPDEST PUSH3 0x9AA PUSH1 0x20 DUP4 ADD DUP5 PUSH3 0x891 JUMP JUMPDEST DUP2 DUP2 SUB PUSH1 0x40 DUP4 ADD MSTORE PUSH3 0x9BD DUP2 PUSH3 0x95D JUMP JUMPDEST SWAP1 POP SWAP4 SWAP3 POP POP POP JUMP JUMPDEST PUSH32 0x312073686F756C64206E6F7420626520657175616C20746F2031000000000000 PUSH1 0x0 DUP3 ADD MSTORE POP JUMP JUMPDEST PUSH1 0x0 PUSH3 0x9FE PUSH1 0x1A DUP4 PUSH3 0x79B JUMP JUMPDEST SWAP2 POP PUSH3 0xA0B DUP3 PUSH3 0x9C6 JUMP JUMPDEST PUSH1 0x20 DUP3 ADD SWAP1 POP SWAP2 SWAP1 POP JUMP JUMPDEST PUSH1 0x0 PUSH1 0x60 DUP3 ADD SWAP1 POP PUSH3 0xA2D PUSH1 0x0 DUP4 ADD DUP6 PUSH3 0x891 JUMP JUMPDEST PUSH3 0xA3C PUSH1 0x20 DUP4 ADD DUP5 PUSH3 0x891 JUMP JUMPDEST DUP2 DUP2 SUB PUSH1 0x40 DUP4 ADD MSTORE PUSH3 0xA4F DUP2 PUSH3 0x9EF JUMP JUMPDEST SWAP1 POP SWAP4 SWAP3 POP POP POP JUMP JUMPDEST PUSH32 0x4E487B7100000000000000000000000000000000000000000000000000000000 PUSH1 0x0 MSTORE PUSH1 0x32 PUSH1 0x4 MSTORE PUSH1 0x24 PUSH1 0x0 REVERT JUMPDEST PUSH3 0xA92 DUP2 PUSH3 0x71D JUMP JUMPDEST DUP3 MSTORE POP POP JUMP JUMPDEST PUSH1 0x0 DUP2 MLOAD SWAP1 POP SWAP2 SWAP1 POP JUMP JUMPDEST PUSH1 0x0 DUP3 DUP3 MSTORE PUSH1 0x20 DUP3 ADD SWAP1 POP SWAP3 SWAP2 POP POP JUMP JUMPDEST PUSH1 0x0 DUP2 SWAP1 POP PUSH1 0x20 DUP3 ADD SWAP1 POP SWAP2 SWAP1 POP JUMP JUMPDEST PUSH3 0xACF DUP2 PUSH3 0x71D JUMP JUMPDEST DUP3 MSTORE POP POP JUMP JUMPDEST PUSH1 0x0 PUSH3 0xAE3 DUP4 DUP4 PUSH3 0xAC4 JUMP JUMPDEST PUSH1 0x20 DUP4 ADD SWAP1 POP SWAP3 SWAP2 POP POP JUMP JUMPDEST PUSH1 0x0 PUSH1 0x20 DUP3 ADD SWAP1 POP SWAP2 SWAP1 POP JUMP JUMPDEST PUSH1 0x0 PUSH3 0xB09 DUP3 PUSH3 0xA98 JUMP JUMPDEST PUSH3 0xB15 DUP2 DUP6 PUSH3 0xAA3 JUMP JUMPDEST SWAP4 POP PUSH3 0xB22 DUP4 PUSH3 0xAB4 JUMP JUMPDEST DUP1 PUSH1 0x0 JUMPDEST DUP4 DUP2 LT ISZERO PUSH3 0xB59 JUMPI DUP2 MLOAD PUSH3 0xB3D DUP9 DUP3 PUSH3 0xAD5 JUMP JUMPDEST SWAP8 POP PUSH3 0xB4A DUP4 PUSH3 0xAEF JUMP JUMPDEST SWAP3 POP POP PUSH1 0x1 DUP2 ADD SWAP1 POP PUSH3 0xB26 JUMP JUMPDEST POP DUP6 SWAP4 POP POP POP POP SWAP3 SWAP2 POP POP JUMP JUMPDEST PUSH1 0x0 PUSH1 0x60 DUP3 ADD SWAP1 POP PUSH3 0xB7D PUSH1 0x0 DUP4 ADD DUP7 PUSH3 0xA87 JUMP JUMPDEST DUP2 DUP2 SUB PUSH1 0x20 DUP4 ADD MSTORE PUSH3 0xB91 DUP2 DUP6 PUSH3 0xAFC JUMP JUMPDEST SWAP1 POP DUP2 DUP2 SUB PUSH1 0x40 DUP4 ADD MSTORE PUSH3 0xBA7 DUP2 DUP5 PUSH3 0xAFC JUMP JUMPDEST SWAP1 POP SWAP5 SWAP4 POP POP POP POP JUMP JUMPDEST PUSH32 0x312073686F756C6420626520657175616C20746F206974656D4964735B305D20 PUSH1 0x0 DUP3 ADD MSTORE POP JUMP JUMPDEST PUSH1 0x0 PUSH3 0xBE9 PUSH1 0x20 DUP4 PUSH3 0x79B JUMP JUMPDEST SWAP2 POP PUSH3 0xBF6 DUP3 PUSH3 0xBB1 JUMP JUMPDEST PUSH1 0x20 DUP3 ADD SWAP1 POP SWAP2 SWAP1 POP JUMP JUMPDEST PUSH1 0x0 PUSH1 0x60 DUP3 ADD SWAP1 POP PUSH3 0xC18 PUSH1 0x0 DUP4 ADD DUP6 PUSH3 0x891 JUMP JUMPDEST PUSH3 0xC27 PUSH1 0x20 DUP4 ADD DUP5 PUSH3 0x891 JUMP JUMPDEST DUP2 DUP2 SUB PUSH1 0x40 DUP4 ADD MSTORE PUSH3 0xC3A DUP2 PUSH3 0xBDA JUMP JUMPDEST SWAP1 POP SWAP4 SWAP3 POP POP POP JUMP JUMPDEST PUSH1 0x0 DUP2 SWAP1 POP SWAP2 SWAP1 POP JUMP JUMPDEST PUSH1 0x0 DUP2 SWAP1 POP SWAP2 SWAP1 POP JUMP JUMPDEST PUSH1 0x0 PUSH3 0xC78 PUSH3 0xC72 PUSH3 0xC6C DUP5 PUSH3 0xC43 JUMP JUMPDEST PUSH3 0xC4D JUMP JUMPDEST PUSH3 0x71D JUMP JUMPDEST SWAP1 POP SWAP2 SWAP1 POP JUMP JUMPDEST PUSH3 0xC8A DUP2 PUSH3 0xC57 JUMP JUMPDEST DUP3 MSTORE POP POP JUMP JUMPDEST PUSH32 0x496E76616C69642076616C756500000000000000000000000000000000000000 PUSH1 0x0 DUP3 ADD MSTORE POP JUMP JUMPDEST PUSH1 0x0 PUSH3 0xCC8 PUSH1 0xD DUP4 PUSH3 0x79B JUMP JUMPDEST SWAP2 POP PUSH3 0xCD5 DUP3 PUSH3 0xC90 JUMP JUMPDEST PUSH1 0x20 DUP3 ADD SWAP1 POP SWAP2 SWAP1 POP JUMP JUMPDEST PUSH1 0x0 PUSH1 0x60 DUP3 ADD SWAP1 POP PUSH3 0xCF7 PUSH1 0x0 DUP4 ADD DUP6 PUSH3 0x891 JUMP JUMPDEST PUSH3 0xD06 PUSH1 0x20 DUP4 ADD DUP5 PUSH3 0xC7F JUMP JUMPDEST DUP2 DUP2 SUB PUSH1 0x40 DUP4 ADD MSTORE PUSH3 0xD19 DUP2 PUSH3 0xCB9 JUMP JUMPDEST SWAP1 POP SWAP4 SWAP3 POP POP POP JUMP JUMPDEST PUSH1 0x0 DUP2 MLOAD SWAP1 POP SWAP2 SWAP1 POP JUMP JUMPDEST PUSH1 0x0 DUP3 DUP3 MSTORE PUSH1 0x20 DUP3 ADD SWAP1 POP SWAP3 SWAP2 POP POP JUMP JUMPDEST PUSH1 0x0 JUMPDEST DUP4 DUP2 LT ISZERO PUSH3 0xD5E JUMPI DUP1 DUP3 ADD MLOAD DUP2 DUP5 ADD MSTORE PUSH1 0x20 DUP2 ADD SWAP1 POP PUSH3 0xD41 JUMP JUMPDEST PUSH1 0x0 DUP5 DUP5 ADD MSTORE POP POP POP POP JUMP JUMPDEST PUSH1 0x0 PUSH1 0x1F NOT PUSH1 0x1F DUP4 ADD AND SWAP1 POP SWAP2 SWAP1 POP JUMP JUMPDEST PUSH1 0x0 PUSH3 0xD88 DUP3 PUSH3 0xD22 JUMP JUMPDEST PUSH3 0xD94 DUP2 DUP6 PUSH3 0xD2D JUMP JUMPDEST SWAP4 POP PUSH3 0xDA6 DUP2 DUP6 PUSH1 0x20 DUP7 ADD PUSH3 0xD3E JUMP JUMPDEST PUSH3 0xDB1 DUP2 PUSH3 0xD6A JUMP JUMPDEST DUP5 ADD SWAP2 POP POP SWAP3 SWAP2 POP POP JUMP JUMPDEST PUSH1 0x0 PUSH1 0x40 DUP3 ADD SWAP1 POP DUP2 DUP2 SUB PUSH1 0x0 DUP4 ADD MSTORE PUSH3 0xDD8 DUP2 DUP6 PUSH3 0xD7B JUMP JUMPDEST SWAP1 POP PUSH3 0xDE9 PUSH1 0x20 DUP4 ADD DUP5 PUSH3 0xA87 JUMP JUMPDEST SWAP4 SWAP3 POP POP POP JUMP INVALID PUSH1 0x80 PUSH1 0x40 MSTORE CALLVALUE DUP1 ISZERO PUSH3 0x11 JUMPI PUSH1 0x0 DUP1 REVERT JUMPDEST POP PUSH1 0x40 MLOAD PUSH3 0x1626 CODESIZE SUB DUP1 PUSH3 0x1626 DUP4 CODECOPY DUP2 DUP2 ADD PUSH1 0x40 MSTORE DUP2 ADD SWAP1 PUSH3 0x37 SWAP2 SWAP1 PUSH3 0x43D JUMP JUMPDEST DUP1 MLOAD DUP3 MLOAD EQ PUSH3 0x7E JUMPI PUSH1 0x40 MLOAD PUSH32 0x8C379A000000000000000000000000000000000000000000000000000000000 DUP2 MSTORE PUSH1 0x4 ADD PUSH3 0x75 SWAP1 PUSH3 0x55E JUMP JUMPDEST PUSH1 0x40 MLOAD DUP1 SWAP2 SUB SWAP1 REVERT JUMPDEST CALLER PUSH1 0x0 DUP1 PUSH2 0x100 EXP DUP2 SLOAD DUP2 PUSH20 0xFFFFFFFFFFFFFFFFFFFFFFFFFFFFFFFFFFFFFFFF MUL NOT AND SWAP1 DUP4 PUSH20 0xFFFFFFFFFFFFFFFFFFFFFFFFFFFFFFFFFFFFFFFF AND MUL OR SWAP1 SSTORE POP DUP3 TIMESTAMP PUSH3 0xCC SWAP2 SWAP1 PUSH3 0x5AF JUMP JUMPDEST PUSH1 0x1 DUP2 SWAP1 SSTORE POP PUSH1 0x0 JUMPDEST DUP3 MLOAD DUP2 LT ISZERO PUSH3 0x26F JUMPI PUSH1 0x40 MLOAD DUP1 PUSH1 0xA0 ADD PUSH1 0x40 MSTORE DUP1 DUP5 DUP4 DUP2 MLOAD DUP2 LT PUSH3 0x100 JUMPI PUSH3 0xFF PUSH3 0x5EA JUMP JUMPDEST JUMPDEST PUSH1 0x20 MUL PUSH1 0x20 ADD ADD MLOAD DUP2 MSTORE PUSH1 0x20 ADD DUP4 DUP4 DUP2 MLOAD DUP2 LT PUSH3 0x123 JUMPI PUSH3 0x122 PUSH3 0x5EA JUMP JUMPDEST JUMPDEST PUSH1 0x20 MUL PUSH1 0x20 ADD ADD MLOAD DUP2 MSTORE PUSH1 0x20 ADD PUSH1 0x0 DUP2 MSTORE PUSH1 0x20 ADD PUSH1 0x0 PUSH20 0xFFFFFFFFFFFFFFFFFFFFFFFFFFFFFFFFFFFFFFFF AND DUP2 MSTORE PUSH1 0x20 ADD PUSH1 0x1 ISZERO ISZERO DUP2 MSTORE POP PUSH1 0x2 PUSH1 0x0 DUP6 DUP5 DUP2 MLOAD DUP2 LT PUSH3 0x175 JUMPI PUSH3 0x174 PUSH3 0x5EA JUMP JUMPDEST JUMPDEST PUSH1 0x20 MUL PUSH1 0x20 ADD ADD MLOAD DUP2 MSTORE PUSH1 0x20 ADD SWAP1 DUP2 MSTORE PUSH1 0x20 ADD PUSH1 0x0 KECCAK256 PUSH1 0x0 DUP3 ADD MLOAD DUP2 PUSH1 0x0 ADD SSTORE PUSH1 0x20 DUP3 ADD MLOAD DUP2 PUSH1 0x1 ADD SSTORE PUSH1 0x40 DUP3 ADD MLOAD DUP2 PUSH1 0x2 ADD SSTORE PUSH1 0x60 DUP3 ADD MLOAD DUP2 PUSH1 0x3 ADD PUSH1 0x0 PUSH2 0x100 EXP DUP2 SLOAD DUP2 PUSH20 0xFFFFFFFFFFFFFFFFFFFFFFFFFFFFFFFFFFFFFFFF MUL NOT AND SWAP1 DUP4 PUSH20 0xFFFFFFFFFFFFFFFFFFFFFFFFFFFFFFFFFFFFFFFF AND MUL OR SWAP1 SSTORE POP PUSH1 0x80 DUP3 ADD MLOAD DUP2 PUSH1 0x3 ADD PUSH1 0x14 PUSH2 0x100 EXP DUP2 SLOAD DUP2 PUSH1 0xFF MUL NOT AND SWAP1 DUP4 ISZERO ISZERO MUL OR SWAP1 SSTORE POP SWAP1 POP POP PUSH1 0x4 DUP4 DUP3 DUP2 MLOAD DUP2 LT PUSH3 0x22B JUMPI PUSH3 0x22A PUSH3 0x5EA JUMP JUMPDEST JUMPDEST PUSH1 0x20 MUL PUSH1 0x20 ADD ADD MLOAD SWAP1 DUP1 PUSH1 0x1 DUP2 SLOAD ADD DUP1 DUP3 SSTORE DUP1 SWAP2 POP POP PUSH1 0x1 SWAP1 SUB SWAP1 PUSH1 0x0 MSTORE PUSH1 0x20 PUSH1 0x0 KECCAK256 ADD PUSH1 0x0 SWAP1 SWAP2 SWAP1 SWAP2 SWAP1 SWAP2 POP SSTORE DUP1 DUP1 PUSH3 0x266 SWAP1 PUSH3 0x619 JUMP JUMPDEST SWAP2 POP POP PUSH3 0xD5 JUMP JUMPDEST POP POP POP POP PUSH3 0x666 JUMP JUMPDEST PUSH1 0x0 PUSH1 0x40 MLOAD SWAP1 POP SWAP1 JUMP JUMPDEST PUSH1 0x0 DUP1 REVERT JUMPDEST PUSH1 0x0 DUP1 REVERT JUMPDEST PUSH1 0x0 DUP2 SWAP1 POP SWAP2 SWAP1 POP JUMP JUMPDEST PUSH3 0x2A2 DUP2 PUSH3 0x28D JUMP JUMPDEST DUP2 EQ PUSH3 0x2AE JUMPI PUSH1 0x0 DUP1 REVERT JUMPDEST POP JUMP JUMPDEST PUSH1 0x0 DUP2 MLOAD SWAP1 POP PUSH3 0x2C2 DUP2 PUSH3 0x297 JUMP JUMPDEST SWAP3 SWAP2 POP POP JUMP JUMPDEST PUSH1 0x0 DUP1 REVERT JUMPDEST PUSH1 0x0 PUSH1 0x1F NOT PUSH1 0x1F DUP4 ADD AND SWAP1 POP SWAP2 SWAP1 POP JUMP JUMPDEST PUSH32 0x4E487B7100000000000000000000000000000000000000000000000000000000 PUSH1 0x0 MSTORE PUSH1 0x41 PUSH1 0x4 MSTORE PUSH1 0x24 PUSH1 0x0 REVERT JUMPDEST PUSH3 0x318 DUP3 PUSH3 0x2CD JUMP JUMPDEST DUP2 ADD DUP2 DUP2 LT PUSH8 0xFFFFFFFFFFFFFFFF DUP3 GT OR ISZERO PUSH3 0x33A JUMPI PUSH3 0x339 PUSH3 0x2DE JUMP JUMPDEST JUMPDEST DUP1 PUSH1 0x40 MSTORE POP POP POP JUMP JUMPDEST PUSH1 0x0 PUSH3 0x34F PUSH3 0x279 JUMP JUMPDEST SWAP1 POP PUSH3 0x35D DUP3 DUP3 PUSH3 0x30D JUMP JUMPDEST SWAP2 SWAP1 POP JUMP JUMPDEST PUSH1 0x0 PUSH8 0xFFFFFFFFFFFFFFFF DUP3 GT ISZERO PUSH3 0x380 JUMPI PUSH3 0x37F PUSH3 0x2DE JUMP JUMPDEST JUMPDEST PUSH1 0x20 DUP3 MUL SWAP1 POP PUSH1 0x20 DUP2 ADD SWAP1 POP SWAP2 SWAP1 POP JUMP JUMPDEST PUSH1 0x0 DUP1 REVERT JUMPDEST PUSH1 0x0 PUSH3 0x3AD PUSH3 0x3A7 DUP5 PUSH3 0x362 JUMP JUMPDEST PUSH3 0x343 JUMP JUMPDEST SWAP1 POP DUP1 DUP4 DUP3 MSTORE PUSH1 0x20 DUP3 ADD SWAP1 POP PUSH1 0x20 DUP5 MUL DUP4 ADD DUP6 DUP2 GT ISZERO PUSH3 0x3D3 JUMPI PUSH3 0x3D2 PUSH3 0x391 JUMP JUMPDEST JUMPDEST DUP4 JUMPDEST DUP2 DUP2 LT ISZERO PUSH3 0x400 JUMPI DUP1 PUSH3 0x3EB DUP9 DUP3 PUSH3 0x2B1 JUMP JUMPDEST DUP5 MSTORE PUSH1 0x20 DUP5 ADD SWAP4 POP POP PUSH1 0x20 DUP2 ADD SWAP1 POP PUSH3 0x3D5 JUMP JUMPDEST POP POP POP SWAP4 SWAP3 POP POP POP JUMP JUMPDEST PUSH1 0x0 DUP3 PUSH1 0x1F DUP4 ADD SLT PUSH3 0x422 JUMPI PUSH3 0x421 PUSH3 0x2C8 JUMP JUMPDEST JUMPDEST DUP2 MLOAD PUSH3 0x434 DUP5 DUP3 PUSH1 0x20 DUP7 ADD PUSH3 0x396 JUMP JUMPDEST SWAP2 POP POP SWAP3 SWAP2 POP POP JUMP JUMPDEST PUSH1 0x0 DUP1 PUSH1 0x0 PUSH1 0x60 DUP5 DUP7 SUB SLT ISZERO PUSH3 0x459 JUMPI PUSH3 0x458 PUSH3 0x283 JUMP JUMPDEST JUMPDEST PUSH1 0x0 PUSH3 0x469 DUP7 DUP3 DUP8 ADD PUSH3 0x2B1 JUMP JUMPDEST SWAP4 POP POP PUSH1 0x20 DUP5 ADD MLOAD PUSH8 0xFFFFFFFFFFFFFFFF DUP2 GT ISZERO PUSH3 0x48D JUMPI PUSH3 0x48C PUSH3 0x288 JUMP JUMPDEST JUMPDEST PUSH3 0x49B DUP7 DUP3 DUP8 ADD PUSH3 0x40A JUMP JUMPDEST SWAP3 POP POP PUSH1 0x40 DUP5 ADD MLOAD PUSH8 0xFFFFFFFFFFFFFFFF DUP2 GT ISZERO PUSH3 0x4BF JUMPI PUSH3 0x4BE PUSH3 0x288 JUMP JUMPDEST JUMPDEST PUSH3 0x4CD DUP7 DUP3 DUP8 ADD PUSH3 0x40A JUMP JUMPDEST SWAP2 POP POP SWAP3 POP SWAP3 POP SWAP3 JUMP JUMPDEST PUSH1 0x0 DUP3 DUP3 MSTORE PUSH1 0x20 DUP3 ADD SWAP1 POP SWAP3 SWAP2 POP POP JUMP JUMPDEST PUSH32 0x4974656D2049447320616E64207374617274696E672062696473206172726179 PUSH1 0x0 DUP3 ADD MSTORE PUSH32 0x73206D7573742068617665207468652073616D65206C656E6774682E00000000 PUSH1 0x20 DUP3 ADD MSTORE POP JUMP JUMPDEST PUSH1 0x0 PUSH3 0x546 PUSH1 0x3C DUP4 PUSH3 0x4D7 JUMP JUMPDEST SWAP2 POP PUSH3 0x553 DUP3 PUSH3 0x4E8 JUMP JUMPDEST PUSH1 0x40 DUP3 ADD SWAP1 POP SWAP2 SWAP1 POP JUMP JUMPDEST PUSH1 0x0 PUSH1 0x20 DUP3 ADD SWAP1 POP DUP2 DUP2 SUB PUSH1 0x0 DUP4 ADD MSTORE PUSH3 0x579 DUP2 PUSH3 0x537 JUMP JUMPDEST SWAP1 POP SWAP2 SWAP1 POP JUMP JUMPDEST PUSH32 0x4E487B7100000000000000000000000000000000000000000000000000000000 PUSH1 0x0 MSTORE PUSH1 0x11 PUSH1 0x4 MSTORE PUSH1 0x24 PUSH1 0x0 REVERT JUMPDEST PUSH1 0x0 PUSH3 0x5BC DUP3 PUSH3 0x28D JUMP JUMPDEST SWAP2 POP PUSH3 0x5C9 DUP4 PUSH3 0x28D JUMP JUMPDEST SWAP3 POP DUP3 DUP3 ADD SWAP1 POP DUP1 DUP3 GT ISZERO PUSH3 0x5E4 JUMPI PUSH3 0x5E3 PUSH3 0x580 JUMP JUMPDEST JUMPDEST SWAP3 SWAP2 POP POP JUMP JUMPDEST PUSH32 0x4E487B7100000000000000000000000000000000000000000000000000000000 PUSH1 0x0 MSTORE PUSH1 0x32 PUSH1 0x4 MSTORE PUSH1 0x24 PUSH1 0x0 REVERT JUMPDEST PUSH1 0x0 PUSH3 0x626 DUP3 PUSH3 0x28D JUMP JUMPDEST SWAP2 POP PUSH32 0xFFFFFFFFFFFFFFFFFFFFFFFFFFFFFFFFFFFFFFFFFFFFFFFFFFFFFFFFFFFFFFFF DUP3 SUB PUSH3 0x65B JUMPI PUSH3 0x65A PUSH3 0x580 JUMP JUMPDEST JUMPDEST PUSH1 0x1 DUP3 ADD SWAP1 POP SWAP2 SWAP1 POP JUMP JUMPDEST PUSH2 0xFB0 DUP1 PUSH3 0x676 PUSH1 0x0 CODECOPY PUSH1 0x0 RETURN INVALID PUSH1 0x80 PUSH1 0x40 MSTORE PUSH1 0x4 CALLDATASIZE LT PUSH2 0x7B JUMPI PUSH1 0x0 CALLDATALOAD PUSH1 0xE0 SHR DUP1 PUSH4 0x8DDAC1EF GT PUSH2 0x4E JUMPI DUP1 PUSH4 0x8DDAC1EF EQ PUSH2 0x12F JUMPI DUP1 PUSH4 0xB3DC00FE EQ PUSH2 0x16C JUMPI DUP1 PUSH4 0xB9A2DE3A EQ PUSH2 0x1A9 JUMPI DUP1 PUSH4 0xBFB231D2 EQ PUSH2 0x1D2 JUMPI PUSH2 0x7B JUMP JUMPDEST DUP1 PUSH4 0x2E1A7D4D EQ PUSH2 0x80 JUMPI DUP1 PUSH4 0x454A2AB3 EQ PUSH2 0xBD JUMPI DUP1 PUSH4 0x4B449CBA EQ PUSH2 0xD9 JUMPI DUP1 PUSH4 0x5EC2C7BF EQ PUSH2 0x104 JUMPI JUMPDEST PUSH1 0x0 DUP1 REVERT JUMPDEST CALLVALUE DUP1 ISZERO PUSH2 0x8C JUMPI PUSH1 0x0 DUP1 REVERT JUMPDEST POP PUSH2 0xA7 PUSH1 0x4 DUP1 CALLDATASIZE SUB DUP2 ADD SWAP1 PUSH2 0xA2 SWAP2 SWAP1 PUSH2 0xA2D JUMP JUMPDEST PUSH2 0x213 JUMP JUMPDEST PUSH1 0x40 MLOAD PUSH2 0xB4 SWAP2 SWAP1 PUSH2 0xA75 JUMP JUMPDEST PUSH1 0x40 MLOAD DUP1 SWAP2 SUB SWAP1 RETURN JUMPDEST PUSH2 0xD7 PUSH1 0x4 DUP1 CALLDATASIZE SUB DUP2 ADD SWAP1 PUSH2 0xD2 SWAP2 SWAP1 PUSH2 0xA2D JUMP JUMPDEST PUSH2 0x36C JUMP JUMPDEST STOP JUMPDEST CALLVALUE DUP1 ISZERO PUSH2 0xE5 JUMPI PUSH1 0x0 DUP1 REVERT JUMPDEST POP PUSH2 0xEE PUSH2 0x645 JUMP JUMPDEST PUSH1 0x40 MLOAD PUSH2 0xFB SWAP2 SWAP1 PUSH2 0xA9F JUMP JUMPDEST PUSH1 0x40 MLOAD DUP1 SWAP2 SUB SWAP1 RETURN JUMPDEST CALLVALUE DUP1 ISZERO PUSH2 0x110 JUMPI PUSH1 0x0 DUP1 REVERT JUMPDEST POP PUSH2 0x119 PUSH2 0x64B JUMP JUMPDEST PUSH1 0x40 MLOAD PUSH2 0x126 SWAP2 SWAP1 PUSH2 0xAFB JUMP JUMPDEST PUSH1 0x40 MLOAD DUP1 SWAP2 SUB SWAP1 RETURN JUMPDEST CALLVALUE DUP1 ISZERO PUSH2 0x13B JUMPI PUSH1 0x0 DUP1 REVERT JUMPDEST POP PUSH2 0x156 PUSH1 0x4 DUP1 CALLDATASIZE SUB DUP2 ADD SWAP1 PUSH2 0x151 SWAP2 SWAP1 PUSH2 0xB42 JUMP JUMPDEST PUSH2 0x66F JUMP JUMPDEST PUSH1 0x40 MLOAD PUSH2 0x163 SWAP2 SWAP1 PUSH2 0xA9F JUMP JUMPDEST PUSH1 0x40 MLOAD DUP1 SWAP2 SUB SWAP1 RETURN JUMPDEST CALLVALUE DUP1 ISZERO PUSH2 0x178 JUMPI PUSH1 0x0 DUP1 REVERT JUMPDEST POP PUSH2 0x193 PUSH1 0x4 DUP1 CALLDATASIZE SUB DUP2 ADD SWAP1 PUSH2 0x18E SWAP2 SWAP1 PUSH2 0xA2D JUMP JUMPDEST PUSH2 0x694 JUMP JUMPDEST PUSH1 0x40 MLOAD PUSH2 0x1A0 SWAP2 SWAP1 PUSH2 0xA9F JUMP JUMPDEST PUSH1 0x40 MLOAD DUP1 SWAP2 SUB SWAP1 RETURN JUMPDEST CALLVALUE DUP1 ISZERO PUSH2 0x1B5 JUMPI PUSH1 0x0 DUP1 REVERT JUMPDEST POP PUSH2 0x1D0 PUSH1 0x4 DUP1 CALLDATASIZE SUB DUP2 ADD SWAP1 PUSH2 0x1CB SWAP2 SWAP1 PUSH2 0xA2D JUMP JUMPDEST PUSH2 0x6B8 JUMP JUMPDEST STOP JUMPDEST CALLVALUE DUP1 ISZERO PUSH2 0x1DE JUMPI PUSH1 0x0 DUP1 REVERT JUMPDEST POP PUSH2 0x1F9 PUSH1 0x4 DUP1 CALLDATASIZE SUB DUP2 ADD SWAP1 PUSH2 0x1F4 SWAP2 SWAP1 PUSH2 0xA2D JUMP JUMPDEST PUSH2 0x98F JUMP JUMPDEST PUSH1 0x40 MLOAD PUSH2 0x20A SWAP6 SWAP5 SWAP4 SWAP3 SWAP2 SWAP1 PUSH2 0xB82 JUMP JUMPDEST PUSH1 0x40 MLOAD DUP1 SWAP2 SUB SWAP1 RETURN JUMPDEST PUSH1 0x0 DUP1 PUSH1 0x3 PUSH1 0x0 DUP5 DUP2 MSTORE PUSH1 0x20 ADD SWAP1 DUP2 MSTORE PUSH1 0x20 ADD PUSH1 0x0 KECCAK256 PUSH1 0x0 CALLER PUSH20 0xFFFFFFFFFFFFFFFFFFFFFFFFFFFFFFFFFFFFFFFF AND PUSH20 0xFFFFFFFFFFFFFFFFFFFFFFFFFFFFFFFFFFFFFFFF AND DUP2 MSTORE PUSH1 0x20 ADD SWAP1 DUP2 MSTORE PUSH1 0x20 ADD PUSH1 0x0 KECCAK256 SLOAD SWAP1 POP PUSH1 0x0 DUP2 GT ISZERO PUSH2 0x361 JUMPI PUSH1 0x0 PUSH1 0x3 PUSH1 0x0 DUP6 DUP2 MSTORE PUSH1 0x20 ADD SWAP1 DUP2 MSTORE PUSH1 0x20 ADD PUSH1 0x0 KECCAK256 PUSH1 0x0 CALLER PUSH20 0xFFFFFFFFFFFFFFFFFFFFFFFFFFFFFFFFFFFFFFFF AND PUSH20 0xFFFFFFFFFFFFFFFFFFFFFFFFFFFFFFFFFFFFFFFF AND DUP2 MSTORE PUSH1 0x20 ADD SWAP1 DUP2 MSTORE PUSH1 0x20 ADD PUSH1 0x0 KECCAK256 DUP2 SWAP1 SSTORE POP CALLER PUSH20 0xFFFFFFFFFFFFFFFFFFFFFFFFFFFFFFFFFFFFFFFF AND PUSH2 0x8FC DUP3 SWAP1 DUP2 ISZERO MUL SWAP1 PUSH1 0x40 MLOAD PUSH1 0x0 PUSH1 0x40 MLOAD DUP1 DUP4 SUB DUP2 DUP6 DUP9 DUP9 CALL SWAP4 POP POP POP POP PUSH2 0x360 JUMPI DUP1 PUSH1 0x3 PUSH1 0x0 DUP6 DUP2 MSTORE PUSH1 0x20 ADD SWAP1 DUP2 MSTORE PUSH1 0x20 ADD PUSH1 0x0 KECCAK256 PUSH1 0x0 CALLER PUSH20 0xFFFFFFFFFFFFFFFFFFFFFFFFFFFFFFFFFFFFFFFF AND PUSH20 0xFFFFFFFFFFFFFFFFFFFFFFFFFFFFFFFFFFFFFFFF AND DUP2 MSTORE PUSH1 0x20 ADD SWAP1 DUP2 MSTORE PUSH1 0x20 ADD PUSH1 0x0 KECCAK256 DUP2 SWAP1 SSTORE POP PUSH1 0x0 SWAP2 POP POP PUSH2 0x367 JUMP JUMPDEST JUMPDEST PUSH1 0x1 SWAP2 POP POP JUMPDEST SWAP2 SWAP1 POP JUMP JUMPDEST PUSH1 0x2 PUSH1 0x0 DUP3 DUP2 MSTORE PUSH1 0x20 ADD SWAP1 DUP2 MSTORE PUSH1 0x20 ADD PUSH1 0x0 KECCAK256 PUSH1 0x3 ADD PUSH1 0x14 SWAP1 SLOAD SWAP1 PUSH2 0x100 EXP SWAP1 DIV PUSH1 0xFF AND PUSH2 0x3CF JUMPI PUSH1 0x40 MLOAD PUSH32 0x8C379A000000000000000000000000000000000000000000000000000000000 DUP2 MSTORE PUSH1 0x4 ADD PUSH2 0x3C6 SWAP1 PUSH2 0xC58 JUMP JUMPDEST PUSH1 0x40 MLOAD DUP1 SWAP2 SUB SWAP1 REVERT JUMPDEST PUSH1 0x1 SLOAD TIMESTAMP GT ISZERO PUSH2 0x414 JUMPI PUSH1 0x40 MLOAD PUSH32 0x8C379A000000000000000000000000000000000000000000000000000000000 DUP2 MSTORE PUSH1 0x4 ADD PUSH2 0x40B SWAP1 PUSH2 0xCC4 JUMP JUMPDEST PUSH1 0x40 MLOAD DUP1 SWAP2 SUB SWAP1 REVERT JUMPDEST PUSH1 0x2 PUSH1 0x0 DUP3 DUP2 MSTORE PUSH1 0x20 ADD SWAP1 DUP2 MSTORE PUSH1 0x20 ADD PUSH1 0x0 KECCAK256 PUSH1 0x1 ADD SLOAD CALLVALUE LT ISZERO PUSH2 0x46D JUMPI PUSH1 0x40 MLOAD PUSH32 0x8C379A000000000000000000000000000000000000000000000000000000000 DUP2 MSTORE PUSH1 0x4 ADD PUSH2 0x464 SWAP1 PUSH2 0xD56 JUMP JUMPDEST PUSH1 0x40 MLOAD DUP1 SWAP2 SUB SWAP1 REVERT JUMPDEST PUSH1 0x2 PUSH1 0x0 DUP3 DUP2 MSTORE PUSH1 0x20 ADD SWAP1 DUP2 MSTORE PUSH1 0x20 ADD PUSH1 0x0 KECCAK256 PUSH1 0x2 ADD SLOAD CALLVALUE GT PUSH2 0x4C5 JUMPI PUSH1 0x40 MLOAD PUSH32 0x8C379A000000000000000000000000000000000000000000000000000000000 DUP2 MSTORE PUSH1 0x4 ADD PUSH2 0x4BC SWAP1 PUSH2 0xDC2 JUMP JUMPDEST PUSH1 0x40 MLOAD DUP1 SWAP2 SUB SWAP1 REVERT JUMPDEST PUSH1 0x0 PUSH1 0x2 PUSH1 0x0 DUP4 DUP2 MSTORE PUSH1 0x20 ADD SWAP1 DUP2 MSTORE PUSH1 0x20 ADD PUSH1 0x0 KECCAK256 PUSH1 0x2 ADD SLOAD EQ PUSH2 0x597 JUMPI PUSH1 0x2 PUSH1 0x0 DUP3 DUP2 MSTORE PUSH1 0x20 ADD SWAP1 DUP2 MSTORE PUSH1 0x20 ADD PUSH1 0x0 KECCAK256 PUSH1 0x2 ADD SLOAD PUSH1 0x3 PUSH1 0x0 DUP4 DUP2 MSTORE PUSH1 0x20 ADD SWAP1 DUP2 MSTORE PUSH1 0x20 ADD PUSH1 0x0 KECCAK256 PUSH1 0x0 PUSH1 0x2 PUSH1 0x0 DUP6 DUP2 MSTORE PUSH1 0x20 ADD SWAP1 DUP2 MSTORE PUSH1 0x20 ADD PUSH1 0x0 KECCAK256 PUSH1 0x3 ADD PUSH1 0x0 SWAP1 SLOAD SWAP1 PUSH2 0x100 EXP SWAP1 DIV PUSH20 0xFFFFFFFFFFFFFFFFFFFFFFFFFFFFFFFFFFFFFFFF AND PUSH20 0xFFFFFFFFFFFFFFFFFFFFFFFFFFFFFFFFFFFFFFFF AND PUSH20 0xFFFFFFFFFFFFFFFFFFFFFFFFFFFFFFFFFFFFFFFF AND DUP2 MSTORE PUSH1 0x20 ADD SWAP1 DUP2 MSTORE PUSH1 0x20 ADD PUSH1 0x0 KECCAK256 PUSH1 0x0 DUP3 DUP3 SLOAD PUSH2 0x58F SWAP2 SWAP1 PUSH2 0xE11 JUMP JUMPDEST SWAP3 POP POP DUP2 SWAP1 SSTORE POP JUMPDEST CALLER PUSH1 0x2 PUSH1 0x0 DUP4 DUP2 MSTORE PUSH1 0x20 ADD SWAP1 DUP2 MSTORE PUSH1 0x20 ADD PUSH1 0x0 KECCAK256 PUSH1 0x3 ADD PUSH1 0x0 PUSH2 0x100 EXP DUP2 SLOAD DUP2 PUSH20 0xFFFFFFFFFFFFFFFFFFFFFFFFFFFFFFFFFFFFFFFF MUL NOT AND SWAP1 DUP4 PUSH20 0xFFFFFFFFFFFFFFFFFFFFFFFFFFFFFFFFFFFFFFFF AND MUL OR SWAP1 SSTORE POP CALLVALUE PUSH1 0x2 PUSH1 0x0 DUP4 DUP2 MSTORE PUSH1 0x20 ADD SWAP1 DUP2 MSTORE PUSH1 0x20 ADD PUSH1 0x0 KECCAK256 PUSH1 0x2 ADD DUP2 SWAP1 SSTORE POP PUSH32 0xDA0A18DA71D8EBD145966339A728FC0D8CCC07C22870D561890D823C515DDA6B DUP2 CALLER CALLVALUE PUSH1 0x40 MLOAD PUSH2 0x63A SWAP4 SWAP3 SWAP2 SWAP1 PUSH2 0xE45 JUMP JUMPDEST PUSH1 0x40 MLOAD DUP1 SWAP2 SUB SWAP1 LOG1 POP JUMP JUMPDEST PUSH1 0x1 SLOAD DUP2 JUMP JUMPDEST PUSH1 0x0 DUP1 SLOAD SWAP1 PUSH2 0x100 EXP SWAP1 DIV PUSH20 0xFFFFFFFFFFFFFFFFFFFFFFFFFFFFFFFFFFFFFFFF AND DUP2 JUMP JUMPDEST PUSH1 0x3 PUSH1 0x20 MSTORE DUP2 PUSH1 0x0 MSTORE PUSH1 0x40 PUSH1 0x0 KECCAK256 PUSH1 0x20 MSTORE DUP1 PUSH1 0x0 MSTORE PUSH1 0x40 PUSH1 0x0 KECCAK256 PUSH1 0x0 SWAP2 POP SWAP2 POP POP SLOAD DUP2 JUMP JUMPDEST PUSH1 0x4 DUP2 DUP2 SLOAD DUP2 LT PUSH2 0x6A4 JUMPI PUSH1 0x0 DUP1 REVERT JUMPDEST SWAP1 PUSH1 0x0 MSTORE PUSH1 0x20 PUSH1 0x0 KECCAK256 ADD PUSH1 0x0 SWAP2 POP SWAP1 POP SLOAD DUP2 JUMP JUMPDEST PUSH1 0x0 DUP1 SLOAD SWAP1 PUSH2 0x100 EXP SWAP1 DIV PUSH20 0xFFFFFFFFFFFFFFFFFFFFFFFFFFFFFFFFFFFFFFFF AND PUSH20 0xFFFFFFFFFFFFFFFFFFFFFFFFFFFFFFFFFFFFFFFF AND CALLER PUSH20 0xFFFFFFFFFFFFFFFFFFFFFFFFFFFFFFFFFFFFFFFF AND EQ PUSH2 0x746 JUMPI PUSH1 0x40 MLOAD PUSH32 0x8C379A000000000000000000000000000000000000000000000000000000000 DUP2 MSTORE PUSH1 0x4 ADD PUSH2 0x73D SWAP1 PUSH2 0xEEE JUMP JUMPDEST PUSH1 0x40 MLOAD DUP1 SWAP2 SUB SWAP1 REVERT JUMPDEST PUSH1 0x1 SLOAD TIMESTAMP LT ISZERO PUSH2 0x78B JUMPI PUSH1 0x40 MLOAD PUSH32 0x8C379A000000000000000000000000000000000000000000000000000000000 DUP2 MSTORE PUSH1 0x4 ADD PUSH2 0x782 SWAP1 PUSH2 0xF5A JUMP JUMPDEST PUSH1 0x40 MLOAD DUP1 SWAP2 SUB SWAP1 REVERT JUMPDEST PUSH1 0x2 PUSH1 0x0 DUP3 DUP2 MSTORE PUSH1 0x20 ADD SWAP1 DUP2 MSTORE PUSH1 0x20 ADD PUSH1 0x0 KECCAK256 PUSH1 0x3 ADD PUSH1 0x14 SWAP1 SLOAD SWAP1 PUSH2 0x100 EXP SWAP1 DIV PUSH1 0xFF AND PUSH2 0x7EE JUMPI PUSH1 0x40 MLOAD PUSH32 0x8C379A000000000000000000000000000000000000000000000000000000000 DUP2 MSTORE PUSH1 0x4 ADD PUSH2 0x7E5 SWAP1 PUSH2 0xC58 JUMP JUMPDEST PUSH1 0x40 MLOAD DUP1 SWAP2 SUB SWAP1 REVERT JUMPDEST PUSH1 0x0 PUSH1 0x2 PUSH1 0x0 DUP4 DUP2 MSTORE PUSH1 0x20 ADD SWAP1 DUP2 MSTORE PUSH1 0x20 ADD PUSH1 0x0 KECCAK256 PUSH1 0x3 ADD PUSH1 0x14 PUSH2 0x100 EXP DUP2 SLOAD DUP2 PUSH1 0xFF MUL NOT AND SWAP1 DUP4 ISZERO ISZERO MUL OR SWAP1 SSTORE POP PUSH32 0xD2AA34A4FDBBC6DFF6A3E56F46E0F3AE2A31D7785FF3487AA5C95C642ACEA501 DUP2 PUSH1 0x2 PUSH1 0x0 DUP5 DUP2 MSTORE PUSH1 0x20 ADD SWAP1 DUP2 MSTORE PUSH1 0x20 ADD PUSH1 0x0 KECCAK256 PUSH1 0x3 ADD PUSH1 0x0 SWAP1 SLOAD SWAP1 PUSH2 0x100 EXP SWAP1 DIV PUSH20 0xFFFFFFFFFFFFFFFFFFFFFFFFFFFFFFFFFFFFFFFF AND PUSH1 0x2 PUSH1 0x0 DUP6 DUP2 MSTORE PUSH1 0x20 ADD SWAP1 DUP2 MSTORE PUSH1 0x20 ADD PUSH1 0x0 KECCAK256 PUSH1 0x2 ADD SLOAD PUSH1 0x40 MLOAD PUSH2 0x89C SWAP4 SWAP3 SWAP2 SWAP1 PUSH2 0xE45 JUMP JUMPDEST PUSH1 0x40 MLOAD DUP1 SWAP2 SUB SWAP1 LOG1 PUSH1 0x0 PUSH20 0xFFFFFFFFFFFFFFFFFFFFFFFFFFFFFFFFFFFFFFFF AND PUSH1 0x2 PUSH1 0x0 DUP4 DUP2 MSTORE PUSH1 0x20 ADD SWAP1 DUP2 MSTORE PUSH1 0x20 ADD PUSH1 0x0 KECCAK256 PUSH1 0x3 ADD PUSH1 0x0 SWAP1 SLOAD SWAP1 PUSH2 0x100 EXP SWAP1 DIV PUSH20 0xFFFFFFFFFFFFFFFFFFFFFFFFFFFFFFFFFFFFFFFF AND PUSH20 0xFFFFFFFFFFFFFFFFFFFFFFFFFFFFFFFFFFFFFFFF AND EQ PUSH2 0x98C JUMPI PUSH1 0x0 DUP1 SLOAD SWAP1 PUSH2 0x100 EXP SWAP1 DIV PUSH20 0xFFFFFFFFFFFFFFFFFFFFFFFFFFFFFFFFFFFFFFFF AND PUSH20 0xFFFFFFFFFFFFFFFFFFFFFFFFFFFFFFFFFFFFFFFF AND PUSH2 0x8FC PUSH1 0x2 PUSH1 0x0 DUP5 DUP2 MSTORE PUSH1 0x20 ADD SWAP1 DUP2 MSTORE PUSH1 0x20 ADD PUSH1 0x0 KECCAK256 PUSH1 0x2 ADD SLOAD SWAP1 DUP2 ISZERO MUL SWAP1 PUSH1 0x40 MLOAD PUSH1 0x0 PUSH1 0x40 MLOAD DUP1 DUP4 SUB DUP2 DUP6 DUP9 DUP9 CALL SWAP4 POP POP POP POP ISZERO DUP1 ISZERO PUSH2 0x98A JUMPI RETURNDATASIZE PUSH1 0x0 DUP1 RETURNDATACOPY RETURNDATASIZE PUSH1 0x0 REVERT JUMPDEST POP JUMPDEST POP JUMP JUMPDEST PUSH1 0x2 PUSH1 0x20 MSTORE DUP1 PUSH1 0x0 MSTORE PUSH1 0x40 PUSH1 0x0 KECCAK256 PUSH1 0x0 SWAP2 POP SWAP1 POP DUP1 PUSH1 0x0 ADD SLOAD SWAP1 DUP1 PUSH1 0x1 ADD SLOAD SWAP1 DUP1 PUSH1 0x2 ADD SLOAD SWAP1 DUP1 PUSH1 0x3 ADD PUSH1 0x0 SWAP1 SLOAD SWAP1 PUSH2 0x100 EXP SWAP1 DIV PUSH20 0xFFFFFFFFFFFFFFFFFFFFFFFFFFFFFFFFFFFFFFFF AND SWAP1 DUP1 PUSH1 0x3 ADD PUSH1 0x14 SWAP1 SLOAD SWAP1 PUSH2 0x100 EXP SWAP1 DIV PUSH1 0xFF AND SWAP1 POP DUP6 JUMP JUMPDEST PUSH1 0x0 DUP1 REVERT JUMPDEST PUSH1 0x0 DUP2 SWAP1 POP SWAP2 SWAP1 POP JUMP JUMPDEST PUSH2 0xA0A DUP2 PUSH2 0x9F7 JUMP JUMPDEST DUP2 EQ PUSH2 0xA15 JUMPI PUSH1 0x0 DUP1 REVERT JUMPDEST POP JUMP JUMPDEST PUSH1 0x0 DUP2 CALLDATALOAD SWAP1 POP PUSH2 0xA27 DUP2 PUSH2 0xA01 JUMP JUMPDEST SWAP3 SWAP2 POP POP JUMP JUMPDEST PUSH1 0x0 PUSH1 0x20 DUP3 DUP5 SUB SLT ISZERO PUSH2 0xA43 JUMPI PUSH2 0xA42 PUSH2 0x9F2 JUMP JUMPDEST JUMPDEST PUSH1 0x0 PUSH2 0xA51 DUP5 DUP3 DUP6 ADD PUSH2 0xA18 JUMP JUMPDEST SWAP2 POP POP SWAP3 SWAP2 POP POP JUMP JUMPDEST PUSH1 0x0 DUP2 ISZERO ISZERO SWAP1 POP SWAP2 SWAP1 POP JUMP JUMPDEST PUSH2 0xA6F DUP2 PUSH2 0xA5A JUMP JUMPDEST DUP3 MSTORE POP POP JUMP JUMPDEST PUSH1 0x0 PUSH1 0x20 DUP3 ADD SWAP1 POP PUSH2 0xA8A PUSH1 0x0 DUP4 ADD DUP5 PUSH2 0xA66 JUMP JUMPDEST SWAP3 SWAP2 POP POP JUMP JUMPDEST PUSH2 0xA99 DUP2 PUSH2 0x9F7 JUMP JUMPDEST DUP3 MSTORE POP POP JUMP JUMPDEST PUSH1 0x0 PUSH1 0x20 DUP3 ADD SWAP1 POP PUSH2 0xAB4 PUSH1 0x0 DUP4 ADD DUP5 PUSH2 0xA90 JUMP JUMPDEST SWAP3 SWAP2 POP POP JUMP JUMPDEST PUSH1 0x0 PUSH20 0xFFFFFFFFFFFFFFFFFFFFFFFFFFFFFFFFFFFFFFFF DUP3 AND SWAP1 POP SWAP2 SWAP1 POP JUMP JUMPDEST PUSH1 0x0 PUSH2 0xAE5 DUP3 PUSH2 0xABA JUMP JUMPDEST SWAP1 POP SWAP2 SWAP1 POP JUMP JUMPDEST PUSH2 0xAF5 DUP2 PUSH2 0xADA JUMP JUMPDEST DUP3 MSTORE POP POP JUMP JUMPDEST PUSH1 0x0 PUSH1 0x20 DUP3 ADD SWAP1 POP PUSH2 0xB10 PUSH1 0x0 DUP4 ADD DUP5 PUSH2 0xAEC JUMP JUMPDEST SWAP3 SWAP2 POP POP JUMP JUMPDEST PUSH2 0xB1F DUP2 PUSH2 0xADA JUMP JUMPDEST DUP2 EQ PUSH2 0xB2A JUMPI PUSH1 0x0 DUP1 REVERT JUMPDEST POP JUMP JUMPDEST PUSH1 0x0 DUP2 CALLDATALOAD SWAP1 POP PUSH2 0xB3C DUP2 PUSH2 0xB16 JUMP JUMPDEST SWAP3 SWAP2 POP POP JUMP JUMPDEST PUSH1 0x0 DUP1 PUSH1 0x40 DUP4 DUP6 SUB SLT ISZERO PUSH2 0xB59 JUMPI PUSH2 0xB58 PUSH2 0x9F2 JUMP JUMPDEST JUMPDEST PUSH1 0x0 PUSH2 0xB67 DUP6 DUP3 DUP7 ADD PUSH2 0xA18 JUMP JUMPDEST SWAP3 POP POP PUSH1 0x20 PUSH2 0xB78 DUP6 DUP3 DUP7 ADD PUSH2 0xB2D JUMP JUMPDEST SWAP2 POP POP SWAP3 POP SWAP3 SWAP1 POP JUMP JUMPDEST PUSH1 0x0 PUSH1 0xA0 DUP3 ADD SWAP1 POP PUSH2 0xB97 PUSH1 0x0 DUP4 ADD DUP9 PUSH2 0xA90 JUMP JUMPDEST PUSH2 0xBA4 PUSH1 0x20 DUP4 ADD DUP8 PUSH2 0xA90 JUMP JUMPDEST PUSH2 0xBB1 PUSH1 0x40 DUP4 ADD DUP7 PUSH2 0xA90 JUMP JUMPDEST PUSH2 0xBBE PUSH1 0x60 DUP4 ADD DUP6 PUSH2 0xAEC JUMP JUMPDEST PUSH2 0xBCB PUSH1 0x80 DUP4 ADD DUP5 PUSH2 0xA66 JUMP JUMPDEST SWAP7 SWAP6 POP POP POP POP POP POP JUMP JUMPDEST PUSH1 0x0 DUP3 DUP3 MSTORE PUSH1 0x20 DUP3 ADD SWAP1 POP SWAP3 SWAP2 POP POP JUMP JUMPDEST PUSH32 0x4974656D20646F6573206E6F74206578697374206F72206973206E6F74206163 PUSH1 0x0 DUP3 ADD MSTORE PUSH32 0x746976652E000000000000000000000000000000000000000000000000000000 PUSH1 0x20 DUP3 ADD MSTORE POP JUMP JUMPDEST PUSH1 0x0 PUSH2 0xC42 PUSH1 0x25 DUP4 PUSH2 0xBD5 JUMP JUMPDEST SWAP2 POP PUSH2 0xC4D DUP3 PUSH2 0xBE6 JUMP JUMPDEST PUSH1 0x40 DUP3 ADD SWAP1 POP SWAP2 SWAP1 POP JUMP JUMPDEST PUSH1 0x0 PUSH1 0x20 DUP3 ADD SWAP1 POP DUP2 DUP2 SUB PUSH1 0x0 DUP4 ADD MSTORE PUSH2 0xC71 DUP2 PUSH2 0xC35 JUMP JUMPDEST SWAP1 POP SWAP2 SWAP1 POP JUMP JUMPDEST PUSH32 0x41756374696F6E20616C726561647920656E6465642E00000000000000000000 PUSH1 0x0 DUP3 ADD MSTORE POP JUMP JUMPDEST PUSH1 0x0 PUSH2 0xCAE PUSH1 0x16 DUP4 PUSH2 0xBD5 JUMP JUMPDEST SWAP2 POP PUSH2 0xCB9 DUP3 PUSH2 0xC78 JUMP JUMPDEST PUSH1 0x20 DUP3 ADD SWAP1 POP SWAP2 SWAP1 POP JUMP JUMPDEST PUSH1 0x0 PUSH1 0x20 DUP3 ADD SWAP1 POP DUP2 DUP2 SUB PUSH1 0x0 DUP4 ADD MSTORE PUSH2 0xCDD DUP2 PUSH2 0xCA1 JUMP JUMPDEST SWAP1 POP SWAP2 SWAP1 POP JUMP JUMPDEST PUSH32 0x426964206D75737420626520657175616C206F7220686967686572207468616E PUSH1 0x0 DUP3 ADD MSTORE PUSH32 0x20746865206974656D2773207374617274696E67206269642E00000000000000 PUSH1 0x20 DUP3 ADD MSTORE POP JUMP JUMPDEST PUSH1 0x0 PUSH2 0xD40 PUSH1 0x39 DUP4 PUSH2 0xBD5 JUMP JUMPDEST SWAP2 POP PUSH2 0xD4B DUP3 PUSH2 0xCE4 JUMP JUMPDEST PUSH1 0x40 DUP3 ADD SWAP1 POP SWAP2 SWAP1 POP JUMP JUMPDEST PUSH1 0x0 PUSH1 0x20 DUP3 ADD SWAP1 POP DUP2 DUP2 SUB PUSH1 0x0 DUP4 ADD MSTORE PUSH2 0xD6F DUP2 PUSH2 0xD33 JUMP JUMPDEST SWAP1 POP SWAP2 SWAP1 POP JUMP JUMPDEST PUSH32 0x546865726520616C7265616479206973206120686967686572206269642E0000 PUSH1 0x0 DUP3 ADD MSTORE POP JUMP JUMPDEST PUSH1 0x0 PUSH2 0xDAC PUSH1 0x1E DUP4 PUSH2 0xBD5 JUMP JUMPDEST SWAP2 POP PUSH2 0xDB7 DUP3 PUSH2 0xD76 JUMP JUMPDEST PUSH1 0x20 DUP3 ADD SWAP1 POP SWAP2 SWAP1 POP JUMP JUMPDEST PUSH1 0x0 PUSH1 0x20 DUP3 ADD SWAP1 POP DUP2 DUP2 SUB PUSH1 0x0 DUP4 ADD MSTORE PUSH2 0xDDB DUP2 PUSH2 0xD9F JUMP JUMPDEST SWAP1 POP SWAP2 SWAP1 POP JUMP JUMPDEST PUSH32 0x4E487B7100000000000000000000000000000000000000000000000000000000 PUSH1 0x0 MSTORE PUSH1 0x11 PUSH1 0x4 MSTORE PUSH1 0x24 PUSH1 0x0 REVERT JUMPDEST PUSH1 0x0 PUSH2 0xE1C DUP3 PUSH2 0x9F7 JUMP JUMPDEST SWAP2 POP PUSH2 0xE27 DUP4 PUSH2 0x9F7 JUMP JUMPDEST SWAP3 POP DUP3 DUP3 ADD SWAP1 POP DUP1 DUP3 GT ISZERO PUSH2 0xE3F JUMPI PUSH2 0xE3E PUSH2 0xDE2 JUMP JUMPDEST JUMPDEST SWAP3 SWAP2 POP POP JUMP JUMPDEST PUSH1 0x0 PUSH1 0x60 DUP3 ADD SWAP1 POP PUSH2 0xE5A PUSH1 0x0 DUP4 ADD DUP7 PUSH2 0xA90 JUMP JUMPDEST PUSH2 0xE67 PUSH1 0x20 DUP4 ADD DUP6 PUSH2 0xAEC JUMP JUMPDEST PUSH2 0xE74 PUSH1 0x40 DUP4 ADD DUP5 PUSH2 0xA90 JUMP JUMPDEST SWAP5 SWAP4 POP POP POP POP JUMP JUMPDEST PUSH32 0x4F6E6C79207468652061756374696F6E6565722063616E20656E642074686520 PUSH1 0x0 DUP3 ADD MSTORE PUSH32 0x61756374696F6E2E000000000000000000000000000000000000000000000000 PUSH1 0x20 DUP3 ADD MSTORE POP JUMP JUMPDEST PUSH1 0x0 PUSH2 0xED8 PUSH1 0x28 DUP4 PUSH2 0xBD5 JUMP JUMPDEST SWAP2 POP PUSH2 0xEE3 DUP3 PUSH2 0xE7C JUMP JUMPDEST PUSH1 0x40 DUP3 ADD SWAP1 POP SWAP2 SWAP1 POP JUMP JUMPDEST PUSH1 0x0 PUSH1 0x20 DUP3 ADD SWAP1 POP DUP2 DUP2 SUB PUSH1 0x0 DUP4 ADD MSTORE PUSH2 0xF07 DUP2 PUSH2 0xECB JUMP JUMPDEST SWAP1 POP SWAP2 SWAP1 POP JUMP JUMPDEST PUSH32 0x41756374696F6E206E6F742079657420656E6465642E00000000000000000000 PUSH1 0x0 DUP3 ADD MSTORE POP JUMP JUMPDEST PUSH1 0x0 PUSH2 0xF44 PUSH1 0x16 DUP4 PUSH2 0xBD5 JUMP JUMPDEST SWAP2 POP PUSH2 0xF4F DUP3 PUSH2 0xF0E JUMP JUMPDEST PUSH1 0x20 DUP3 ADD SWAP1 POP SWAP2 SWAP1 POP JUMP JUMPDEST PUSH1 0x0 PUSH1 0x20 DUP3 ADD SWAP1 POP DUP2 DUP2 SUB PUSH1 0x0 DUP4 ADD MSTORE PUSH2 0xF73 DUP2 PUSH2 0xF37 JUMP JUMPDEST SWAP1 POP SWAP2 SWAP1 POP JUMP INVALID LOG2 PUSH5 0x6970667358 0x22 SLT KECCAK256 KECCAK256 CALL BLOCKHASH 0xC6 0xE5 0xD3 DUP16 SWAP10 0xC SSTORE 0xDB 0xC9 SWAP15 0xBD 0xC5 PUSH17 0xAA42890EA74D0C5931940BA83192D45864 PUSH20 0x6F6C63430008120033A26469706673582212202E JUMPDEST LOG2 SSTORE 0xB3 0x2F DELEGATECALL CODESIZE PUSH31 0x873B22E7B871BB115B3E5B5886FEA9612256D67C9FFF7A64736F6C63430008 SLT STOP CALLER PUSH1 0x80 PUSH1 0x40 MSTORE CALLVALUE DUP1 ISZERO PUSH3 0x11 JUMPI PUSH1 0x0 DUP1 REVERT JUMPDEST POP PUSH1 0x40 MLOAD PUSH3 0x1626 CODESIZE SUB DUP1 PUSH3 0x1626 DUP4 CODECOPY DUP2 DUP2 ADD PUSH1 0x40 MSTORE DUP2 ADD SWAP1 PUSH3 0x37 SWAP2 SWAP1 PUSH3 0x43D JUMP JUMPDEST DUP1 MLOAD DUP3 MLOAD EQ PUSH3 0x7E JUMPI PUSH1 0x40 MLOAD PUSH32 0x8C379A000000000000000000000000000000000000000000000000000000000 DUP2 MSTORE PUSH1 0x4 ADD PUSH3 0x75 SWAP1 PUSH3 0x55E JUMP JUMPDEST PUSH1 0x40 MLOAD DUP1 SWAP2 SUB SWAP1 REVERT JUMPDEST CALLER PUSH1 0x0 DUP1 PUSH2 0x100 EXP DUP2 SLOAD DUP2 PUSH20 0xFFFFFFFFFFFFFFFFFFFFFFFFFFFFFFFFFFFFFFFF MUL NOT AND SWAP1 DUP4 PUSH20 0xFFFFFFFFFFFFFFFFFFFFFFFFFFFFFFFFFFFFFFFF AND MUL OR SWAP1 SSTORE POP DUP3 TIMESTAMP PUSH3 0xCC SWAP2 SWAP1 PUSH3 0x5AF JUMP JUMPDEST PUSH1 0x1 DUP2 SWAP1 SSTORE POP PUSH1 0x0 JUMPDEST DUP3 MLOAD DUP2 LT ISZERO PUSH3 0x26F JUMPI PUSH1 0x40 MLOAD DUP1 PUSH1 0xA0 ADD PUSH1 0x40 MSTORE DUP1 DUP5 DUP4 DUP2 MLOAD DUP2 LT PUSH3 0x100 JUMPI PUSH3 0xFF PUSH3 0x5EA JUMP JUMPDEST JUMPDEST PUSH1 0x20 MUL PUSH1 0x20 ADD ADD MLOAD DUP2 MSTORE PUSH1 0x20 ADD DUP4 DUP4 DUP2 MLOAD DUP2 LT PUSH3 0x123 JUMPI PUSH3 0x122 PUSH3 0x5EA JUMP JUMPDEST JUMPDEST PUSH1 0x20 MUL PUSH1 0x20 ADD ADD MLOAD DUP2 MSTORE PUSH1 0x20 ADD PUSH1 0x0 DUP2 MSTORE PUSH1 0x20 ADD PUSH1 0x0 PUSH20 0xFFFFFFFFFFFFFFFFFFFFFFFFFFFFFFFFFFFFFFFF AND DUP2 MSTORE PUSH1 0x20 ADD PUSH1 0x1 ISZERO ISZERO DUP2 MSTORE POP PUSH1 0x2 PUSH1 0x0 DUP6 DUP5 DUP2 MLOAD DUP2 LT PUSH3 0x175 JUMPI PUSH3 0x174 PUSH3 0x5EA JUMP JUMPDEST JUMPDEST PUSH1 0x20 MUL PUSH1 0x20 ADD ADD MLOAD DUP2 MSTORE PUSH1 0x20 ADD SWAP1 DUP2 MSTORE PUSH1 0x20 ADD PUSH1 0x0 KECCAK256 PUSH1 0x0 DUP3 ADD MLOAD DUP2 PUSH1 0x0 ADD SSTORE PUSH1 0x20 DUP3 ADD MLOAD DUP2 PUSH1 0x1 ADD SSTORE PUSH1 0x40 DUP3 ADD MLOAD DUP2 PUSH1 0x2 ADD SSTORE PUSH1 0x60 DUP3 ADD MLOAD DUP2 PUSH1 0x3 ADD PUSH1 0x0 PUSH2 0x100 EXP DUP2 SLOAD DUP2 PUSH20 0xFFFFFFFFFFFFFFFFFFFFFFFFFFFFFFFFFFFFFFFF MUL NOT AND SWAP1 DUP4 PUSH20 0xFFFFFFFFFFFFFFFFFFFFFFFFFFFFFFFFFFFFFFFF AND MUL OR SWAP1 SSTORE POP PUSH1 0x80 DUP3 ADD MLOAD DUP2 PUSH1 0x3 ADD PUSH1 0x14 PUSH2 0x100 EXP DUP2 SLOAD DUP2 PUSH1 0xFF MUL NOT AND SWAP1 DUP4 ISZERO ISZERO MUL OR SWAP1 SSTORE POP SWAP1 POP POP PUSH1 0x4 DUP4 DUP3 DUP2 MLOAD DUP2 LT PUSH3 0x22B JUMPI PUSH3 0x22A PUSH3 0x5EA JUMP JUMPDEST JUMPDEST PUSH1 0x20 MUL PUSH1 0x20 ADD ADD MLOAD SWAP1 DUP1 PUSH1 0x1 DUP2 SLOAD ADD DUP1 DUP3 SSTORE DUP1 SWAP2 POP POP PUSH1 0x1 SWAP1 SUB SWAP1 PUSH1 0x0 MSTORE PUSH1 0x20 PUSH1 0x0 KECCAK256 ADD PUSH1 0x0 SWAP1 SWAP2 SWAP1 SWAP2 SWAP1 SWAP2 POP SSTORE DUP1 DUP1 PUSH3 0x266 SWAP1 PUSH3 0x619 JUMP JUMPDEST SWAP2 POP POP PUSH3 0xD5 JUMP JUMPDEST POP POP POP POP PUSH3 0x666 JUMP JUMPDEST PUSH1 0x0 PUSH1 0x40 MLOAD SWAP1 POP SWAP1 JUMP JUMPDEST PUSH1 0x0 DUP1 REVERT JUMPDEST PUSH1 0x0 DUP1 REVERT JUMPDEST PUSH1 0x0 DUP2 SWAP1 POP SWAP2 SWAP1 POP JUMP JUMPDEST PUSH3 0x2A2 DUP2 PUSH3 0x28D JUMP JUMPDEST DUP2 EQ PUSH3 0x2AE JUMPI PUSH1 0x0 DUP1 REVERT JUMPDEST POP JUMP JUMPDEST PUSH1 0x0 DUP2 MLOAD SWAP1 POP PUSH3 0x2C2 DUP2 PUSH3 0x297 JUMP JUMPDEST SWAP3 SWAP2 POP POP JUMP JUMPDEST PUSH1 0x0 DUP1 REVERT JUMPDEST PUSH1 0x0 PUSH1 0x1F NOT PUSH1 0x1F DUP4 ADD AND SWAP1 POP SWAP2 SWAP1 POP JUMP JUMPDEST PUSH32 0x4E487B7100000000000000000000000000000000000000000000000000000000 PUSH1 0x0 MSTORE PUSH1 0x41 PUSH1 0x4 MSTORE PUSH1 0x24 PUSH1 0x0 REVERT JUMPDEST PUSH3 0x318 DUP3 PUSH3 0x2CD JUMP JUMPDEST DUP2 ADD DUP2 DUP2 LT PUSH8 0xFFFFFFFFFFFFFFFF DUP3 GT OR ISZERO PUSH3 0x33A JUMPI PUSH3 0x339 PUSH3 0x2DE JUMP JUMPDEST JUMPDEST DUP1 PUSH1 0x40 MSTORE POP POP POP JUMP JUMPDEST PUSH1 0x0 PUSH3 0x34F PUSH3 0x279 JUMP JUMPDEST SWAP1 POP PUSH3 0x35D DUP3 DUP3 PUSH3 0x30D JUMP JUMPDEST SWAP2 SWAP1 POP JUMP JUMPDEST PUSH1 0x0 PUSH8 0xFFFFFFFFFFFFFFFF DUP3 GT ISZERO PUSH3 0x380 JUMPI PUSH3 0x37F PUSH3 0x2DE JUMP JUMPDEST JUMPDEST PUSH1 0x20 DUP3 MUL SWAP1 POP PUSH1 0x20 DUP2 ADD SWAP1 POP SWAP2 SWAP1 POP JUMP JUMPDEST PUSH1 0x0 DUP1 REVERT JUMPDEST PUSH1 0x0 PUSH3 0x3AD PUSH3 0x3A7 DUP5 PUSH3 0x362 JUMP JUMPDEST PUSH3 0x343 JUMP JUMPDEST SWAP1 POP DUP1 DUP4 DUP3 MSTORE PUSH1 0x20 DUP3 ADD SWAP1 POP PUSH1 0x20 DUP5 MUL DUP4 ADD DUP6 DUP2 GT ISZERO PUSH3 0x3D3 JUMPI PUSH3 0x3D2 PUSH3 0x391 JUMP JUMPDEST JUMPDEST DUP4 JUMPDEST DUP2 DUP2 LT ISZERO PUSH3 0x400 JUMPI DUP1 PUSH3 0x3EB DUP9 DUP3 PUSH3 0x2B1 JUMP JUMPDEST DUP5 MSTORE PUSH1 0x20 DUP5 ADD SWAP4 POP POP PUSH1 0x20 DUP2 ADD SWAP1 POP PUSH3 0x3D5 JUMP JUMPDEST POP POP POP SWAP4 SWAP3 POP POP POP JUMP JUMPDEST PUSH1 0x0 DUP3 PUSH1 0x1F DUP4 ADD SLT PUSH3 0x422 JUMPI PUSH3 0x421 PUSH3 0x2C8 JUMP JUMPDEST JUMPDEST DUP2 MLOAD PUSH3 0x434 DUP5 DUP3 PUSH1 0x20 DUP7 ADD PUSH3 0x396 JUMP JUMPDEST SWAP2 POP POP SWAP3 SWAP2 POP POP JUMP JUMPDEST PUSH1 0x0 DUP1 PUSH1 0x0 PUSH1 0x60 DUP5 DUP7 SUB SLT ISZERO PUSH3 0x459 JUMPI PUSH3 0x458 PUSH3 0x283 JUMP JUMPDEST JUMPDEST PUSH1 0x0 PUSH3 0x469 DUP7 DUP3 DUP8 ADD PUSH3 0x2B1 JUMP JUMPDEST SWAP4 POP POP PUSH1 0x20 DUP5 ADD MLOAD PUSH8 0xFFFFFFFFFFFFFFFF DUP2 GT ISZERO PUSH3 0x48D JUMPI PUSH3 0x48C PUSH3 0x288 JUMP JUMPDEST JUMPDEST PUSH3 0x49B DUP7 DUP3 DUP8 ADD PUSH3 0x40A JUMP JUMPDEST SWAP3 POP POP PUSH1 0x40 DUP5 ADD MLOAD PUSH8 0xFFFFFFFFFFFFFFFF DUP2 GT ISZERO PUSH3 0x4BF JUMPI PUSH3 0x4BE PUSH3 0x288 JUMP JUMPDEST JUMPDEST PUSH3 0x4CD DUP7 DUP3 DUP8 ADD PUSH3 0x40A JUMP JUMPDEST SWAP2 POP POP SWAP3 POP SWAP3 POP SWAP3 JUMP JUMPDEST PUSH1 0x0 DUP3 DUP3 MSTORE PUSH1 0x20 DUP3 ADD SWAP1 POP SWAP3 SWAP2 POP POP JUMP JUMPDEST PUSH32 0x4974656D2049447320616E64207374617274696E672062696473206172726179 PUSH1 0x0 DUP3 ADD MSTORE PUSH32 0x73206D7573742068617665207468652073616D65206C656E6774682E00000000 PUSH1 0x20 DUP3 ADD MSTORE POP JUMP JUMPDEST PUSH1 0x0 PUSH3 0x546 PUSH1 0x3C DUP4 PUSH3 0x4D7 JUMP JUMPDEST SWAP2 POP PUSH3 0x553 DUP3 PUSH3 0x4E8 JUMP JUMPDEST PUSH1 0x40 DUP3 ADD SWAP1 POP SWAP2 SWAP1 POP JUMP JUMPDEST PUSH1 0x0 PUSH1 0x20 DUP3 ADD SWAP1 POP DUP2 DUP2 SUB PUSH1 0x0 DUP4 ADD MSTORE PUSH3 0x579 DUP2 PUSH3 0x537 JUMP JUMPDEST SWAP1 POP SWAP2 SWAP1 POP JUMP JUMPDEST PUSH32 0x4E487B7100000000000000000000000000000000000000000000000000000000 PUSH1 0x0 MSTORE PUSH1 0x11 PUSH1 0x4 MSTORE PUSH1 0x24 PUSH1 0x0 REVERT JUMPDEST PUSH1 0x0 PUSH3 0x5BC DUP3 PUSH3 0x28D JUMP JUMPDEST SWAP2 POP PUSH3 0x5C9 DUP4 PUSH3 0x28D JUMP JUMPDEST SWAP3 POP DUP3 DUP3 ADD SWAP1 POP DUP1 DUP3 GT ISZERO PUSH3 0x5E4 JUMPI PUSH3 0x5E3 PUSH3 0x580 JUMP JUMPDEST JUMPDEST SWAP3 SWAP2 POP POP JUMP JUMPDEST PUSH32 0x4E487B7100000000000000000000000000000000000000000000000000000000 PUSH1 0x0 MSTORE PUSH1 0x32 PUSH1 0x4 MSTORE PUSH1 0x24 PUSH1 0x0 REVERT JUMPDEST PUSH1 0x0 PUSH3 0x626 DUP3 PUSH3 0x28D JUMP JUMPDEST SWAP2 POP PUSH32 0xFFFFFFFFFFFFFFFFFFFFFFFFFFFFFFFFFFFFFFFFFFFFFFFFFFFFFFFFFFFFFFFF DUP3 SUB PUSH3 0x65B JUMPI PUSH3 0x65A PUSH3 0x580 JUMP JUMPDEST JUMPDEST PUSH1 0x1 DUP3 ADD SWAP1 POP SWAP2 SWAP1 POP JUMP JUMPDEST PUSH2 0xFB0 DUP1 PUSH3 0x676 PUSH1 0x0 CODECOPY PUSH1 0x0 RETURN INVALID PUSH1 0x80 PUSH1 0x40 MSTORE PUSH1 0x4 CALLDATASIZE LT PUSH2 0x7B JUMPI PUSH1 0x0 CALLDATALOAD PUSH1 0xE0 SHR DUP1 PUSH4 0x8DDAC1EF GT PUSH2 0x4E JUMPI DUP1 PUSH4 0x8DDAC1EF EQ PUSH2 0x12F JUMPI DUP1 PUSH4 0xB3DC00FE EQ PUSH2 0x16C JUMPI DUP1 PUSH4 0xB9A2DE3A EQ PUSH2 0x1A9 JUMPI DUP1 PUSH4 0xBFB231D2 EQ PUSH2 0x1D2 JUMPI PUSH2 0x7B JUMP JUMPDEST DUP1 PUSH4 0x2E1A7D4D EQ PUSH2 0x80 JUMPI DUP1 PUSH4 0x454A2AB3 EQ PUSH2 0xBD JUMPI DUP1 PUSH4 0x4B449CBA EQ PUSH2 0xD9 JUMPI DUP1 PUSH4 0x5EC2C7BF EQ PUSH2 0x104 JUMPI JUMPDEST PUSH1 0x0 DUP1 REVERT JUMPDEST CALLVALUE DUP1 ISZERO PUSH2 0x8C JUMPI PUSH1 0x0 DUP1 REVERT JUMPDEST POP PUSH2 0xA7 PUSH1 0x4 DUP1 CALLDATASIZE SUB DUP2 ADD SWAP1 PUSH2 0xA2 SWAP2 SWAP1 PUSH2 0xA2D JUMP JUMPDEST PUSH2 0x213 JUMP JUMPDEST PUSH1 0x40 MLOAD PUSH2 0xB4 SWAP2 SWAP1 PUSH2 0xA75 JUMP JUMPDEST PUSH1 0x40 MLOAD DUP1 SWAP2 SUB SWAP1 RETURN JUMPDEST PUSH2 0xD7 PUSH1 0x4 DUP1 CALLDATASIZE SUB DUP2 ADD SWAP1 PUSH2 0xD2 SWAP2 SWAP1 PUSH2 0xA2D JUMP JUMPDEST PUSH2 0x36C JUMP JUMPDEST STOP JUMPDEST CALLVALUE DUP1 ISZERO PUSH2 0xE5 JUMPI PUSH1 0x0 DUP1 REVERT JUMPDEST POP PUSH2 0xEE PUSH2 0x645 JUMP JUMPDEST PUSH1 0x40 MLOAD PUSH2 0xFB SWAP2 SWAP1 PUSH2 0xA9F JUMP JUMPDEST PUSH1 0x40 MLOAD DUP1 SWAP2 SUB SWAP1 RETURN JUMPDEST CALLVALUE DUP1 ISZERO PUSH2 0x110 JUMPI PUSH1 0x0 DUP1 REVERT JUMPDEST POP PUSH2 0x119 PUSH2 0x64B JUMP JUMPDEST PUSH1 0x40 MLOAD PUSH2 0x126 SWAP2 SWAP1 PUSH2 0xAFB JUMP JUMPDEST PUSH1 0x40 MLOAD DUP1 SWAP2 SUB SWAP1 RETURN JUMPDEST CALLVALUE DUP1 ISZERO PUSH2 0x13B JUMPI PUSH1 0x0 DUP1 REVERT JUMPDEST POP PUSH2 0x156 PUSH1 0x4 DUP1 CALLDATASIZE SUB DUP2 ADD SWAP1 PUSH2 0x151 SWAP2 SWAP1 PUSH2 0xB42 JUMP JUMPDEST PUSH2 0x66F JUMP JUMPDEST PUSH1 0x40 MLOAD PUSH2 0x163 SWAP2 SWAP1 PUSH2 0xA9F JUMP JUMPDEST PUSH1 0x40 MLOAD DUP1 SWAP2 SUB SWAP1 RETURN JUMPDEST CALLVALUE DUP1 ISZERO PUSH2 0x178 JUMPI PUSH1 0x0 DUP1 REVERT JUMPDEST POP PUSH2 0x193 PUSH1 0x4 DUP1 CALLDATASIZE SUB DUP2 ADD SWAP1 PUSH2 0x18E SWAP2 SWAP1 PUSH2 0xA2D JUMP JUMPDEST PUSH2 0x694 JUMP JUMPDEST PUSH1 0x40 MLOAD PUSH2 0x1A0 SWAP2 SWAP1 PUSH2 0xA9F JUMP JUMPDEST PUSH1 0x40 MLOAD DUP1 SWAP2 SUB SWAP1 RETURN JUMPDEST CALLVALUE DUP1 ISZERO PUSH2 0x1B5 JUMPI PUSH1 0x0 DUP1 REVERT JUMPDEST POP PUSH2 0x1D0 PUSH1 0x4 DUP1 CALLDATASIZE SUB DUP2 ADD SWAP1 PUSH2 0x1CB SWAP2 SWAP1 PUSH2 0xA2D JUMP JUMPDEST PUSH2 0x6B8 JUMP JUMPDEST STOP JUMPDEST CALLVALUE DUP1 ISZERO PUSH2 0x1DE JUMPI PUSH1 0x0 DUP1 REVERT JUMPDEST POP PUSH2 0x1F9 PUSH1 0x4 DUP1 CALLDATASIZE SUB DUP2 ADD SWAP1 PUSH2 0x1F4 SWAP2 SWAP1 PUSH2 0xA2D JUMP JUMPDEST PUSH2 0x98F JUMP JUMPDEST PUSH1 0x40 MLOAD PUSH2 0x20A SWAP6 SWAP5 SWAP4 SWAP3 SWAP2 SWAP1 PUSH2 0xB82 JUMP JUMPDEST PUSH1 0x40 MLOAD DUP1 SWAP2 SUB SWAP1 RETURN JUMPDEST PUSH1 0x0 DUP1 PUSH1 0x3 PUSH1 0x0 DUP5 DUP2 MSTORE PUSH1 0x20 ADD SWAP1 DUP2 MSTORE PUSH1 0x20 ADD PUSH1 0x0 KECCAK256 PUSH1 0x0 CALLER PUSH20 0xFFFFFFFFFFFFFFFFFFFFFFFFFFFFFFFFFFFFFFFF AND PUSH20 0xFFFFFFFFFFFFFFFFFFFFFFFFFFFFFFFFFFFFFFFF AND DUP2 MSTORE PUSH1 0x20 ADD SWAP1 DUP2 MSTORE PUSH1 0x20 ADD PUSH1 0x0 KECCAK256 SLOAD SWAP1 POP PUSH1 0x0 DUP2 GT ISZERO PUSH2 0x361 JUMPI PUSH1 0x0 PUSH1 0x3 PUSH1 0x0 DUP6 DUP2 MSTORE PUSH1 0x20 ADD SWAP1 DUP2 MSTORE PUSH1 0x20 ADD PUSH1 0x0 KECCAK256 PUSH1 0x0 CALLER PUSH20 0xFFFFFFFFFFFFFFFFFFFFFFFFFFFFFFFFFFFFFFFF AND PUSH20 0xFFFFFFFFFFFFFFFFFFFFFFFFFFFFFFFFFFFFFFFF AND DUP2 MSTORE PUSH1 0x20 ADD SWAP1 DUP2 MSTORE PUSH1 0x20 ADD PUSH1 0x0 KECCAK256 DUP2 SWAP1 SSTORE POP CALLER PUSH20 0xFFFFFFFFFFFFFFFFFFFFFFFFFFFFFFFFFFFFFFFF AND PUSH2 0x8FC DUP3 SWAP1 DUP2 ISZERO MUL SWAP1 PUSH1 0x40 MLOAD PUSH1 0x0 PUSH1 0x40 MLOAD DUP1 DUP4 SUB DUP2 DUP6 DUP9 DUP9 CALL SWAP4 POP POP POP POP PUSH2 0x360 JUMPI DUP1 PUSH1 0x3 PUSH1 0x0 DUP6 DUP2 MSTORE PUSH1 0x20 ADD SWAP1 DUP2 MSTORE PUSH1 0x20 ADD PUSH1 0x0 KECCAK256 PUSH1 0x0 CALLER PUSH20 0xFFFFFFFFFFFFFFFFFFFFFFFFFFFFFFFFFFFFFFFF AND PUSH20 0xFFFFFFFFFFFFFFFFFFFFFFFFFFFFFFFFFFFFFFFF AND DUP2 MSTORE PUSH1 0x20 ADD SWAP1 DUP2 MSTORE PUSH1 0x20 ADD PUSH1 0x0 KECCAK256 DUP2 SWAP1 SSTORE POP PUSH1 0x0 SWAP2 POP POP PUSH2 0x367 JUMP JUMPDEST JUMPDEST PUSH1 0x1 SWAP2 POP POP JUMPDEST SWAP2 SWAP1 POP JUMP JUMPDEST PUSH1 0x2 PUSH1 0x0 DUP3 DUP2 MSTORE PUSH1 0x20 ADD SWAP1 DUP2 MSTORE PUSH1 0x20 ADD PUSH1 0x0 KECCAK256 PUSH1 0x3 ADD PUSH1 0x14 SWAP1 SLOAD SWAP1 PUSH2 0x100 EXP SWAP1 DIV PUSH1 0xFF AND PUSH2 0x3CF JUMPI PUSH1 0x40 MLOAD PUSH32 0x8C379A000000000000000000000000000000000000000000000000000000000 DUP2 MSTORE PUSH1 0x4 ADD PUSH2 0x3C6 SWAP1 PUSH2 0xC58 JUMP JUMPDEST PUSH1 0x40 MLOAD DUP1 SWAP2 SUB SWAP1 REVERT JUMPDEST PUSH1 0x1 SLOAD TIMESTAMP GT ISZERO PUSH2 0x414 JUMPI PUSH1 0x40 MLOAD PUSH32 0x8C379A000000000000000000000000000000000000000000000000000000000 DUP2 MSTORE PUSH1 0x4 ADD PUSH2 0x40B SWAP1 PUSH2 0xCC4 JUMP JUMPDEST PUSH1 0x40 MLOAD DUP1 SWAP2 SUB SWAP1 REVERT JUMPDEST PUSH1 0x2 PUSH1 0x0 DUP3 DUP2 MSTORE PUSH1 0x20 ADD SWAP1 DUP2 MSTORE PUSH1 0x20 ADD PUSH1 0x0 KECCAK256 PUSH1 0x1 ADD SLOAD CALLVALUE LT ISZERO PUSH2 0x46D JUMPI PUSH1 0x40 MLOAD PUSH32 0x8C379A000000000000000000000000000000000000000000000000000000000 DUP2 MSTORE PUSH1 0x4 ADD PUSH2 0x464 SWAP1 PUSH2 0xD56 JUMP JUMPDEST PUSH1 0x40 MLOAD DUP1 SWAP2 SUB SWAP1 REVERT JUMPDEST PUSH1 0x2 PUSH1 0x0 DUP3 DUP2 MSTORE PUSH1 0x20 ADD SWAP1 DUP2 MSTORE PUSH1 0x20 ADD PUSH1 0x0 KECCAK256 PUSH1 0x2 ADD SLOAD CALLVALUE GT PUSH2 0x4C5 JUMPI PUSH1 0x40 MLOAD PUSH32 0x8C379A000000000000000000000000000000000000000000000000000000000 DUP2 MSTORE PUSH1 0x4 ADD PUSH2 0x4BC SWAP1 PUSH2 0xDC2 JUMP JUMPDEST PUSH1 0x40 MLOAD DUP1 SWAP2 SUB SWAP1 REVERT JUMPDEST PUSH1 0x0 PUSH1 0x2 PUSH1 0x0 DUP4 DUP2 MSTORE PUSH1 0x20 ADD SWAP1 DUP2 MSTORE PUSH1 0x20 ADD PUSH1 0x0 KECCAK256 PUSH1 0x2 ADD SLOAD EQ PUSH2 0x597 JUMPI PUSH1 0x2 PUSH1 0x0 DUP3 DUP2 MSTORE PUSH1 0x20 ADD SWAP1 DUP2 MSTORE PUSH1 0x20 ADD PUSH1 0x0 KECCAK256 PUSH1 0x2 ADD SLOAD PUSH1 0x3 PUSH1 0x0 DUP4 DUP2 MSTORE PUSH1 0x20 ADD SWAP1 DUP2 MSTORE PUSH1 0x20 ADD PUSH1 0x0 KECCAK256 PUSH1 0x0 PUSH1 0x2 PUSH1 0x0 DUP6 DUP2 MSTORE PUSH1 0x20 ADD SWAP1 DUP2 MSTORE PUSH1 0x20 ADD PUSH1 0x0 KECCAK256 PUSH1 0x3 ADD PUSH1 0x0 SWAP1 SLOAD SWAP1 PUSH2 0x100 EXP SWAP1 DIV PUSH20 0xFFFFFFFFFFFFFFFFFFFFFFFFFFFFFFFFFFFFFFFF AND PUSH20 0xFFFFFFFFFFFFFFFFFFFFFFFFFFFFFFFFFFFFFFFF AND PUSH20 0xFFFFFFFFFFFFFFFFFFFFFFFFFFFFFFFFFFFFFFFF AND DUP2 MSTORE PUSH1 0x20 ADD SWAP1 DUP2 MSTORE PUSH1 0x20 ADD PUSH1 0x0 KECCAK256 PUSH1 0x0 DUP3 DUP3 SLOAD PUSH2 0x58F SWAP2 SWAP1 PUSH2 0xE11 JUMP JUMPDEST SWAP3 POP POP DUP2 SWAP1 SSTORE POP JUMPDEST CALLER PUSH1 0x2 PUSH1 0x0 DUP4 DUP2 MSTORE PUSH1 0x20 ADD SWAP1 DUP2 MSTORE PUSH1 0x20 ADD PUSH1 0x0 KECCAK256 PUSH1 0x3 ADD PUSH1 0x0 PUSH2 0x100 EXP DUP2 SLOAD DUP2 PUSH20 0xFFFFFFFFFFFFFFFFFFFFFFFFFFFFFFFFFFFFFFFF MUL NOT AND SWAP1 DUP4 PUSH20 0xFFFFFFFFFFFFFFFFFFFFFFFFFFFFFFFFFFFFFFFF AND MUL OR SWAP1 SSTORE POP CALLVALUE PUSH1 0x2 PUSH1 0x0 DUP4 DUP2 MSTORE PUSH1 0x20 ADD SWAP1 DUP2 MSTORE PUSH1 0x20 ADD PUSH1 0x0 KECCAK256 PUSH1 0x2 ADD DUP2 SWAP1 SSTORE POP PUSH32 0xDA0A18DA71D8EBD145966339A728FC0D8CCC07C22870D561890D823C515DDA6B DUP2 CALLER CALLVALUE PUSH1 0x40 MLOAD PUSH2 0x63A SWAP4 SWAP3 SWAP2 SWAP1 PUSH2 0xE45 JUMP JUMPDEST PUSH1 0x40 MLOAD DUP1 SWAP2 SUB SWAP1 LOG1 POP JUMP JUMPDEST PUSH1 0x1 SLOAD DUP2 JUMP JUMPDEST PUSH1 0x0 DUP1 SLOAD SWAP1 PUSH2 0x100 EXP SWAP1 DIV PUSH20 0xFFFFFFFFFFFFFFFFFFFFFFFFFFFFFFFFFFFFFFFF AND DUP2 JUMP JUMPDEST PUSH1 0x3 PUSH1 0x20 MSTORE DUP2 PUSH1 0x0 MSTORE PUSH1 0x40 PUSH1 0x0 KECCAK256 PUSH1 0x20 MSTORE DUP1 PUSH1 0x0 MSTORE PUSH1 0x40 PUSH1 0x0 KECCAK256 PUSH1 0x0 SWAP2 POP SWAP2 POP POP SLOAD DUP2 JUMP JUMPDEST PUSH1 0x4 DUP2 DUP2 SLOAD DUP2 LT PUSH2 0x6A4 JUMPI PUSH1 0x0 DUP1 REVERT JUMPDEST SWAP1 PUSH1 0x0 MSTORE PUSH1 0x20 PUSH1 0x0 KECCAK256 ADD PUSH1 0x0 SWAP2 POP SWAP1 POP SLOAD DUP2 JUMP JUMPDEST PUSH1 0x0 DUP1 SLOAD SWAP1 PUSH2 0x100 EXP SWAP1 DIV PUSH20 0xFFFFFFFFFFFFFFFFFFFFFFFFFFFFFFFFFFFFFFFF AND PUSH20 0xFFFFFFFFFFFFFFFFFFFFFFFFFFFFFFFFFFFFFFFF AND CALLER PUSH20 0xFFFFFFFFFFFFFFFFFFFFFFFFFFFFFFFFFFFFFFFF AND EQ PUSH2 0x746 JUMPI PUSH1 0x40 MLOAD PUSH32 0x8C379A000000000000000000000000000000000000000000000000000000000 DUP2 MSTORE PUSH1 0x4 ADD PUSH2 0x73D SWAP1 PUSH2 0xEEE JUMP JUMPDEST PUSH1 0x40 MLOAD DUP1 SWAP2 SUB SWAP1 REVERT JUMPDEST PUSH1 0x1 SLOAD TIMESTAMP LT ISZERO PUSH2 0x78B JUMPI PUSH1 0x40 MLOAD PUSH32 0x8C379A000000000000000000000000000000000000000000000000000000000 DUP2 MSTORE PUSH1 0x4 ADD PUSH2 0x782 SWAP1 PUSH2 0xF5A JUMP JUMPDEST PUSH1 0x40 MLOAD DUP1 SWAP2 SUB SWAP1 REVERT JUMPDEST PUSH1 0x2 PUSH1 0x0 DUP3 DUP2 MSTORE PUSH1 0x20 ADD SWAP1 DUP2 MSTORE PUSH1 0x20 ADD PUSH1 0x0 KECCAK256 PUSH1 0x3 ADD PUSH1 0x14 SWAP1 SLOAD SWAP1 PUSH2 0x100 EXP SWAP1 DIV PUSH1 0xFF AND PUSH2 0x7EE JUMPI PUSH1 0x40 MLOAD PUSH32 0x8C379A000000000000000000000000000000000000000000000000000000000 DUP2 MSTORE PUSH1 0x4 ADD PUSH2 0x7E5 SWAP1 PUSH2 0xC58 JUMP JUMPDEST PUSH1 0x40 MLOAD DUP1 SWAP2 SUB SWAP1 REVERT JUMPDEST PUSH1 0x0 PUSH1 0x2 PUSH1 0x0 DUP4 DUP2 MSTORE PUSH1 0x20 ADD SWAP1 DUP2 MSTORE PUSH1 0x20 ADD PUSH1 0x0 KECCAK256 PUSH1 0x3 ADD PUSH1 0x14 PUSH2 0x100 EXP DUP2 SLOAD DUP2 PUSH1 0xFF MUL NOT AND SWAP1 DUP4 ISZERO ISZERO MUL OR SWAP1 SSTORE POP PUSH32 0xD2AA34A4FDBBC6DFF6A3E56F46E0F3AE2A31D7785FF3487AA5C95C642ACEA501 DUP2 PUSH1 0x2 PUSH1 0x0 DUP5 DUP2 MSTORE PUSH1 0x20 ADD SWAP1 DUP2 MSTORE PUSH1 0x20 ADD PUSH1 0x0 KECCAK256 PUSH1 0x3 ADD PUSH1 0x0 SWAP1 SLOAD SWAP1 PUSH2 0x100 EXP SWAP1 DIV PUSH20 0xFFFFFFFFFFFFFFFFFFFFFFFFFFFFFFFFFFFFFFFF AND PUSH1 0x2 PUSH1 0x0 DUP6 DUP2 MSTORE PUSH1 0x20 ADD SWAP1 DUP2 MSTORE PUSH1 0x20 ADD PUSH1 0x0 KECCAK256 PUSH1 0x2 ADD SLOAD PUSH1 0x40 MLOAD PUSH2 0x89C SWAP4 SWAP3 SWAP2 SWAP1 PUSH2 0xE45 JUMP JUMPDEST PUSH1 0x40 MLOAD DUP1 SWAP2 SUB SWAP1 LOG1 PUSH1 0x0 PUSH20 0xFFFFFFFFFFFFFFFFFFFFFFFFFFFFFFFFFFFFFFFF AND PUSH1 0x2 PUSH1 0x0 DUP4 DUP2 MSTORE PUSH1 0x20 ADD SWAP1 DUP2 MSTORE PUSH1 0x20 ADD PUSH1 0x0 KECCAK256 PUSH1 0x3 ADD PUSH1 0x0 SWAP1 SLOAD SWAP1 PUSH2 0x100 EXP SWAP1 DIV PUSH20 0xFFFFFFFFFFFFFFFFFFFFFFFFFFFFFFFFFFFFFFFF AND PUSH20 0xFFFFFFFFFFFFFFFFFFFFFFFFFFFFFFFFFFFFFFFF AND EQ PUSH2 0x98C JUMPI PUSH1 0x0 DUP1 SLOAD SWAP1 PUSH2 0x100 EXP SWAP1 DIV PUSH20 0xFFFFFFFFFFFFFFFFFFFFFFFFFFFFFFFFFFFFFFFF AND PUSH20 0xFFFFFFFFFFFFFFFFFFFFFFFFFFFFFFFFFFFFFFFF AND PUSH2 0x8FC PUSH1 0x2 PUSH1 0x0 DUP5 DUP2 MSTORE PUSH1 0x20 ADD SWAP1 DUP2 MSTORE PUSH1 0x20 ADD PUSH1 0x0 KECCAK256 PUSH1 0x2 ADD SLOAD SWAP1 DUP2 ISZERO MUL SWAP1 PUSH1 0x40 MLOAD PUSH1 0x0 PUSH1 0x40 MLOAD DUP1 DUP4 SUB DUP2 DUP6 DUP9 DUP9 CALL SWAP4 POP POP POP POP ISZERO DUP1 ISZERO PUSH2 0x98A JUMPI RETURNDATASIZE PUSH1 0x0 DUP1 RETURNDATACOPY RETURNDATASIZE PUSH1 0x0 REVERT JUMPDEST POP JUMPDEST POP JUMP JUMPDEST PUSH1 0x2 PUSH1 0x20 MSTORE DUP1 PUSH1 0x0 MSTORE PUSH1 0x40 PUSH1 0x0 KECCAK256 PUSH1 0x0 SWAP2 POP SWAP1 POP DUP1 PUSH1 0x0 ADD SLOAD SWAP1 DUP1 PUSH1 0x1 ADD SLOAD SWAP1 DUP1 PUSH1 0x2 ADD SLOAD SWAP1 DUP1 PUSH1 0x3 ADD PUSH1 0x0 SWAP1 SLOAD SWAP1 PUSH2 0x100 EXP SWAP1 DIV PUSH20 0xFFFFFFFFFFFFFFFFFFFFFFFFFFFFFFFFFFFFFFFF AND SWAP1 DUP1 PUSH1 0x3 ADD PUSH1 0x14 SWAP1 SLOAD SWAP1 PUSH2 0x100 EXP SWAP1 DIV PUSH1 0xFF AND SWAP1 POP DUP6 JUMP JUMPDEST PUSH1 0x0 DUP1 REVERT JUMPDEST PUSH1 0x0 DUP2 SWAP1 POP SWAP2 SWAP1 POP JUMP JUMPDEST PUSH2 0xA0A DUP2 PUSH2 0x9F7 JUMP JUMPDEST DUP2 EQ PUSH2 0xA15 JUMPI PUSH1 0x0 DUP1 REVERT JUMPDEST POP JUMP JUMPDEST PUSH1 0x0 DUP2 CALLDATALOAD SWAP1 POP PUSH2 0xA27 DUP2 PUSH2 0xA01 JUMP JUMPDEST SWAP3 SWAP2 POP POP JUMP JUMPDEST PUSH1 0x0 PUSH1 0x20 DUP3 DUP5 SUB SLT ISZERO PUSH2 0xA43 JUMPI PUSH2 0xA42 PUSH2 0x9F2 JUMP JUMPDEST JUMPDEST PUSH1 0x0 PUSH2 0xA51 DUP5 DUP3 DUP6 ADD PUSH2 0xA18 JUMP JUMPDEST SWAP2 POP POP SWAP3 SWAP2 POP POP JUMP JUMPDEST PUSH1 0x0 DUP2 ISZERO ISZERO SWAP1 POP SWAP2 SWAP1 POP JUMP JUMPDEST PUSH2 0xA6F DUP2 PUSH2 0xA5A JUMP JUMPDEST DUP3 MSTORE POP POP JUMP JUMPDEST PUSH1 0x0 PUSH1 0x20 DUP3 ADD SWAP1 POP PUSH2 0xA8A PUSH1 0x0 DUP4 ADD DUP5 PUSH2 0xA66 JUMP JUMPDEST SWAP3 SWAP2 POP POP JUMP JUMPDEST PUSH2 0xA99 DUP2 PUSH2 0x9F7 JUMP JUMPDEST DUP3 MSTORE POP POP JUMP JUMPDEST PUSH1 0x0 PUSH1 0x20 DUP3 ADD SWAP1 POP PUSH2 0xAB4 PUSH1 0x0 DUP4 ADD DUP5 PUSH2 0xA90 JUMP JUMPDEST SWAP3 SWAP2 POP POP JUMP JUMPDEST PUSH1 0x0 PUSH20 0xFFFFFFFFFFFFFFFFFFFFFFFFFFFFFFFFFFFFFFFF DUP3 AND SWAP1 POP SWAP2 SWAP1 POP JUMP JUMPDEST PUSH1 0x0 PUSH2 0xAE5 DUP3 PUSH2 0xABA JUMP JUMPDEST SWAP1 POP SWAP2 SWAP1 POP JUMP JUMPDEST PUSH2 0xAF5 DUP2 PUSH2 0xADA JUMP JUMPDEST DUP3 MSTORE POP POP JUMP JUMPDEST PUSH1 0x0 PUSH1 0x20 DUP3 ADD SWAP1 POP PUSH2 0xB10 PUSH1 0x0 DUP4 ADD DUP5 PUSH2 0xAEC JUMP JUMPDEST SWAP3 SWAP2 POP POP JUMP JUMPDEST PUSH2 0xB1F DUP2 PUSH2 0xADA JUMP JUMPDEST DUP2 EQ PUSH2 0xB2A JUMPI PUSH1 0x0 DUP1 REVERT JUMPDEST POP JUMP JUMPDEST PUSH1 0x0 DUP2 CALLDATALOAD SWAP1 POP PUSH2 0xB3C DUP2 PUSH2 0xB16 JUMP JUMPDEST SWAP3 SWAP2 POP POP JUMP JUMPDEST PUSH1 0x0 DUP1 PUSH1 0x40 DUP4 DUP6 SUB SLT ISZERO PUSH2 0xB59 JUMPI PUSH2 0xB58 PUSH2 0x9F2 JUMP JUMPDEST JUMPDEST PUSH1 0x0 PUSH2 0xB67 DUP6 DUP3 DUP7 ADD PUSH2 0xA18 JUMP JUMPDEST SWAP3 POP POP PUSH1 0x20 PUSH2 0xB78 DUP6 DUP3 DUP7 ADD PUSH2 0xB2D JUMP JUMPDEST SWAP2 POP POP SWAP3 POP SWAP3 SWAP1 POP JUMP JUMPDEST PUSH1 0x0 PUSH1 0xA0 DUP3 ADD SWAP1 POP PUSH2 0xB97 PUSH1 0x0 DUP4 ADD DUP9 PUSH2 0xA90 JUMP JUMPDEST PUSH2 0xBA4 PUSH1 0x20 DUP4 ADD DUP8 PUSH2 0xA90 JUMP JUMPDEST PUSH2 0xBB1 PUSH1 0x40 DUP4 ADD DUP7 PUSH2 0xA90 JUMP JUMPDEST PUSH2 0xBBE PUSH1 0x60 DUP4 ADD DUP6 PUSH2 0xAEC JUMP JUMPDEST PUSH2 0xBCB PUSH1 0x80 DUP4 ADD DUP5 PUSH2 0xA66 JUMP JUMPDEST SWAP7 SWAP6 POP POP POP POP POP POP JUMP JUMPDEST PUSH1 0x0 DUP3 DUP3 MSTORE PUSH1 0x20 DUP3 ADD SWAP1 POP SWAP3 SWAP2 POP POP JUMP JUMPDEST PUSH32 0x4974656D20646F6573206E6F74206578697374206F72206973206E6F74206163 PUSH1 0x0 DUP3 ADD MSTORE PUSH32 0x746976652E000000000000000000000000000000000000000000000000000000 PUSH1 0x20 DUP3 ADD MSTORE POP JUMP JUMPDEST PUSH1 0x0 PUSH2 0xC42 PUSH1 0x25 DUP4 PUSH2 0xBD5 JUMP JUMPDEST SWAP2 POP PUSH2 0xC4D DUP3 PUSH2 0xBE6 JUMP JUMPDEST PUSH1 0x40 DUP3 ADD SWAP1 POP SWAP2 SWAP1 POP JUMP JUMPDEST PUSH1 0x0 PUSH1 0x20 DUP3 ADD SWAP1 POP DUP2 DUP2 SUB PUSH1 0x0 DUP4 ADD MSTORE PUSH2 0xC71 DUP2 PUSH2 0xC35 JUMP JUMPDEST SWAP1 POP SWAP2 SWAP1 POP JUMP JUMPDEST PUSH32 0x41756374696F6E20616C726561647920656E6465642E00000000000000000000 PUSH1 0x0 DUP3 ADD MSTORE POP JUMP JUMPDEST PUSH1 0x0 PUSH2 0xCAE PUSH1 0x16 DUP4 PUSH2 0xBD5 JUMP JUMPDEST SWAP2 POP PUSH2 0xCB9 DUP3 PUSH2 0xC78 JUMP JUMPDEST PUSH1 0x20 DUP3 ADD SWAP1 POP SWAP2 SWAP1 POP JUMP JUMPDEST PUSH1 0x0 PUSH1 0x20 DUP3 ADD SWAP1 POP DUP2 DUP2 SUB PUSH1 0x0 DUP4 ADD MSTORE PUSH2 0xCDD DUP2 PUSH2 0xCA1 JUMP JUMPDEST SWAP1 POP SWAP2 SWAP1 POP JUMP JUMPDEST PUSH32 0x426964206D75737420626520657175616C206F7220686967686572207468616E PUSH1 0x0 DUP3 ADD MSTORE PUSH32 0x20746865206974656D2773207374617274696E67206269642E00000000000000 PUSH1 0x20 DUP3 ADD MSTORE POP JUMP JUMPDEST PUSH1 0x0 PUSH2 0xD40 PUSH1 0x39 DUP4 PUSH2 0xBD5 JUMP JUMPDEST SWAP2 POP PUSH2 0xD4B DUP3 PUSH2 0xCE4 JUMP JUMPDEST PUSH1 0x40 DUP3 ADD SWAP1 POP SWAP2 SWAP1 POP JUMP JUMPDEST PUSH1 0x0 PUSH1 0x20 DUP3 ADD SWAP1 POP DUP2 DUP2 SUB PUSH1 0x0 DUP4 ADD MSTORE PUSH2 0xD6F DUP2 PUSH2 0xD33 JUMP JUMPDEST SWAP1 POP SWAP2 SWAP1 POP JUMP JUMPDEST PUSH32 0x546865726520616C7265616479206973206120686967686572206269642E0000 PUSH1 0x0 DUP3 ADD MSTORE POP JUMP JUMPDEST PUSH1 0x0 PUSH2 0xDAC PUSH1 0x1E DUP4 PUSH2 0xBD5 JUMP JUMPDEST SWAP2 POP PUSH2 0xDB7 DUP3 PUSH2 0xD76 JUMP JUMPDEST PUSH1 0x20 DUP3 ADD SWAP1 POP SWAP2 SWAP1 POP JUMP JUMPDEST PUSH1 0x0 PUSH1 0x20 DUP3 ADD SWAP1 POP DUP2 DUP2 SUB PUSH1 0x0 DUP4 ADD MSTORE PUSH2 0xDDB DUP2 PUSH2 0xD9F JUMP JUMPDEST SWAP1 POP SWAP2 SWAP1 POP JUMP JUMPDEST PUSH32 0x4E487B7100000000000000000000000000000000000000000000000000000000 PUSH1 0x0 MSTORE PUSH1 0x11 PUSH1 0x4 MSTORE PUSH1 0x24 PUSH1 0x0 REVERT JUMPDEST PUSH1 0x0 PUSH2 0xE1C DUP3 PUSH2 0x9F7 JUMP JUMPDEST SWAP2 POP PUSH2 0xE27 DUP4 PUSH2 0x9F7 JUMP JUMPDEST SWAP3 POP DUP3 DUP3 ADD SWAP1 POP DUP1 DUP3 GT ISZERO PUSH2 0xE3F JUMPI PUSH2 0xE3E PUSH2 0xDE2 JUMP JUMPDEST JUMPDEST SWAP3 SWAP2 POP POP JUMP JUMPDEST PUSH1 0x0 PUSH1 0x60 DUP3 ADD SWAP1 POP PUSH2 0xE5A PUSH1 0x0 DUP4 ADD DUP7 PUSH2 0xA90 JUMP JUMPDEST PUSH2 0xE67 PUSH1 0x20 DUP4 ADD DUP6 PUSH2 0xAEC JUMP JUMPDEST PUSH2 0xE74 PUSH1 0x40 DUP4 ADD DUP5 PUSH2 0xA90 JUMP JUMPDEST SWAP5 SWAP4 POP POP POP POP JUMP JUMPDEST PUSH32 0x4F6E6C79207468652061756374696F6E6565722063616E20656E642074686520 PUSH1 0x0 DUP3 ADD MSTORE PUSH32 0x61756374696F6E2E000000000000000000000000000000000000000000000000 PUSH1 0x20 DUP3 ADD MSTORE POP JUMP JUMPDEST PUSH1 0x0 PUSH2 0xED8 PUSH1 0x28 DUP4 PUSH2 0xBD5 JUMP JUMPDEST SWAP2 POP PUSH2 0xEE3 DUP3 PUSH2 0xE7C JUMP JUMPDEST PUSH1 0x40 DUP3 ADD SWAP1 POP SWAP2 SWAP1 POP JUMP JUMPDEST PUSH1 0x0 PUSH1 0x20 DUP3 ADD SWAP1 POP DUP2 DUP2 SUB PUSH1 0x0 DUP4 ADD MSTORE PUSH2 0xF07 DUP2 PUSH2 0xECB JUMP JUMPDEST SWAP1 POP SWAP2 SWAP1 POP JUMP JUMPDEST PUSH32 0x41756374696F6E206E6F742079657420656E6465642E00000000000000000000 PUSH1 0x0 DUP3 ADD MSTORE POP JUMP JUMPDEST PUSH1 0x0 PUSH2 0xF44 PUSH1 0x16 DUP4 PUSH2 0xBD5 JUMP JUMPDEST SWAP2 POP PUSH2 0xF4F DUP3 PUSH2 0xF0E JUMP JUMPDEST PUSH1 0x20 DUP3 ADD SWAP1 POP SWAP2 SWAP1 POP JUMP JUMPDEST PUSH1 0x0 PUSH1 0x20 DUP3 ADD SWAP1 POP DUP2 DUP2 SUB PUSH1 0x0 DUP4 ADD MSTORE PUSH2 0xF73 DUP2 PUSH2 0xF37 JUMP JUMPDEST SWAP1 POP SWAP2 SWAP1 POP JUMP INVALID LOG2 PUSH5 0x6970667358 0x22 SLT KECCAK256 KECCAK256 CALL BLOCKHASH 0xC6 0xE5 0xD3 DUP16 SWAP10 0xC SSTORE 0xDB 0xC9 SWAP15 0xBD 0xC5 PUSH17 0xAA42890EA74D0C5931940BA83192D45864 PUSH20 0x6F6C634300081200330000000000000000000000 "
		},
		"gasEstimates": {
			"creation": {
				"codeDepositCost": "1858400",
				"executionCost": "infinite",
				"totalCost": "infinite"
			},
			"external": {
				"beforeAll()": "infinite",
				"checkFailure()": "infinite",
				"checkSenderAndValue()": "infinite",
				"checkSuccess()": "infinite",
				"checkSuccess2()": "343",
				"setup(uint256)": "infinite"
			}
		},
		"methodIdentifiers": {
			"beforeAll()": "7fea0d4b",
			"checkFailure()": "36c00656",
			"checkSenderAndValue()": "9074416d",
			"checkSuccess()": "011e6492",
			"checkSuccess2()": "12d487ea",
			"setup(uint256)": "4313b9e5"
		}
	},
	"abi": [
		{
			"inputs": [
				{
					"internalType": "uint256",
					"name": "a",
					"type": "uint256"
				}
			],
			"stateMutability": "nonpayable",
			"type": "constructor"
		},
		{
			"inputs": [],
			"name": "beforeAll",
			"outputs": [],
			"stateMutability": "nonpayable",
			"type": "function"
		},
		{
			"inputs": [],
			"name": "checkFailure",
			"outputs": [],
			"stateMutability": "nonpayable",
			"type": "function"
		},
		{
			"inputs": [],
			"name": "checkSenderAndValue",
			"outputs": [],
			"stateMutability": "payable",
			"type": "function"
		},
		{
			"inputs": [],
			"name": "checkSuccess",
			"outputs": [],
			"stateMutability": "nonpayable",
			"type": "function"
		},
		{
			"inputs": [],
			"name": "checkSuccess2",
			"outputs": [
				{
					"internalType": "bool",
					"name": "",
					"type": "bool"
				}
			],
			"stateMutability": "pure",
			"type": "function"
		},
		{
			"inputs": [
				{
					"internalType": "uint256",
					"name": "a",
					"type": "uint256"
				}
			],
			"name": "setup",
			"outputs": [],
			"stateMutability": "nonpayable",
			"type": "function"
		}
	]
}